{
  "address": "0xf25109714a577af22AbB999D377fBC10095877DC",
  "abi": [
    {
      "inputs": [
        {
          "internalType": "address",
          "name": "_token0",
          "type": "address"
        },
        {
          "internalType": "address",
          "name": "_token1",
          "type": "address"
        },
        {
          "internalType": "address",
          "name": "_manager",
          "type": "address"
        },
        {
          "internalType": "address",
          "name": "_validator",
          "type": "address"
        },
        {
          "internalType": "uint32",
          "name": "_noticePeriod",
          "type": "uint32"
        }
      ],
      "stateMutability": "nonpayable",
      "type": "constructor"
    },
    {
      "inputs": [
        {
          "internalType": "uint256",
          "name": "actual",
          "type": "uint256"
        },
        {
          "internalType": "uint256",
          "name": "min",
          "type": "uint256"
        }
      ],
      "name": "Mammon__AmountIsBelowMin",
      "type": "error"
    },
    {
      "inputs": [],
      "name": "Mammon__CallerIsNotManager",
      "type": "error"
    },
    {
      "inputs": [],
      "name": "Mammon__CallerIsNotOwnerOrManager",
      "type": "error"
    },
    {
      "inputs": [],
      "name": "Mammon__FinalizationNotInitialized",
      "type": "error"
    },
    {
      "inputs": [],
      "name": "Mammon__ManagerIsZeroAddress",
      "type": "error"
    },
    {
      "inputs": [
        {
          "internalType": "uint256",
          "name": "actual",
          "type": "uint256"
        },
        {
          "internalType": "uint256",
          "name": "max",
          "type": "uint256"
        }
      ],
      "name": "Mammon__NoticePeriodIsAboveMax",
      "type": "error"
    },
    {
      "inputs": [
        {
          "internalType": "uint64",
          "name": "noticeTimeoutAt",
          "type": "uint64"
        }
      ],
      "name": "Mammon__NoticeTimeoutNotElapsed",
      "type": "error"
    },
    {
      "inputs": [
        {
          "internalType": "uint256",
          "name": "actual",
          "type": "uint256"
        },
        {
          "internalType": "uint256",
          "name": "max",
          "type": "uint256"
        }
      ],
      "name": "Mammon__RatioChangePerBlockIsAboveMax",
      "type": "error"
    },
    {
      "inputs": [
        {
          "internalType": "address",
          "name": "token",
          "type": "address"
        }
      ],
      "name": "Mammon__SameTokenAddresses",
      "type": "error"
    },
    {
      "inputs": [
        {
          "internalType": "address",
          "name": "validator",
          "type": "address"
        }
      ],
      "name": "Mammon__ValidatorIsNotValid",
      "type": "error"
    },
    {
      "inputs": [],
      "name": "Mammon__VaultIsAlreadyInitialized",
      "type": "error"
    },
    {
      "inputs": [],
      "name": "Mammon__VaultIsFinalizing",
      "type": "error"
    },
    {
      "inputs": [],
      "name": "Mammon__VaultNotInitialized",
      "type": "error"
    },
    {
      "inputs": [
        {
          "internalType": "uint256",
          "name": "actual",
          "type": "uint256"
        },
        {
          "internalType": "uint256",
          "name": "max",
          "type": "uint256"
        }
      ],
      "name": "Mammon__WeightIsAboveMax",
      "type": "error"
    },
    {
      "inputs": [
        {
          "internalType": "uint256",
          "name": "actual",
          "type": "uint256"
        },
        {
          "internalType": "uint256",
          "name": "min",
          "type": "uint256"
        }
      ],
      "name": "Mammon__WeightIsBelowMin",
      "type": "error"
    },
    {
      "anonymous": false,
      "inputs": [
        {
          "indexed": true,
          "internalType": "address",
          "name": "factory",
          "type": "address"
        },
        {
          "indexed": true,
          "internalType": "address",
          "name": "token0",
          "type": "address"
        },
        {
          "indexed": true,
          "internalType": "address",
          "name": "token1",
          "type": "address"
        },
        {
          "indexed": false,
          "internalType": "address",
          "name": "manager",
          "type": "address"
        },
        {
          "indexed": false,
          "internalType": "address",
          "name": "validator",
          "type": "address"
        },
        {
          "indexed": false,
          "internalType": "uint32",
          "name": "noticePeriod",
          "type": "uint32"
        }
      ],
      "name": "Created",
      "type": "event"
    },
    {
      "anonymous": false,
      "inputs": [
        {
          "indexed": false,
          "internalType": "uint256",
          "name": "amount0",
          "type": "uint256"
        },
        {
          "indexed": false,
          "internalType": "uint256",
          "name": "amount1",
          "type": "uint256"
        },
        {
          "indexed": false,
          "internalType": "uint256",
          "name": "weight0",
          "type": "uint256"
        },
        {
          "indexed": false,
          "internalType": "uint256",
          "name": "weight1",
          "type": "uint256"
        }
      ],
      "name": "Deposit",
      "type": "event"
    },
    {
      "anonymous": false,
      "inputs": [
        {
          "indexed": false,
          "internalType": "uint64",
          "name": "noticeTimeoutAt",
          "type": "uint64"
        }
      ],
      "name": "FinalizationInitialized",
      "type": "event"
    },
    {
      "anonymous": false,
      "inputs": [
        {
          "indexed": true,
          "internalType": "address",
          "name": "caller",
          "type": "address"
        },
        {
          "indexed": false,
          "internalType": "uint256",
          "name": "amount0",
          "type": "uint256"
        },
        {
          "indexed": false,
          "internalType": "uint256",
          "name": "amount1",
          "type": "uint256"
        }
      ],
      "name": "Finalized",
      "type": "event"
    },
    {
      "anonymous": false,
      "inputs": [
        {
          "indexed": true,
          "internalType": "address",
          "name": "previousManager",
          "type": "address"
        },
        {
          "indexed": true,
          "internalType": "address",
          "name": "manager",
          "type": "address"
        }
      ],
      "name": "ManagerChanged",
      "type": "event"
    },
    {
      "anonymous": false,
      "inputs": [
        {
          "indexed": true,
          "internalType": "address",
          "name": "previousOwner",
          "type": "address"
        },
        {
          "indexed": true,
          "internalType": "address",
          "name": "newOwner",
          "type": "address"
        }
      ],
      "name": "OwnershipTransferred",
      "type": "event"
    },
    {
      "anonymous": false,
      "inputs": [],
      "name": "PokeWeights",
      "type": "event"
    },
    {
      "anonymous": false,
      "inputs": [
        {
          "indexed": false,
          "internalType": "bool",
          "name": "publicSwap",
          "type": "bool"
        }
      ],
      "name": "SetPublicSwap",
      "type": "event"
    },
    {
      "anonymous": false,
      "inputs": [
        {
          "indexed": false,
          "internalType": "uint256",
          "name": "swapFee",
          "type": "uint256"
        }
      ],
      "name": "SetSwapFee",
      "type": "event"
    },
    {
      "anonymous": false,
      "inputs": [
        {
          "indexed": false,
          "internalType": "uint256",
          "name": "weight0",
          "type": "uint256"
        },
        {
          "indexed": false,
          "internalType": "uint256",
          "name": "weight1",
          "type": "uint256"
        },
        {
          "indexed": false,
          "internalType": "uint256",
          "name": "startBlock",
          "type": "uint256"
        },
        {
          "indexed": false,
          "internalType": "uint256",
          "name": "endBlock",
          "type": "uint256"
        }
      ],
      "name": "UpdateWeightsGradually",
      "type": "event"
    },
    {
      "anonymous": false,
      "inputs": [
        {
          "indexed": false,
          "internalType": "uint256",
          "name": "requestedAmount0",
          "type": "uint256"
        },
        {
          "indexed": false,
          "internalType": "uint256",
          "name": "requestedAmount1",
          "type": "uint256"
        },
        {
          "indexed": false,
          "internalType": "uint256",
          "name": "withdrawnAmount0",
          "type": "uint256"
        },
        {
          "indexed": false,
          "internalType": "uint256",
          "name": "withdrawnAmount1",
          "type": "uint256"
        },
        {
          "indexed": false,
          "internalType": "uint256",
          "name": "allowance0",
          "type": "uint256"
        },
        {
          "indexed": false,
          "internalType": "uint256",
          "name": "allowance1",
          "type": "uint256"
        },
        {
          "indexed": false,
          "internalType": "uint256",
          "name": "finalWeight0",
          "type": "uint256"
        },
        {
          "indexed": false,
          "internalType": "uint256",
          "name": "finalWeight1",
          "type": "uint256"
        }
      ],
      "name": "Withdraw",
      "type": "event"
    },
    {
      "inputs": [],
      "name": "__bfactory",
      "outputs": [
        {
          "internalType": "address",
          "name": "",
          "type": "address"
        }
      ],
      "stateMutability": "view",
      "type": "function"
    },
    {
      "inputs": [
        {
          "internalType": "uint256",
          "name": "amount0",
          "type": "uint256"
        },
        {
          "internalType": "uint256",
          "name": "amount1",
          "type": "uint256"
        }
      ],
      "name": "deposit",
      "outputs": [],
      "stateMutability": "nonpayable",
      "type": "function"
    },
    {
      "inputs": [],
      "name": "finalize",
      "outputs": [],
      "stateMutability": "nonpayable",
      "type": "function"
    },
    {
      "inputs": [
        {
          "internalType": "address",
          "name": "token",
          "type": "address"
        }
      ],
      "name": "getDenormalizedWeight",
      "outputs": [
        {
          "internalType": "uint256",
          "name": "",
          "type": "uint256"
        }
      ],
      "stateMutability": "view",
      "type": "function"
    },
    {
      "inputs": [],
      "name": "getSwapFee",
      "outputs": [
        {
          "internalType": "uint256",
          "name": "",
          "type": "uint256"
        }
      ],
      "stateMutability": "view",
      "type": "function"
    },
    {
      "inputs": [
        {
          "internalType": "uint256",
          "name": "targetWeight0",
          "type": "uint256"
        },
        {
          "internalType": "uint256",
          "name": "targetWeight1",
          "type": "uint256"
        }
      ],
      "name": "getWeightsChangeRatio",
      "outputs": [
        {
          "internalType": "uint256",
          "name": "",
          "type": "uint256"
        }
      ],
      "stateMutability": "view",
      "type": "function"
    },
    {
      "inputs": [],
      "name": "gradualUpdate",
      "outputs": [
        {
          "internalType": "uint256",
          "name": "startBlock",
          "type": "uint256"
        },
        {
          "internalType": "uint256",
          "name": "endBlock",
          "type": "uint256"
        }
      ],
      "stateMutability": "view",
      "type": "function"
    },
    {
      "inputs": [],
      "name": "holdings0",
      "outputs": [
        {
          "internalType": "uint256",
          "name": "",
          "type": "uint256"
        }
      ],
      "stateMutability": "view",
      "type": "function"
    },
    {
      "inputs": [],
      "name": "holdings1",
      "outputs": [
        {
          "internalType": "uint256",
          "name": "",
          "type": "uint256"
        }
      ],
      "stateMutability": "view",
      "type": "function"
    },
    {
      "inputs": [
        {
          "internalType": "uint256",
          "name": "amount0",
          "type": "uint256"
        },
        {
          "internalType": "uint256",
          "name": "amount1",
          "type": "uint256"
        },
        {
          "internalType": "uint256",
          "name": "weight0",
          "type": "uint256"
        },
        {
          "internalType": "uint256",
          "name": "weight1",
          "type": "uint256"
        }
      ],
      "name": "initialDeposit",
      "outputs": [],
      "stateMutability": "nonpayable",
      "type": "function"
    },
    {
      "inputs": [],
      "name": "initializeFinalization",
      "outputs": [],
      "stateMutability": "nonpayable",
      "type": "function"
    },
    {
      "inputs": [],
      "name": "initialized",
      "outputs": [
        {
          "internalType": "bool",
          "name": "",
          "type": "bool"
        }
      ],
      "stateMutability": "view",
      "type": "function"
    },
    {
      "inputs": [],
      "name": "isPublicSwap",
      "outputs": [
        {
          "internalType": "bool",
          "name": "",
          "type": "bool"
        }
      ],
      "stateMutability": "view",
      "type": "function"
    },
    {
      "inputs": [],
      "name": "manager",
      "outputs": [
        {
          "internalType": "address",
          "name": "",
          "type": "address"
        }
      ],
      "stateMutability": "view",
      "type": "function"
    },
    {
      "inputs": [],
      "name": "noticePeriod",
      "outputs": [
        {
          "internalType": "uint32",
          "name": "",
          "type": "uint32"
        }
      ],
      "stateMutability": "view",
      "type": "function"
    },
    {
      "inputs": [],
      "name": "noticeTimeoutAt",
      "outputs": [
        {
          "internalType": "uint64",
          "name": "",
          "type": "uint64"
        }
      ],
      "stateMutability": "view",
      "type": "function"
    },
    {
      "inputs": [],
      "name": "owner",
      "outputs": [
        {
          "internalType": "address",
          "name": "",
          "type": "address"
        }
      ],
      "stateMutability": "view",
      "type": "function"
    },
    {
      "inputs": [],
      "name": "pokeWeights",
      "outputs": [],
      "stateMutability": "nonpayable",
      "type": "function"
    },
    {
      "inputs": [],
      "name": "pool",
      "outputs": [
        {
          "internalType": "contract IBPool",
          "name": "",
          "type": "address"
        }
      ],
      "stateMutability": "view",
      "type": "function"
    },
    {
      "inputs": [],
      "name": "renounceOwnership",
      "outputs": [],
      "stateMutability": "nonpayable",
      "type": "function"
    },
    {
      "inputs": [
        {
          "internalType": "address",
          "name": "newManager",
          "type": "address"
        }
      ],
      "name": "setManager",
      "outputs": [],
      "stateMutability": "nonpayable",
      "type": "function"
    },
    {
      "inputs": [
        {
          "internalType": "bool",
          "name": "value",
          "type": "bool"
        }
      ],
      "name": "setPublicSwap",
      "outputs": [],
      "stateMutability": "nonpayable",
      "type": "function"
    },
    {
      "inputs": [
        {
          "internalType": "uint256",
          "name": "newSwapFee",
          "type": "uint256"
        }
      ],
      "name": "setSwapFee",
      "outputs": [],
      "stateMutability": "nonpayable",
      "type": "function"
    },
    {
      "inputs": [
        {
          "internalType": "address",
          "name": "token",
          "type": "address"
        },
        {
          "internalType": "uint256",
          "name": "amount",
          "type": "uint256"
        }
      ],
      "name": "sweep",
      "outputs": [],
      "stateMutability": "nonpayable",
      "type": "function"
    },
    {
      "inputs": [],
      "name": "token0",
      "outputs": [
        {
          "internalType": "address",
          "name": "",
          "type": "address"
        }
      ],
      "stateMutability": "view",
      "type": "function"
    },
    {
      "inputs": [],
      "name": "token1",
      "outputs": [
        {
          "internalType": "address",
          "name": "",
          "type": "address"
        }
      ],
      "stateMutability": "view",
      "type": "function"
    },
    {
      "inputs": [
        {
          "internalType": "address",
          "name": "newOwner",
          "type": "address"
        }
      ],
      "name": "transferOwnership",
      "outputs": [],
      "stateMutability": "nonpayable",
      "type": "function"
    },
    {
      "inputs": [
        {
          "internalType": "uint256",
          "name": "targetWeight0",
          "type": "uint256"
        },
        {
          "internalType": "uint256",
          "name": "targetWeight1",
          "type": "uint256"
        },
        {
          "internalType": "uint256",
          "name": "startBlock",
          "type": "uint256"
        },
        {
          "internalType": "uint256",
          "name": "endBlock",
          "type": "uint256"
        }
      ],
      "name": "updateWeightsGradually",
      "outputs": [],
      "stateMutability": "nonpayable",
      "type": "function"
    },
    {
      "inputs": [],
      "name": "validator",
      "outputs": [
        {
          "internalType": "contract IWithdrawalValidator",
          "name": "",
          "type": "address"
        }
      ],
      "stateMutability": "view",
      "type": "function"
    },
    {
      "inputs": [
        {
          "internalType": "uint256",
          "name": "amount0",
          "type": "uint256"
        },
        {
          "internalType": "uint256",
          "name": "amount1",
          "type": "uint256"
        }
      ],
      "name": "withdraw",
      "outputs": [],
      "stateMutability": "nonpayable",
      "type": "function"
    }
  ],
  "transactionHash": "0x058914f9d3399f22e64ed01fda02cf59896fe093d8ee3f4a89b701ee79588541",
  "args": [
    "0xda0bD429AAC8A32C73E1B6462a5B65C8ad717D23",
    "0xb34dE65cd4e270948570Cb7C27a461ED98dBE8d1",
    "0xba1a7CEd3090D6235d454bfe52e53B215AB23421",
    "0x97246142314dc1e20b03c3f9c12432d75425b95e",
    "30"
  ],
  "solcInputHash": "1915515f39392bc81b0bc7a3950a07a8",
  "bytecode": "0x6101206040523480156200001257600080fd5b50604051620032093803806200320983398101604081905262000035916200046d565b738f7f78080219d4066a8036ccd30d588b416a40db85858585856200005a336200028e565b600180556001600160a01b0385811690851614156200009c57604051634c6d710560e01b81526001600160a01b03861660048201526024015b60405180910390fd5b620000ba826337890bfd60e21b620002de60201b62001ca01760201c565b620000e45760405163da5901bb60e01b81526001600160a01b038316600482015260240162000093565b624f1a0063ffffffff82161115620001215760405163ab850c4160e01b815263ffffffff82166004820152624f1a00602482015260440162000093565b856001600160a01b031663d556c5dc6040518163ffffffff1660e01b8152600401602060405180830381600087803b1580156200015d57600080fd5b505af115801562000172573d6000803e3d6000fd5b505050506040513d601f19601f820116820180604052508101906200019891906200044f565b606090811b6001600160601b031990811660805286821b811660a05285821b811660c052600280546001600160a01b0319166001600160a01b0387811691821790925585841b9092166101005260e084811b6001600160e01b031916905260408051928352858216602084015263ffffffff8516908301528087169281891692918a16917f66e52b5262c76d8285eb91db4aa6252e63670cf8750a6ca2168ed116bff1689e910160405180910390a46040516001600160a01b038416906000907f605c2dbf762e5f7d60a546d42e7205dcb1b011ebc62a61736a57c9089d3a4350908290a3505050505050505050505062000552565b600080546001600160a01b038381166001600160a01b0319831681178455604051919092169283917f8be0079c531659141344cd1fd0a4f28419497f9722a3daafe3b4186f6b6457e09190a35050565b6000620002eb8362000308565b8015620002ff5750620002ff838362000340565b90505b92915050565b60006200031d826301ffc9a760e01b62000340565b801562000302575062000339826001600160e01b031962000340565b1592915050565b604080516001600160e01b0319831660248083019190915282518083039091018152604490910182526020810180516001600160e01b03166301ffc9a760e01b179052905160009190829081906001600160a01b0387169061753090620003a990869062000514565b6000604051808303818686fa925050503d8060008114620003e7576040519150601f19603f3d011682016040523d82523d6000602084013e620003ec565b606091505b509150915060208151101562000409576000935050505062000302565b81801562000428575080806020019051810190620004289190620004e9565b9695505050505050565b80516001600160a01b03811681146200044a57600080fd5b919050565b6000602082840312156200046257600080fd5b620002ff8262000432565b600080600080600060a086880312156200048657600080fd5b620004918662000432565b9450620004a16020870162000432565b9350620004b16040870162000432565b9250620004c16060870162000432565b9150608086015163ffffffff81168114620004db57600080fd5b809150509295509295909350565b600060208284031215620004fc57600080fd5b815180151581146200050d57600080fd5b9392505050565b6000825160005b818110156200053757602081860181015185830152016200051b565b8181111562000547576000828501525b509190910192915050565b60805160601c60a05160601c60c05160601c60e05160e01c6101005160601c612b67620006a2600039600081816102b90152610b040152600081816103ed015261079a01526000818161044f0152818161086301528181610c1a01528181610c7701528181611482015281816115e901528181611a5601528181611ab20152611eeb0152600081816101f901528181610be601528181610c4a01528181610fa101528181611457015281816115bc01528181611a1e01528181611a850152611ec00152600081816102610152818161062b0152818161088e0152818161095101528181610d8101528181610fcc015281816111a50152818161125501528181611315015281816115320152818161176a0152818161185f01528181611c1101528181611dc001528181612013015281816120650152818161211f0152818161217101526123290152612b676000f3fe608060405234801561001057600080fd5b50600436106101da5760003560e01c80635ef3970511610104578063ae2a65a1116100a2578063e211b87511610071578063e211b87514610479578063e2bbb15814610481578063f2fde38b14610494578063fde924f7146104a757600080fd5b8063ae2a65a114610424578063d0ebdbe714610437578063d21220a71461044a578063d4cadf681461047157600080fd5b80638597e879116100de5780638597e879146103b15780638da5cb5b146103c4578063948d8ce6146103d55780639b14d4c6146103e857600080fd5b80635ef397051461037b5780636ea056a914610396578063715018a6146103a957600080fd5b80633a5381b51161017c57806349b595521161014b57806349b59552146103355780634bb278f3146103485780635a8342d8146103505780635ae7ead81461037357600080fd5b80633a5381b5146102b4578063441a3e70146102db5780634771233b146102ee578063481c6a751461032257600080fd5b806316f0115b116101b857806316f0115b1461025c57806324d9ce4b14610283578063252b33131461028b57806334e19907146102a157600080fd5b8063026e9874146101df5780630dfe1681146101f4578063158ef93e14610238575b600080fd5b6101f26101ed366004612965565b6104af565b005b61021b7f000000000000000000000000000000000000000000000000000000000000000081565b6040516001600160a01b0390911681526020015b60405180910390f35b60025461024c90600160e01b900460ff1681565b604051901515815260200161022f565b61021b7f000000000000000000000000000000000000000000000000000000000000000081565b6101f26106e2565b61029361084c565b60405190815260200161022f565b6101f26102af3660046128ed565b610910565b61021b7f000000000000000000000000000000000000000000000000000000000000000081565b6101f26102e936600461291f565b6109f1565b60025461030990600160a01b900467ffffffffffffffff1681565b60405167ffffffffffffffff909116815260200161022f565b60025461021b906001600160a01b031681565b6101f26103433660046128b3565b610d15565b6101f2610e18565b60035460045461035e919082565b6040805192835260208301919091520161022f565b610293610f8a565b61021b738f7f78080219d4066a8036ccd30d588b416a40db81565b6101f26103a4366004612889565b610ffd565b6101f261106f565b6101f26103bf366004612965565b6110d5565b6000546001600160a01b031661021b565b6102936103e336600461286e565b611510565b61040f7f000000000000000000000000000000000000000000000000000000000000000081565b60405163ffffffff909116815260200161022f565b61029361043236600461291f565b6115b4565b6101f261044536600461286e565b61167c565b61021b7f000000000000000000000000000000000000000000000000000000000000000081565b610293611766565b6101f26117c1565b6101f261048f36600461291f565b611905565b6101f26104a236600461286e565b611b2b565b61024c611c0d565b6002546001600160a01b031633146104da57604051634dd4ed5360e01b815260040160405180910390fd5b600254600160e01b900460ff1661050457604051631888b48f60e31b815260040160405180910390fd5b600254600160a01b900467ffffffffffffffff1615610536576040516395ebdb5f60e01b815260040160405180910390fd5b60006105428383612add565b905060008161055187876115b4565b61055b9190612a9c565b9050670de0b6b3a764000081111561059c57604051631c6ea5b360e11b815260048101829052670de0b6b3a764000060248201526044015b60405180910390fd5b60408051600280825260608201835260009260208301908036833701905050905086816000815181106105d1576105d1612b36565b60200260200101818152505085816001815181106105f1576105f1612b36565b60209081029190910101526040516304ee2fc960e21b8152738DBB8C9bFEb7689f16772c85136993cDA0c05eA4906313b8bf249061065f907f00000000000000000000000000000000000000000000000000000000000000009060039086908b908b906028906004016129b3565b60006040518083038186803b15801561067757600080fd5b505af415801561068b573d6000803e3d6000fd5b5050604080518a8152602081018a9052908101889052606081018790527fb725031571441ba6c801832988142cbdb52dcb6b3a0b2ade758482d7dd2b49c3925060800190505b60405180910390a150505050505050565b6000546001600160a01b0316331461073c5760405162461bcd60e51b815260206004820181905260248201527f4f776e61626c653a2063616c6c6572206973206e6f7420746865206f776e65726044820152606401610593565b600254600160e01b900460ff1661076657604051631888b48f60e31b815260040160405180910390fd5b600254600160a01b900467ffffffffffffffff1615610798576040516395ebdb5f60e01b815260040160405180910390fd5b7f000000000000000000000000000000000000000000000000000000000000000063ffffffff166107c842611cc3565b6107d29190612a70565b600280547fffffffff0000000000000000ffffffffffffffffffffffffffffffffffffffff16600160a01b67ffffffffffffffff93841681029190911791829055604051910490911681527f33e822f2bda8444368b3567e3bdbb01de7d80f64a774c929d9f2e7e9b281adc39060200160405180910390a1565b60405163f8b2cb4f60e01b81526001600160a01b037f0000000000000000000000000000000000000000000000000000000000000000811660048301526000917f00000000000000000000000000000000000000000000000000000000000000009091169063f8b2cb4f906024015b60206040518083038186803b1580156108d357600080fd5b505afa1580156108e7573d6000803e3d6000fd5b505050506040513d601f19601f8201168201806040525081019061090b9190612906565b905090565b6002546001600160a01b0316331461093b57604051634dd4ed5360e01b815260040160405180910390fd5b6040516334e1990760e01b8152600481018290527f00000000000000000000000000000000000000000000000000000000000000006001600160a01b0316906334e1990790602401600060405180830381600087803b15801561099d57600080fd5b505af11580156109b1573d6000803e3d6000fd5b505050507fcda74150def0ede554aff5f677be9df0e226fddff9bd9ceddf732b9673b1c92d816040516109e691815260200190565b60405180910390a150565b60026001541415610a445760405162461bcd60e51b815260206004820152601f60248201527f5265656e7472616e637947756172643a207265656e7472616e742063616c6c006044820152606401610593565b60026001556000546001600160a01b03163314610aa35760405162461bcd60e51b815260206004820181905260248201527f4f776e61626c653a2063616c6c6572206973206e6f7420746865206f776e65726044820152606401610593565b600254600160e01b900460ff16610acd57604051631888b48f60e31b815260040160405180910390fd5b600254600160a01b900467ffffffffffffffff1615610aff576040516395ebdb5f60e01b815260040160405180910390fd5b6000807f00000000000000000000000000000000000000000000000000000000000000006001600160a01b031663de242ff46040518163ffffffff1660e01b8152600401604080518083038186803b158015610b5a57600080fd5b505afa158015610b6e573d6000803e3d6000fd5b505050506040513d601f19601f82011682018060405250810190610b929190612941565b915091506000610ba0610f8a565b90506000610bac61084c565b90506000610bc485610bbe8986611d47565b90611d47565b90506000610bd685610bbe8986611d47565b90506000808315610c0f57610c0c7f00000000000000000000000000000000000000000000000000000000000000008588611d5d565b91505b8215610c4357610c407f00000000000000000000000000000000000000000000000000000000000000008487611d5d565b90505b6000610c6e7f0000000000000000000000000000000000000000000000000000000000000000611510565b90506000610c9b7f0000000000000000000000000000000000000000000000000000000000000000611510565b604080518e8152602081018e905290810186905260608101859052608081018c905260a081018b905260c0810184905260e081018290529091507f57bcc2baad14202eeb9d757f5fcd8a2b7b8c26a282d9458d460eb52ef532238f906101000160405180910390a150506001805550505050505050505050565b6002546001600160a01b03163314610d4057604051634dd4ed5360e01b815260040160405180910390fd5b600254600160e01b900460ff16610d6a57604051631888b48f60e31b815260040160405180910390fd5b6040516324dacaa960e11b815281151560048201527f00000000000000000000000000000000000000000000000000000000000000006001600160a01b0316906349b5955290602401600060405180830381600087803b158015610dcd57600080fd5b505af1158015610de1573d6000803e3d6000fd5b505050507f3c83e916edb4c7f342384067941b22663b5093a3cdcc03326de9b8208256b9b2816040516109e6911515815260200190565b60026001541415610e6b5760405162461bcd60e51b815260206004820152601f60248201527f5265656e7472616e637947756172643a207265656e7472616e742063616c6c006044820152606401610593565b60026001556000546001600160a01b03163314801590610e9657506002546001600160a01b03163314155b15610eb457604051637849279f60e01b815260040160405180910390fd5b600254600160a01b900467ffffffffffffffff16610ee557604051630ce728a360e21b815260040160405180910390fd5b60025442600160a01b90910467ffffffffffffffff161115610f305760025460405163074cec0760e01b8152600160a01b90910467ffffffffffffffff166004820152602401610593565b600080610f3b611eb8565b604080518381526020810183905292945090925033917f616c9469db50815ae0f1d0a020d9fc9060da7c57f03559afb0d4ebdaa0a3a05e910160405180910390a26000546001600160a01b0316ff5b60405163f8b2cb4f60e01b81526001600160a01b037f0000000000000000000000000000000000000000000000000000000000000000811660048301526000917f00000000000000000000000000000000000000000000000000000000000000009091169063f8b2cb4f906024016108bb565b6000546001600160a01b031633146110575760405162461bcd60e51b815260206004820181905260248201527f4f776e61626c653a2063616c6c6572206973206e6f7420746865206f776e65726044820152606401610593565b61106b6001600160a01b0383163383611f15565b5050565b6000546001600160a01b031633146110c95760405162461bcd60e51b815260206004820181905260248201527f4f776e61626c653a2063616c6c6572206973206e6f7420746865206f776e65726044820152606401610593565b6110d36000611f92565b565b6000546001600160a01b0316331461112f5760405162461bcd60e51b815260206004820181905260248201527f4f776e61626c653a2063616c6c6572206973206e6f7420746865206f776e65726044820152606401610593565b600254600160e01b900460ff161561115a57604051631ec6430360e31b815260040160405180910390fd5b600280547fffffff00ffffffffffffffffffffffffffffffffffffffffffffffffffffffff16600160e01b179055604080516310c5a9c160e11b815290516000916001600160a01b037f0000000000000000000000000000000000000000000000000000000000000000169163218b538291600480820192602092909190829003018186803b1580156111ec57600080fd5b505afa158015611200573d6000803e3d6000fd5b505050506040513d601f19601f820116820180604052508101906112249190612906565b905080831015611251576040516318dcdf6360e31b81526004810184905260248101829052604401610593565b60007f00000000000000000000000000000000000000000000000000000000000000006001600160a01b031663e4a28a526040518163ffffffff1660e01b815260040160206040518083038186803b1580156112ac57600080fd5b505afa1580156112c0573d6000803e3d6000fd5b505050506040513d601f19601f820116820180604052508101906112e49190612906565b9050808411156113115760405163034fe40760e61b81526004810185905260248101829052604401610593565b60007f00000000000000000000000000000000000000000000000000000000000000006001600160a01b031663867378c56040518163ffffffff1660e01b815260040160206040518083038186803b15801561136c57600080fd5b505afa158015611380573d6000803e3d6000fd5b505050506040513d601f19601f820116820180604052508101906113a49190612906565b9050808710156113d1576040516313f4b45960e01b81526004810188905260248101829052604401610593565b828410156113fc576040516318dcdf6360e31b81526004810185905260248101849052604401610593565b818411156114275760405163034fe40760e61b81526004810185905260248101839052604401610593565b80861015611452576040516313f4b45960e01b81526004810187905260248101829052604401610593565b61147d7f00000000000000000000000000000000000000000000000000000000000000008887611fef565b6114a87f00000000000000000000000000000000000000000000000000000000000000008786611fef565b60408051808201909152858152602081018590526114ca9060059060026127fb565b506040805188815260208101889052908101869052606081018590527f9b776d199f09c774f5b205c9bc2ac6f40d508c347aaea919867eeaf06ebef0e9906080016106d1565b604051634a46c67360e11b81526001600160a01b0382811660048301526000917f00000000000000000000000000000000000000000000000000000000000000009091169063948d8ce69060240160206040518083038186803b15801561157657600080fd5b505afa15801561158a573d6000803e3d6000fd5b505050506040513d601f19601f820116820180604052508101906115ae9190612906565b92915050565b6000806115e07f0000000000000000000000000000000000000000000000000000000000000000611510565b9050600061160d7f0000000000000000000000000000000000000000000000000000000000000000611510565b9050600061161b8584612abe565b905060006116298388612abe565b9050808211611654578161164582670de0b6b3a7640000612abe565b61164f9190612a9c565b611671565b8061166783670de0b6b3a7640000612abe565b6116719190612a9c565b979650505050505050565b6000546001600160a01b031633146116d65760405162461bcd60e51b815260206004820181905260248201527f4f776e61626c653a2063616c6c6572206973206e6f7420746865206f776e65726044820152606401610593565b6001600160a01b0381166116fd57604051633ce7a14160e11b815260040160405180910390fd5b6002546040516001600160a01b038084169216907f605c2dbf762e5f7d60a546d42e7205dcb1b011ebc62a61736a57c9089d3a435090600090a36002805473ffffffffffffffffffffffffffffffffffffffff19166001600160a01b0392909216919091179055565b60007f00000000000000000000000000000000000000000000000000000000000000006001600160a01b031663d4cadf686040518163ffffffff1660e01b815260040160206040518083038186803b1580156108d357600080fd5b6002546001600160a01b031633146117ec57604051634dd4ed5360e01b815260040160405180910390fd5b600254600160e01b900460ff1661181657604051631888b48f60e31b815260040160405180910390fd5b600254600160a01b900467ffffffffffffffff1615611848576040516395ebdb5f60e01b815260040160405180910390fd5b6040516382495b4560e01b81526001600160a01b037f000000000000000000000000000000000000000000000000000000000000000016600482015260036024820152738DBB8C9bFEb7689f16772c85136993cDA0c05eA4906382495b459060440160006040518083038186803b1580156118c257600080fd5b505af41580156118d6573d6000803e3d6000fd5b50506040517f01aa79da8eb0a8a6f0a19782fb8143ebfa04d6bf15131157d487c743bc28730d925060009150a1565b600260015414156119585760405162461bcd60e51b815260206004820152601f60248201527f5265656e7472616e637947756172643a207265656e7472616e742063616c6c006044820152606401610593565b60026001556000546001600160a01b031633146119b75760405162461bcd60e51b815260206004820181905260248201527f4f776e61626c653a2063616c6c6572206973206e6f7420746865206f776e65726044820152606401610593565b600254600160e01b900460ff166119e157604051631888b48f60e31b815260040160405180910390fd5b600254600160a01b900467ffffffffffffffff1615611a13576040516395ebdb5f60e01b815260040160405180910390fd5b8115611a4b57611a4b7f000000000000000000000000000000000000000000000000000000000000000083611a46610f8a565b6120c6565b8015611a7e57611a7e7f000000000000000000000000000000000000000000000000000000000000000082611a4661084c565b6000611aa97f0000000000000000000000000000000000000000000000000000000000000000611510565b90506000611ad67f0000000000000000000000000000000000000000000000000000000000000000611510565b6040805186815260208101869052908101849052606081018290529091507f9b776d199f09c774f5b205c9bc2ac6f40d508c347aaea919867eeaf06ebef0e99060800160405180910390a15050600180555050565b6000546001600160a01b03163314611b855760405162461bcd60e51b815260206004820181905260248201527f4f776e61626c653a2063616c6c6572206973206e6f7420746865206f776e65726044820152606401610593565b6001600160a01b038116611c015760405162461bcd60e51b815260206004820152602660248201527f4f776e61626c653a206e6577206f776e657220697320746865207a65726f206160448201527f64647265737300000000000000000000000000000000000000000000000000006064820152608401610593565b611c0a81611f92565b50565b60007f00000000000000000000000000000000000000000000000000000000000000006001600160a01b031663fde924f76040518163ffffffff1660e01b815260040160206040518083038186803b158015611c6857600080fd5b505afa158015611c7c573d6000803e3d6000fd5b505050506040513d601f19601f8201168201806040525081019061090b91906128d0565b6000611cab836121d6565b8015611cbc5750611cbc8383612209565b9392505050565b600067ffffffffffffffff821115611d435760405162461bcd60e51b815260206004820152602660248201527f53616665436173743a2076616c756520646f65736e27742066697420696e203660448201527f34206269747300000000000000000000000000000000000000000000000000006064820152608401610593565b5090565b6000818310611d565781611cbc565b5090919050565b600080611d6985611510565b90506000611d778585612add565b9050600084611d868385612abe565b611d909190612a9c565b604051631feeed5160e11b81526001600160a01b03898116600483015260248201859052604482018390529192507f000000000000000000000000000000000000000000000000000000000000000090911690633fdddaa290606401600060405180830381600087803b158015611e0657600080fd5b505af1158015611e1a573d6000803e3d6000fd5b50506040516370a0823160e01b81523060048201528992506001600160a01b03831691506370a082319060240160206040518083038186803b158015611e5f57600080fd5b505afa158015611e73573d6000803e3d6000fd5b505050506040513d601f19601f82011682018060405250810190611e979190612906565b9450611ead6001600160a01b0382163387611f15565b505050509392505050565b600080611ee47f0000000000000000000000000000000000000000000000000000000000000000612307565b9150611f0f7f0000000000000000000000000000000000000000000000000000000000000000612307565b90509091565b6040516001600160a01b038316602482015260448101829052611f8d90849063a9059cbb60e01b906064015b60408051601f198184030181529190526020810180517bffffffffffffffffffffffffffffffffffffffffffffffffffffffff166001600160e01b03199093169290921790915261242e565b505050565b600080546001600160a01b0383811673ffffffffffffffffffffffffffffffffffffffff19831681178455604051919092169283917f8be0079c531659141344cd1fd0a4f28419497f9722a3daafe3b4186f6b6457e09190a35050565b6120046001600160a01b038416333085612513565b6120386001600160a01b0384167f000000000000000000000000000000000000000000000000000000000000000084612551565b604051631c9c3ca760e31b81526001600160a01b03848116600483015260248201849052604482018390527f0000000000000000000000000000000000000000000000000000000000000000169063e4e1e53890606401600060405180830381600087803b1580156120a957600080fd5b505af11580156120bd573d6000803e3d6000fd5b50505050505050565b60006120d184611510565b905060006120df8484612a58565b90506000836120ee8385612abe565b6120f89190612a9c565b9050856121106001600160a01b038216333089612513565b6121446001600160a01b0382167f000000000000000000000000000000000000000000000000000000000000000088612551565b604051631feeed5160e11b81526001600160a01b03888116600483015260248201859052604482018490527f00000000000000000000000000000000000000000000000000000000000000001690633fdddaa290606401600060405180830381600087803b1580156121b557600080fd5b505af11580156121c9573d6000803e3d6000fd5b5050505050505050505050565b60006121e9826301ffc9a760e01b612209565b80156115ae5750612202826001600160e01b0319612209565b1592915050565b604080516001600160e01b0319831660248083019190915282518083039091018152604490910182526020810180517bffffffffffffffffffffffffffffffffffffffffffffffffffffffff166301ffc9a760e01b179052905160009190829081906001600160a01b0387169061753090612285908690612997565b6000604051808303818686fa925050503d80600081146122c1576040519150601f19603f3d011682016040523d82523d6000602084013e6122c6565b606091505b50915091506020815110156122e157600093505050506115ae565b8180156122fd5750808060200190518101906122fd91906128d0565b9695505050505050565b60405163cf5e7bd360e01b81526001600160a01b0382811660048301526000917f00000000000000000000000000000000000000000000000000000000000000009091169063cf5e7bd390602401600060405180830381600087803b15801561236f57600080fd5b505af1158015612383573d6000803e3d6000fd5b50506040516370a0823160e01b81523060048201528492506001600160a01b03831691506370a082319060240160206040518083038186803b1580156123c857600080fd5b505afa1580156123dc573d6000803e3d6000fd5b505050506040513d601f19601f820116820180604052508101906124009190612906565b91506124286124176000546001600160a01b031690565b6001600160a01b0383169084611f15565b50919050565b6000612483826040518060400160405280602081526020017f5361666545524332303a206c6f772d6c6576656c2063616c6c206661696c6564815250856001600160a01b031661267c9092919063ffffffff16565b805190915015611f8d57808060200190518101906124a191906128d0565b611f8d5760405162461bcd60e51b815260206004820152602a60248201527f5361666545524332303a204552433230206f7065726174696f6e20646964206e60448201527f6f742073756363656564000000000000000000000000000000000000000000006064820152608401610593565b6040516001600160a01b038085166024830152831660448201526064810182905261254b9085906323b872dd60e01b90608401611f41565b50505050565b8015806125da5750604051636eb1769f60e11b81523060048201526001600160a01b03838116602483015284169063dd62ed3e9060440160206040518083038186803b1580156125a057600080fd5b505afa1580156125b4573d6000803e3d6000fd5b505050506040513d601f19601f820116820180604052508101906125d89190612906565b155b61264c5760405162461bcd60e51b815260206004820152603660248201527f5361666545524332303a20617070726f76652066726f6d206e6f6e2d7a65726f60448201527f20746f206e6f6e2d7a65726f20616c6c6f77616e6365000000000000000000006064820152608401610593565b6040516001600160a01b038316602482015260448101829052611f8d90849063095ea7b360e01b90606401611f41565b606061268b8484600085612693565b949350505050565b60608247101561270b5760405162461bcd60e51b815260206004820152602660248201527f416464726573733a20696e73756666696369656e742062616c616e636520666f60448201527f722063616c6c00000000000000000000000000000000000000000000000000006064820152608401610593565b843b6127595760405162461bcd60e51b815260206004820152601d60248201527f416464726573733a2063616c6c20746f206e6f6e2d636f6e74726163740000006044820152606401610593565b600080866001600160a01b031685876040516127759190612997565b60006040518083038185875af1925050503d80600081146127b2576040519150601f19603f3d011682016040523d82523d6000602084013e6127b7565b606091505b5091509150611671828286606083156127d1575081611cbc565b8251156127e15782518084602001fd5b8160405162461bcd60e51b81526004016105939190612a25565b828054828255906000526020600020908101928215612836579160200282015b8281111561283657825182559160200191906001019061281b565b50611d439291505b80821115611d43576000815560010161283e565b80356001600160a01b038116811461286957600080fd5b919050565b60006020828403121561288057600080fd5b611cbc82612852565b6000806040838503121561289c57600080fd5b6128a583612852565b946020939093013593505050565b6000602082840312156128c557600080fd5b8135611cbc81612b4c565b6000602082840312156128e257600080fd5b8151611cbc81612b4c565b6000602082840312156128ff57600080fd5b5035919050565b60006020828403121561291857600080fd5b5051919050565b6000806040838503121561293257600080fd5b50508035926020909101359150565b6000806040838503121561295457600080fd5b505080516020909101519092909150565b6000806000806080858703121561297b57600080fd5b5050823594602084013594506040840135936060013592509050565b600082516129a9818460208701612af4565b9190910192915050565b600060c082016001600160a01b03891683526020888185015260c0604085015281885180845260e086019150828a01935060005b81811015612a03578451835293830193918301916001016129e7565b50506060850197909752505050608081019290925260a0909101529392505050565b6020815260008251806020840152612a44816040850160208701612af4565b601f01601f19169190910160400192915050565b60008219821115612a6b57612a6b612b20565b500190565b600067ffffffffffffffff808316818516808303821115612a9357612a93612b20565b01949350505050565b600082612ab957634e487b7160e01b600052601260045260246000fd5b500490565b6000816000190483118215151615612ad857612ad8612b20565b500290565b600082821015612aef57612aef612b20565b500390565b60005b83811015612b0f578181015183820152602001612af7565b8381111561254b5750506000910152565b634e487b7160e01b600052601160045260246000fd5b634e487b7160e01b600052603260045260246000fd5b8015158114611c0a57600080fdfea164736f6c6343000807000a",
  "deployedBytecode": "0x608060405234801561001057600080fd5b50600436106101da5760003560e01c80635ef3970511610104578063ae2a65a1116100a2578063e211b87511610071578063e211b87514610479578063e2bbb15814610481578063f2fde38b14610494578063fde924f7146104a757600080fd5b8063ae2a65a114610424578063d0ebdbe714610437578063d21220a71461044a578063d4cadf681461047157600080fd5b80638597e879116100de5780638597e879146103b15780638da5cb5b146103c4578063948d8ce6146103d55780639b14d4c6146103e857600080fd5b80635ef397051461037b5780636ea056a914610396578063715018a6146103a957600080fd5b80633a5381b51161017c57806349b595521161014b57806349b59552146103355780634bb278f3146103485780635a8342d8146103505780635ae7ead81461037357600080fd5b80633a5381b5146102b4578063441a3e70146102db5780634771233b146102ee578063481c6a751461032257600080fd5b806316f0115b116101b857806316f0115b1461025c57806324d9ce4b14610283578063252b33131461028b57806334e19907146102a157600080fd5b8063026e9874146101df5780630dfe1681146101f4578063158ef93e14610238575b600080fd5b6101f26101ed366004612965565b6104af565b005b61021b7f000000000000000000000000000000000000000000000000000000000000000081565b6040516001600160a01b0390911681526020015b60405180910390f35b60025461024c90600160e01b900460ff1681565b604051901515815260200161022f565b61021b7f000000000000000000000000000000000000000000000000000000000000000081565b6101f26106e2565b61029361084c565b60405190815260200161022f565b6101f26102af3660046128ed565b610910565b61021b7f000000000000000000000000000000000000000000000000000000000000000081565b6101f26102e936600461291f565b6109f1565b60025461030990600160a01b900467ffffffffffffffff1681565b60405167ffffffffffffffff909116815260200161022f565b60025461021b906001600160a01b031681565b6101f26103433660046128b3565b610d15565b6101f2610e18565b60035460045461035e919082565b6040805192835260208301919091520161022f565b610293610f8a565b61021b738f7f78080219d4066a8036ccd30d588b416a40db81565b6101f26103a4366004612889565b610ffd565b6101f261106f565b6101f26103bf366004612965565b6110d5565b6000546001600160a01b031661021b565b6102936103e336600461286e565b611510565b61040f7f000000000000000000000000000000000000000000000000000000000000000081565b60405163ffffffff909116815260200161022f565b61029361043236600461291f565b6115b4565b6101f261044536600461286e565b61167c565b61021b7f000000000000000000000000000000000000000000000000000000000000000081565b610293611766565b6101f26117c1565b6101f261048f36600461291f565b611905565b6101f26104a236600461286e565b611b2b565b61024c611c0d565b6002546001600160a01b031633146104da57604051634dd4ed5360e01b815260040160405180910390fd5b600254600160e01b900460ff1661050457604051631888b48f60e31b815260040160405180910390fd5b600254600160a01b900467ffffffffffffffff1615610536576040516395ebdb5f60e01b815260040160405180910390fd5b60006105428383612add565b905060008161055187876115b4565b61055b9190612a9c565b9050670de0b6b3a764000081111561059c57604051631c6ea5b360e11b815260048101829052670de0b6b3a764000060248201526044015b60405180910390fd5b60408051600280825260608201835260009260208301908036833701905050905086816000815181106105d1576105d1612b36565b60200260200101818152505085816001815181106105f1576105f1612b36565b60209081029190910101526040516304ee2fc960e21b815273__$c61de259b17579437cb458fbe4ba8c0f49$__906313b8bf249061065f907f00000000000000000000000000000000000000000000000000000000000000009060039086908b908b906028906004016129b3565b60006040518083038186803b15801561067757600080fd5b505af415801561068b573d6000803e3d6000fd5b5050604080518a8152602081018a9052908101889052606081018790527fb725031571441ba6c801832988142cbdb52dcb6b3a0b2ade758482d7dd2b49c3925060800190505b60405180910390a150505050505050565b6000546001600160a01b0316331461073c5760405162461bcd60e51b815260206004820181905260248201527f4f776e61626c653a2063616c6c6572206973206e6f7420746865206f776e65726044820152606401610593565b600254600160e01b900460ff1661076657604051631888b48f60e31b815260040160405180910390fd5b600254600160a01b900467ffffffffffffffff1615610798576040516395ebdb5f60e01b815260040160405180910390fd5b7f000000000000000000000000000000000000000000000000000000000000000063ffffffff166107c842611cc3565b6107d29190612a70565b600280547fffffffff0000000000000000ffffffffffffffffffffffffffffffffffffffff16600160a01b67ffffffffffffffff93841681029190911791829055604051910490911681527f33e822f2bda8444368b3567e3bdbb01de7d80f64a774c929d9f2e7e9b281adc39060200160405180910390a1565b60405163f8b2cb4f60e01b81526001600160a01b037f0000000000000000000000000000000000000000000000000000000000000000811660048301526000917f00000000000000000000000000000000000000000000000000000000000000009091169063f8b2cb4f906024015b60206040518083038186803b1580156108d357600080fd5b505afa1580156108e7573d6000803e3d6000fd5b505050506040513d601f19601f8201168201806040525081019061090b9190612906565b905090565b6002546001600160a01b0316331461093b57604051634dd4ed5360e01b815260040160405180910390fd5b6040516334e1990760e01b8152600481018290527f00000000000000000000000000000000000000000000000000000000000000006001600160a01b0316906334e1990790602401600060405180830381600087803b15801561099d57600080fd5b505af11580156109b1573d6000803e3d6000fd5b505050507fcda74150def0ede554aff5f677be9df0e226fddff9bd9ceddf732b9673b1c92d816040516109e691815260200190565b60405180910390a150565b60026001541415610a445760405162461bcd60e51b815260206004820152601f60248201527f5265656e7472616e637947756172643a207265656e7472616e742063616c6c006044820152606401610593565b60026001556000546001600160a01b03163314610aa35760405162461bcd60e51b815260206004820181905260248201527f4f776e61626c653a2063616c6c6572206973206e6f7420746865206f776e65726044820152606401610593565b600254600160e01b900460ff16610acd57604051631888b48f60e31b815260040160405180910390fd5b600254600160a01b900467ffffffffffffffff1615610aff576040516395ebdb5f60e01b815260040160405180910390fd5b6000807f00000000000000000000000000000000000000000000000000000000000000006001600160a01b031663de242ff46040518163ffffffff1660e01b8152600401604080518083038186803b158015610b5a57600080fd5b505afa158015610b6e573d6000803e3d6000fd5b505050506040513d601f19601f82011682018060405250810190610b929190612941565b915091506000610ba0610f8a565b90506000610bac61084c565b90506000610bc485610bbe8986611d47565b90611d47565b90506000610bd685610bbe8986611d47565b90506000808315610c0f57610c0c7f00000000000000000000000000000000000000000000000000000000000000008588611d5d565b91505b8215610c4357610c407f00000000000000000000000000000000000000000000000000000000000000008487611d5d565b90505b6000610c6e7f0000000000000000000000000000000000000000000000000000000000000000611510565b90506000610c9b7f0000000000000000000000000000000000000000000000000000000000000000611510565b604080518e8152602081018e905290810186905260608101859052608081018c905260a081018b905260c0810184905260e081018290529091507f57bcc2baad14202eeb9d757f5fcd8a2b7b8c26a282d9458d460eb52ef532238f906101000160405180910390a150506001805550505050505050505050565b6002546001600160a01b03163314610d4057604051634dd4ed5360e01b815260040160405180910390fd5b600254600160e01b900460ff16610d6a57604051631888b48f60e31b815260040160405180910390fd5b6040516324dacaa960e11b815281151560048201527f00000000000000000000000000000000000000000000000000000000000000006001600160a01b0316906349b5955290602401600060405180830381600087803b158015610dcd57600080fd5b505af1158015610de1573d6000803e3d6000fd5b505050507f3c83e916edb4c7f342384067941b22663b5093a3cdcc03326de9b8208256b9b2816040516109e6911515815260200190565b60026001541415610e6b5760405162461bcd60e51b815260206004820152601f60248201527f5265656e7472616e637947756172643a207265656e7472616e742063616c6c006044820152606401610593565b60026001556000546001600160a01b03163314801590610e9657506002546001600160a01b03163314155b15610eb457604051637849279f60e01b815260040160405180910390fd5b600254600160a01b900467ffffffffffffffff16610ee557604051630ce728a360e21b815260040160405180910390fd5b60025442600160a01b90910467ffffffffffffffff161115610f305760025460405163074cec0760e01b8152600160a01b90910467ffffffffffffffff166004820152602401610593565b600080610f3b611eb8565b604080518381526020810183905292945090925033917f616c9469db50815ae0f1d0a020d9fc9060da7c57f03559afb0d4ebdaa0a3a05e910160405180910390a26000546001600160a01b0316ff5b60405163f8b2cb4f60e01b81526001600160a01b037f0000000000000000000000000000000000000000000000000000000000000000811660048301526000917f00000000000000000000000000000000000000000000000000000000000000009091169063f8b2cb4f906024016108bb565b6000546001600160a01b031633146110575760405162461bcd60e51b815260206004820181905260248201527f4f776e61626c653a2063616c6c6572206973206e6f7420746865206f776e65726044820152606401610593565b61106b6001600160a01b0383163383611f15565b5050565b6000546001600160a01b031633146110c95760405162461bcd60e51b815260206004820181905260248201527f4f776e61626c653a2063616c6c6572206973206e6f7420746865206f776e65726044820152606401610593565b6110d36000611f92565b565b6000546001600160a01b0316331461112f5760405162461bcd60e51b815260206004820181905260248201527f4f776e61626c653a2063616c6c6572206973206e6f7420746865206f776e65726044820152606401610593565b600254600160e01b900460ff161561115a57604051631ec6430360e31b815260040160405180910390fd5b600280547fffffff00ffffffffffffffffffffffffffffffffffffffffffffffffffffffff16600160e01b179055604080516310c5a9c160e11b815290516000916001600160a01b037f0000000000000000000000000000000000000000000000000000000000000000169163218b538291600480820192602092909190829003018186803b1580156111ec57600080fd5b505afa158015611200573d6000803e3d6000fd5b505050506040513d601f19601f820116820180604052508101906112249190612906565b905080831015611251576040516318dcdf6360e31b81526004810184905260248101829052604401610593565b60007f00000000000000000000000000000000000000000000000000000000000000006001600160a01b031663e4a28a526040518163ffffffff1660e01b815260040160206040518083038186803b1580156112ac57600080fd5b505afa1580156112c0573d6000803e3d6000fd5b505050506040513d601f19601f820116820180604052508101906112e49190612906565b9050808411156113115760405163034fe40760e61b81526004810185905260248101829052604401610593565b60007f00000000000000000000000000000000000000000000000000000000000000006001600160a01b031663867378c56040518163ffffffff1660e01b815260040160206040518083038186803b15801561136c57600080fd5b505afa158015611380573d6000803e3d6000fd5b505050506040513d601f19601f820116820180604052508101906113a49190612906565b9050808710156113d1576040516313f4b45960e01b81526004810188905260248101829052604401610593565b828410156113fc576040516318dcdf6360e31b81526004810185905260248101849052604401610593565b818411156114275760405163034fe40760e61b81526004810185905260248101839052604401610593565b80861015611452576040516313f4b45960e01b81526004810187905260248101829052604401610593565b61147d7f00000000000000000000000000000000000000000000000000000000000000008887611fef565b6114a87f00000000000000000000000000000000000000000000000000000000000000008786611fef565b60408051808201909152858152602081018590526114ca9060059060026127fb565b506040805188815260208101889052908101869052606081018590527f9b776d199f09c774f5b205c9bc2ac6f40d508c347aaea919867eeaf06ebef0e9906080016106d1565b604051634a46c67360e11b81526001600160a01b0382811660048301526000917f00000000000000000000000000000000000000000000000000000000000000009091169063948d8ce69060240160206040518083038186803b15801561157657600080fd5b505afa15801561158a573d6000803e3d6000fd5b505050506040513d601f19601f820116820180604052508101906115ae9190612906565b92915050565b6000806115e07f0000000000000000000000000000000000000000000000000000000000000000611510565b9050600061160d7f0000000000000000000000000000000000000000000000000000000000000000611510565b9050600061161b8584612abe565b905060006116298388612abe565b9050808211611654578161164582670de0b6b3a7640000612abe565b61164f9190612a9c565b611671565b8061166783670de0b6b3a7640000612abe565b6116719190612a9c565b979650505050505050565b6000546001600160a01b031633146116d65760405162461bcd60e51b815260206004820181905260248201527f4f776e61626c653a2063616c6c6572206973206e6f7420746865206f776e65726044820152606401610593565b6001600160a01b0381166116fd57604051633ce7a14160e11b815260040160405180910390fd5b6002546040516001600160a01b038084169216907f605c2dbf762e5f7d60a546d42e7205dcb1b011ebc62a61736a57c9089d3a435090600090a36002805473ffffffffffffffffffffffffffffffffffffffff19166001600160a01b0392909216919091179055565b60007f00000000000000000000000000000000000000000000000000000000000000006001600160a01b031663d4cadf686040518163ffffffff1660e01b815260040160206040518083038186803b1580156108d357600080fd5b6002546001600160a01b031633146117ec57604051634dd4ed5360e01b815260040160405180910390fd5b600254600160e01b900460ff1661181657604051631888b48f60e31b815260040160405180910390fd5b600254600160a01b900467ffffffffffffffff1615611848576040516395ebdb5f60e01b815260040160405180910390fd5b6040516382495b4560e01b81526001600160a01b037f00000000000000000000000000000000000000000000000000000000000000001660048201526003602482015273__$c61de259b17579437cb458fbe4ba8c0f49$__906382495b459060440160006040518083038186803b1580156118c257600080fd5b505af41580156118d6573d6000803e3d6000fd5b50506040517f01aa79da8eb0a8a6f0a19782fb8143ebfa04d6bf15131157d487c743bc28730d925060009150a1565b600260015414156119585760405162461bcd60e51b815260206004820152601f60248201527f5265656e7472616e637947756172643a207265656e7472616e742063616c6c006044820152606401610593565b60026001556000546001600160a01b031633146119b75760405162461bcd60e51b815260206004820181905260248201527f4f776e61626c653a2063616c6c6572206973206e6f7420746865206f776e65726044820152606401610593565b600254600160e01b900460ff166119e157604051631888b48f60e31b815260040160405180910390fd5b600254600160a01b900467ffffffffffffffff1615611a13576040516395ebdb5f60e01b815260040160405180910390fd5b8115611a4b57611a4b7f000000000000000000000000000000000000000000000000000000000000000083611a46610f8a565b6120c6565b8015611a7e57611a7e7f000000000000000000000000000000000000000000000000000000000000000082611a4661084c565b6000611aa97f0000000000000000000000000000000000000000000000000000000000000000611510565b90506000611ad67f0000000000000000000000000000000000000000000000000000000000000000611510565b6040805186815260208101869052908101849052606081018290529091507f9b776d199f09c774f5b205c9bc2ac6f40d508c347aaea919867eeaf06ebef0e99060800160405180910390a15050600180555050565b6000546001600160a01b03163314611b855760405162461bcd60e51b815260206004820181905260248201527f4f776e61626c653a2063616c6c6572206973206e6f7420746865206f776e65726044820152606401610593565b6001600160a01b038116611c015760405162461bcd60e51b815260206004820152602660248201527f4f776e61626c653a206e6577206f776e657220697320746865207a65726f206160448201527f64647265737300000000000000000000000000000000000000000000000000006064820152608401610593565b611c0a81611f92565b50565b60007f00000000000000000000000000000000000000000000000000000000000000006001600160a01b031663fde924f76040518163ffffffff1660e01b815260040160206040518083038186803b158015611c6857600080fd5b505afa158015611c7c573d6000803e3d6000fd5b505050506040513d601f19601f8201168201806040525081019061090b91906128d0565b6000611cab836121d6565b8015611cbc5750611cbc8383612209565b9392505050565b600067ffffffffffffffff821115611d435760405162461bcd60e51b815260206004820152602660248201527f53616665436173743a2076616c756520646f65736e27742066697420696e203660448201527f34206269747300000000000000000000000000000000000000000000000000006064820152608401610593565b5090565b6000818310611d565781611cbc565b5090919050565b600080611d6985611510565b90506000611d778585612add565b9050600084611d868385612abe565b611d909190612a9c565b604051631feeed5160e11b81526001600160a01b03898116600483015260248201859052604482018390529192507f000000000000000000000000000000000000000000000000000000000000000090911690633fdddaa290606401600060405180830381600087803b158015611e0657600080fd5b505af1158015611e1a573d6000803e3d6000fd5b50506040516370a0823160e01b81523060048201528992506001600160a01b03831691506370a082319060240160206040518083038186803b158015611e5f57600080fd5b505afa158015611e73573d6000803e3d6000fd5b505050506040513d601f19601f82011682018060405250810190611e979190612906565b9450611ead6001600160a01b0382163387611f15565b505050509392505050565b600080611ee47f0000000000000000000000000000000000000000000000000000000000000000612307565b9150611f0f7f0000000000000000000000000000000000000000000000000000000000000000612307565b90509091565b6040516001600160a01b038316602482015260448101829052611f8d90849063a9059cbb60e01b906064015b60408051601f198184030181529190526020810180517bffffffffffffffffffffffffffffffffffffffffffffffffffffffff166001600160e01b03199093169290921790915261242e565b505050565b600080546001600160a01b0383811673ffffffffffffffffffffffffffffffffffffffff19831681178455604051919092169283917f8be0079c531659141344cd1fd0a4f28419497f9722a3daafe3b4186f6b6457e09190a35050565b6120046001600160a01b038416333085612513565b6120386001600160a01b0384167f000000000000000000000000000000000000000000000000000000000000000084612551565b604051631c9c3ca760e31b81526001600160a01b03848116600483015260248201849052604482018390527f0000000000000000000000000000000000000000000000000000000000000000169063e4e1e53890606401600060405180830381600087803b1580156120a957600080fd5b505af11580156120bd573d6000803e3d6000fd5b50505050505050565b60006120d184611510565b905060006120df8484612a58565b90506000836120ee8385612abe565b6120f89190612a9c565b9050856121106001600160a01b038216333089612513565b6121446001600160a01b0382167f000000000000000000000000000000000000000000000000000000000000000088612551565b604051631feeed5160e11b81526001600160a01b03888116600483015260248201859052604482018490527f00000000000000000000000000000000000000000000000000000000000000001690633fdddaa290606401600060405180830381600087803b1580156121b557600080fd5b505af11580156121c9573d6000803e3d6000fd5b5050505050505050505050565b60006121e9826301ffc9a760e01b612209565b80156115ae5750612202826001600160e01b0319612209565b1592915050565b604080516001600160e01b0319831660248083019190915282518083039091018152604490910182526020810180517bffffffffffffffffffffffffffffffffffffffffffffffffffffffff166301ffc9a760e01b179052905160009190829081906001600160a01b0387169061753090612285908690612997565b6000604051808303818686fa925050503d80600081146122c1576040519150601f19603f3d011682016040523d82523d6000602084013e6122c6565b606091505b50915091506020815110156122e157600093505050506115ae565b8180156122fd5750808060200190518101906122fd91906128d0565b9695505050505050565b60405163cf5e7bd360e01b81526001600160a01b0382811660048301526000917f00000000000000000000000000000000000000000000000000000000000000009091169063cf5e7bd390602401600060405180830381600087803b15801561236f57600080fd5b505af1158015612383573d6000803e3d6000fd5b50506040516370a0823160e01b81523060048201528492506001600160a01b03831691506370a082319060240160206040518083038186803b1580156123c857600080fd5b505afa1580156123dc573d6000803e3d6000fd5b505050506040513d601f19601f820116820180604052508101906124009190612906565b91506124286124176000546001600160a01b031690565b6001600160a01b0383169084611f15565b50919050565b6000612483826040518060400160405280602081526020017f5361666545524332303a206c6f772d6c6576656c2063616c6c206661696c6564815250856001600160a01b031661267c9092919063ffffffff16565b805190915015611f8d57808060200190518101906124a191906128d0565b611f8d5760405162461bcd60e51b815260206004820152602a60248201527f5361666545524332303a204552433230206f7065726174696f6e20646964206e60448201527f6f742073756363656564000000000000000000000000000000000000000000006064820152608401610593565b6040516001600160a01b038085166024830152831660448201526064810182905261254b9085906323b872dd60e01b90608401611f41565b50505050565b8015806125da5750604051636eb1769f60e11b81523060048201526001600160a01b03838116602483015284169063dd62ed3e9060440160206040518083038186803b1580156125a057600080fd5b505afa1580156125b4573d6000803e3d6000fd5b505050506040513d601f19601f820116820180604052508101906125d89190612906565b155b61264c5760405162461bcd60e51b815260206004820152603660248201527f5361666545524332303a20617070726f76652066726f6d206e6f6e2d7a65726f60448201527f20746f206e6f6e2d7a65726f20616c6c6f77616e6365000000000000000000006064820152608401610593565b6040516001600160a01b038316602482015260448101829052611f8d90849063095ea7b360e01b90606401611f41565b606061268b8484600085612693565b949350505050565b60608247101561270b5760405162461bcd60e51b815260206004820152602660248201527f416464726573733a20696e73756666696369656e742062616c616e636520666f60448201527f722063616c6c00000000000000000000000000000000000000000000000000006064820152608401610593565b843b6127595760405162461bcd60e51b815260206004820152601d60248201527f416464726573733a2063616c6c20746f206e6f6e2d636f6e74726163740000006044820152606401610593565b600080866001600160a01b031685876040516127759190612997565b60006040518083038185875af1925050503d80600081146127b2576040519150601f19603f3d011682016040523d82523d6000602084013e6127b7565b606091505b5091509150611671828286606083156127d1575081611cbc565b8251156127e15782518084602001fd5b8160405162461bcd60e51b81526004016105939190612a25565b828054828255906000526020600020908101928215612836579160200282015b8281111561283657825182559160200191906001019061281b565b50611d439291505b80821115611d43576000815560010161283e565b80356001600160a01b038116811461286957600080fd5b919050565b60006020828403121561288057600080fd5b611cbc82612852565b6000806040838503121561289c57600080fd5b6128a583612852565b946020939093013593505050565b6000602082840312156128c557600080fd5b8135611cbc81612b4c565b6000602082840312156128e257600080fd5b8151611cbc81612b4c565b6000602082840312156128ff57600080fd5b5035919050565b60006020828403121561291857600080fd5b5051919050565b6000806040838503121561293257600080fd5b50508035926020909101359150565b6000806040838503121561295457600080fd5b505080516020909101519092909150565b6000806000806080858703121561297b57600080fd5b5050823594602084013594506040840135936060013592509050565b600082516129a9818460208701612af4565b9190910192915050565b600060c082016001600160a01b03891683526020888185015260c0604085015281885180845260e086019150828a01935060005b81811015612a03578451835293830193918301916001016129e7565b50506060850197909752505050608081019290925260a0909101529392505050565b6020815260008251806020840152612a44816040850160208701612af4565b601f01601f19169190910160400192915050565b60008219821115612a6b57612a6b612b20565b500190565b600067ffffffffffffffff808316818516808303821115612a9357612a93612b20565b01949350505050565b600082612ab957634e487b7160e01b600052601260045260246000fd5b500490565b6000816000190483118215151615612ad857612ad8612b20565b500290565b600082821015612aef57612aef612b20565b500390565b60005b83811015612b0f578181015183820152602001612af7565b8381111561254b5750506000910152565b634e487b7160e01b600052601160045260246000fd5b634e487b7160e01b600052603260045260246000fd5b8015158114611c0a57600080fdfea164736f6c6343000807000a",
  "libraries": {
    "SmartPoolManager": "0x8DBB8C9bFEb7689f16772c85136993cDA0c05eA4"
  },
  "devdoc": {
    "kind": "dev",
    "methods": {
      "deposit(uint256,uint256)": {
        "params": {
          "amount0": "Amount to deposit of first token.",
          "amount1": "Amount to deposit of second token."
        }
      },
      "getDenormalizedWeight(address)": {
        "returns": {
          "_0": "Denormalized weight value from underlying Balancer pool."
        }
      },
      "getSwapFee()": {
        "returns": {
          "_0": "Swap fee from underlying Balancer pool."
        }
      },
      "getWeightsChangeRatio(uint256,uint256)": {
        "details": "Will only be called by updateWeightsGradually().",
        "params": {
          "targetWeight0": "Target weight of first token.",
          "targetWeight1": "Target weight of second token."
        },
        "returns": {
          "_0": "Change ratio from current weights to target weights."
        }
      },
      "holdings0()": {
        "returns": {
          "_0": "Token balance in underlying pool"
        }
      },
      "holdings1()": {
        "returns": {
          "_0": "Token balance in underlying pool"
        }
      },
      "initialDeposit(uint256,uint256,uint256,uint256)": {
        "details": "Initial deposit must be performed before      calling withdraw() or deposit() functions.",
        "params": {
          "amount0": "Deposited amount of first token.",
          "amount1": "Deposited amount of second token.",
          "weight0": "Initial weight of first token.",
          "weight1": "Initial weight of second token."
        }
      },
      "isPublicSwap()": {
        "returns": {
          "_0": "If public swap is turned on, returns true, otherwise false."
        }
      },
      "owner()": {
        "details": "Returns the address of the current owner."
      },
      "renounceOwnership()": {
        "details": "Leaves the contract without owner. It will not be possible to call `onlyOwner` functions anymore. Can only be called by the current owner. NOTE: Renouncing ownership will leave the contract without an owner, thereby removing any functionality that is only available to the owner."
      },
      "setPublicSwap(bool)": {
        "params": {
          "value": "New state of public swap."
        }
      },
      "transferOwnership(address)": {
        "details": "Transfers ownership of the contract to a new account (`newOwner`). Can only be called by the current owner."
      },
      "updateWeightsGradually(uint256,uint256,uint256,uint256)": {
        "params": {
          "endBlock": "Block number at which the weights should reach target.",
          "startBlock": "Block number at which weight movement starts.",
          "targetWeight0": "Target weight of first token.",
          "targetWeight1": "Target weight of second token."
        }
      },
      "withdraw(uint256,uint256)": {
        "params": {
          "amount0": "Requested amount of first token.",
          "amount1": "Requested amount of second token."
        }
      }
    },
    "stateVariables": {
      "__bfactory": {
        "details": "Balancer addresses taken from https://docs.balancer.fi/v/v1/smart-contracts/addresses#kovan"
      }
    },
    "version": 1
  },
  "userdoc": {
    "errors": {
      "Mammon__SameTokenAddresses(address)": [
        {
          "notice": "ERRORS ///"
        }
      ]
    },
    "events": {
      "Created(address,address,address,address,address,uint32)": {
        "notice": "Emitted when the vault is created."
      },
      "Deposit(uint256,uint256,uint256,uint256)": {
        "notice": "Emitted when tokens are deposited."
      },
      "FinalizationInitialized(uint64)": {
        "notice": "Emitted when initializeFinalization is called."
      },
      "Finalized(address,uint256,uint256)": {
        "notice": "Emitted when vault is finalized."
      },
      "ManagerChanged(address,address)": {
        "notice": "Emitted when manager is changed."
      },
      "PokeWeights()": {
        "notice": "Emitted when pokeWeights is called."
      },
      "SetPublicSwap(bool)": {
        "notice": "Emitted when public swap is turned on/off."
      },
      "SetSwapFee(uint256)": {
        "notice": "Emitted when swap fee is updated."
      },
      "UpdateWeightsGradually(uint256,uint256,uint256,uint256)": {
        "notice": "Emitted when updateWeightsGradually is called."
      },
      "Withdraw(uint256,uint256,uint256,uint256,uint256,uint256,uint256,uint256)": {
        "notice": "Emitted when tokens are withdrawn."
      }
    },
    "kind": "user",
    "methods": {
      "deposit(uint256,uint256)": {
        "notice": "Deposit tokens into vault."
      },
      "finalize()": {
        "notice": "Destroy vault and returns all funds to treasury owner."
      },
      "getDenormalizedWeight(address)": {
        "notice": "Get token weight."
      },
      "getSwapFee()": {
        "notice": "Get swap fee."
      },
      "getWeightsChangeRatio(uint256,uint256)": {
        "notice": "Calculate change ratio for weights upgrade."
      },
      "holdings0()": {
        "notice": "Balance of the first token"
      },
      "holdings1()": {
        "notice": "Balance of the second token"
      },
      "initialDeposit(uint256,uint256,uint256,uint256)": {
        "notice": "Initialize Vault with first deposit."
      },
      "initializeFinalization()": {
        "notice": "Initiate vault destruction and return all funds to treasury owner."
      },
      "initialized()": {
        "notice": "Indicates that the Vault has been initialized"
      },
      "isPublicSwap()": {
        "notice": "Check if vault trading is enabled."
      },
      "manager()": {
        "notice": "Submits new balance parameters for the vault"
      },
      "noticePeriod()": {
        "notice": "Notice period for vault termination (in seconds)."
      },
      "noticeTimeoutAt()": {
        "notice": "Timestamp when notice elapses or 0 if not yet set"
      },
      "pokeWeights()": {
        "notice": "Update weights if within update window."
      },
      "pool()": {
        "notice": "Balancer pool. Controlled by the vault."
      },
      "setManager(address)": {
        "notice": "Change manager."
      },
      "setPublicSwap(bool)": {
        "notice": "Emitted when public swap is turned on/off."
      },
      "setSwapFee(uint256)": {
        "notice": "Change swap fee."
      },
      "sweep(address,uint256)": {
        "notice": "Withdraw any tokens accidentally sent to vault."
      },
      "token0()": {
        "notice": "First token address in vault."
      },
      "token1()": {
        "notice": "Second token address in vault."
      },
      "updateWeightsGradually(uint256,uint256,uint256,uint256)": {
        "notice": "Initiate weight move to target in given update window."
      },
      "validator()": {
        "notice": "Verifies withdraw limits."
      },
      "withdraw(uint256,uint256)": {
        "notice": "Withdraw tokens up to requested amounts."
      }
    },
    "version": 1
  },
  "storageLayout": {
    "storage": [
      {
        "astId": 4173,
        "contract": "contracts/MammonVaultV0Kovan.sol:MammonVaultV0Kovan",
        "label": "_owner",
        "offset": 0,
        "slot": "0",
        "type": "t_address"
      },
      {
        "astId": 4373,
        "contract": "contracts/MammonVaultV0Kovan.sol:MammonVaultV0Kovan",
        "label": "_status",
        "offset": 0,
        "slot": "1",
        "type": "t_uint256"
      },
      {
        "astId": 78,
        "contract": "contracts/MammonVaultV0Kovan.sol:MammonVaultV0Kovan",
        "label": "manager",
        "offset": 0,
        "slot": "2",
        "type": "t_address"
      },
      {
        "astId": 81,
        "contract": "contracts/MammonVaultV0Kovan.sol:MammonVaultV0Kovan",
        "label": "noticeTimeoutAt",
        "offset": 20,
        "slot": "2",
        "type": "t_uint64"
      },
      {
        "astId": 84,
        "contract": "contracts/MammonVaultV0Kovan.sol:MammonVaultV0Kovan",
        "label": "initialized",
        "offset": 28,
        "slot": "2",
        "type": "t_bool"
      },
      {
        "astId": 87,
        "contract": "contracts/MammonVaultV0Kovan.sol:MammonVaultV0Kovan",
        "label": "gradualUpdate",
        "offset": 0,
        "slot": "3",
        "type": "t_struct(GradualUpdateParams)5574_storage"
      }
    ],
    "types": {
      "t_address": {
        "encoding": "inplace",
        "label": "address",
        "numberOfBytes": "20"
      },
      "t_array(t_uint256)dyn_storage": {
        "base": "t_uint256",
        "encoding": "dynamic_array",
        "label": "uint256[]",
        "numberOfBytes": "32"
      },
      "t_bool": {
        "encoding": "inplace",
        "label": "bool",
        "numberOfBytes": "1"
      },
      "t_struct(GradualUpdateParams)5574_storage": {
        "encoding": "inplace",
        "label": "struct SmartPoolManager.GradualUpdateParams",
        "members": [
          {
            "astId": 5565,
            "contract": "contracts/MammonVaultV0Kovan.sol:MammonVaultV0Kovan",
            "label": "startBlock",
            "offset": 0,
            "slot": "0",
            "type": "t_uint256"
          },
          {
            "astId": 5567,
            "contract": "contracts/MammonVaultV0Kovan.sol:MammonVaultV0Kovan",
            "label": "endBlock",
            "offset": 0,
            "slot": "1",
            "type": "t_uint256"
          },
          {
            "astId": 5570,
            "contract": "contracts/MammonVaultV0Kovan.sol:MammonVaultV0Kovan",
            "label": "startWeights",
            "offset": 0,
            "slot": "2",
            "type": "t_array(t_uint256)dyn_storage"
          },
          {
            "astId": 5573,
            "contract": "contracts/MammonVaultV0Kovan.sol:MammonVaultV0Kovan",
            "label": "endWeights",
            "offset": 0,
            "slot": "3",
            "type": "t_array(t_uint256)dyn_storage"
          }
        ],
        "numberOfBytes": "128"
      },
      "t_uint256": {
        "encoding": "inplace",
        "label": "uint256",
        "numberOfBytes": "32"
      },
      "t_uint64": {
        "encoding": "inplace",
        "label": "uint64",
        "numberOfBytes": "8"
      }
    }
  }
}