{
  "address": "0xd46eD43509Dd67683f2B756C254445670f0ff565",
  "abi": [
    {
      "inputs": [
        {
          "internalType": "contract IVault",
          "name": "vault",
          "type": "address"
        }
      ],
      "stateMutability": "nonpayable",
      "type": "constructor"
    },
    {
      "anonymous": false,
      "inputs": [
        {
          "indexed": true,
          "internalType": "address",
          "name": "pool",
          "type": "address"
        }
      ],
      "name": "PoolCreated",
      "type": "event"
    },
    {
      "inputs": [
        {
          "internalType": "string",
          "name": "name",
          "type": "string"
        },
        {
          "internalType": "string",
          "name": "symbol",
          "type": "string"
        },
        {
          "internalType": "contract IERC20[]",
          "name": "tokens",
          "type": "address[]"
        },
        {
          "internalType": "uint256[]",
          "name": "weights",
          "type": "uint256[]"
        },
        {
          "internalType": "address[]",
          "name": "assetManagers",
          "type": "address[]"
        },
        {
          "internalType": "uint256",
          "name": "swapFeePercentage",
          "type": "uint256"
        },
        {
          "internalType": "address",
          "name": "owner",
          "type": "address"
        },
        {
          "internalType": "bool",
          "name": "swapEnabledOnStart",
          "type": "bool"
        },
        {
          "internalType": "bool",
          "name": "mustAllowlistLPs",
          "type": "bool"
        },
        {
          "internalType": "uint256",
          "name": "managementSwapFeePercentage",
          "type": "uint256"
        }
      ],
      "name": "create",
      "outputs": [
        {
          "internalType": "address",
          "name": "",
          "type": "address"
        }
      ],
      "stateMutability": "nonpayable",
      "type": "function"
    },
    {
      "inputs": [],
      "name": "getCreationCode",
      "outputs": [
        {
          "internalType": "bytes",
          "name": "",
          "type": "bytes"
        }
      ],
      "stateMutability": "view",
      "type": "function"
    },
    {
      "inputs": [],
      "name": "getCreationCodeContracts",
      "outputs": [
        {
          "internalType": "address",
          "name": "contractA",
          "type": "address"
        },
        {
          "internalType": "address",
          "name": "contractB",
          "type": "address"
        }
      ],
      "stateMutability": "view",
      "type": "function"
    },
    {
      "inputs": [],
      "name": "getPauseConfiguration",
      "outputs": [
        {
          "internalType": "uint256",
          "name": "pauseWindowDuration",
          "type": "uint256"
        },
        {
          "internalType": "uint256",
          "name": "bufferPeriodDuration",
          "type": "uint256"
        }
      ],
      "stateMutability": "view",
      "type": "function"
    },
    {
      "inputs": [],
      "name": "getVault",
      "outputs": [
        {
          "internalType": "contract IVault",
          "name": "",
          "type": "address"
        }
      ],
      "stateMutability": "view",
      "type": "function"
    },
    {
      "inputs": [
        {
          "internalType": "address",
          "name": "pool",
          "type": "address"
        }
      ],
      "name": "isPoolFromFactory",
      "outputs": [
        {
          "internalType": "bool",
          "name": "",
          "type": "bool"
        }
      ],
      "stateMutability": "view",
      "type": "function"
    }
  ],
  "transactionHash": "0xcfccba62d52a16c115151330f9be4394217506d949301543aa05822ff3e59fcf",
  "args": [
    "0xBA12222222228d8Ba445958a75a0704d566BF2C8"
  ],
  "solcInputHash": "2acb5fbbb67915dc01c38a0274eae461",
  "bytecode": "0x6101406040523480156200001257600080fd5b5060405162007d0438038062007d048339810160408190526200003591620001c3565b80604051806020016200004890620001b5565b601f1982820381018352601f909101166040528051819060006002820460a081905280830360e0819052818552909150836200009081620000f9602090811b620002fe17901c565b60601b6001600160601b0319166080528285018051838252620000bf82620000f9602090811b620002fe17901c565b6001600160601b0319606091821b811660c0529690935290529590951b90911661010052505050426276a700016101205250620001f39050565b80517f602038038060206000396000f3fefefefefefefefefefefefefefefefefefefe808352600091602081018484f09084529150620001476001600160a01b03831615156101ac6200014d565b50919050565b816200015e576200015e8162000162565b5050565b62461bcd60e51b6000908152602060045260076024526642414c23000030600a808404818106603090810160081b95839006959095019082900491820690940160101b939093010160c81b604452606490fd5b616e3d8062000ec783390190565b600060208284031215620001d5578081fd5b81516001600160a01b0381168114620001ec578182fd5b9392505050565b60805160601c60a05160c05160601c60e0516101005160601c61012051610c726200025560003980610173528061019c52508061020452508061036552508061014a52806103e152508061038652508061012952806103bd5250610c726000f3fe608060405234801561001057600080fd5b50600436106100715760003560e01c80636634b753116100505780636634b753146100c05780638d928af8146100e0578063a7c671eb146100f557610071565b8062c194db14610076578063174481fa146100945780632da47c40146100aa575b600080fd5b61007e610108565b60405161008b9190610a73565b60405180910390f35b61009c610127565b60405161008b929190610a41565b6100b261016d565b60405161008b929190610bc2565b6100d36100ce3660046107e6565b6101d7565b60405161008b9190610a68565b6100e8610202565b60405161008b9190610a20565b6100e8610103366004610802565b610226565b60606101226040518060200160405280600081525061035d565b905090565b7f00000000000000000000000000000000000000000000000000000000000000007f00000000000000000000000000000000000000000000000000000000000000009091565b600080427f00000000000000000000000000000000000000000000000000000000000000008110156101c957807f000000000000000000000000000000000000000000000000000000000000000003925062278d0091506101d2565b60009250600091505b509091565b73ffffffffffffffffffffffffffffffffffffffff1660009081526020819052604090205460ff1690565b7f000000000000000000000000000000000000000000000000000000000000000090565b600080600061023361016d565b915091506102ed604051806101a0016040528061024e610202565b73ffffffffffffffffffffffffffffffffffffffff1681526020018f81526020018e81526020018d81526020018c81526020018b81526020018a81526020018481526020018381526020018973ffffffffffffffffffffffffffffffffffffffff16815260200188151581526020018715158152602001868152506040516020016102d99190610a86565b604051602081830303815290604052610436565b9d9c50505050505050505050505050565b80517f602038038060206000396000f3fefefefefefefefefefefefefefefefefefefe808352600091602081018484f0908452915061035773ffffffffffffffffffffffffffffffffffffffff831615156101ac6104c1565b50919050565b8051604080517f00000000000000000000000000000000000000000000000000000000000000007f0000000000000000000000000000000000000000000000000000000000000000818101858101848101602090810190965280855293957f00000000000000000000000000000000000000000000000000000000000000009592947f000000000000000000000000000000000000000000000000000000000000000094938801866000828a3c846000888301883c50602089810190898501016104288183866104d3565b505050505050505050919050565b6000806104428361054d565b73ffffffffffffffffffffffffffffffffffffffff811660008181526020819052604080822080547fffffffffffffffffffffffffffffffffffffffffffffffffffffffffffffff001660011790555192935090917f83a48fbcfc991335314e74d0496aab6a1987e992ddc85dddbcc4d6dd6ef2e9fc9190a292915050565b816104cf576104cf81610595565b5050565b5b602081106105115781518352602092830192909101907fffffffffffffffffffffffffffffffffffffffffffffffffffffffffffffffe0016104d4565b905182516020929092036101000a7fffffffffffffffffffffffffffffffffffffffffffffffffffffffffffffffff0180199091169116179052565b6000606061055a8361035d565b905060008151602083016000f0905073ffffffffffffffffffffffffffffffffffffffff811661058e573d6000803e3d6000fd5b9392505050565b7f08c379a0000000000000000000000000000000000000000000000000000000006000908152602060045260076024526642414c23000030600a808404818106603090810160081b95839006959095019082900491820690940160101b939093010160c81b604452606490fd5b803561060d81610c17565b92915050565b600082601f830112610623578081fd5b813561063661063182610bf7565b610bd0565b81815291506020808301908481018184028601820187101561065757600080fd5b60005b8481101561067f57813561066d81610c17565b8452928201929082019060010161065a565b505050505092915050565b600082601f83011261069a578081fd5b81356106a861063182610bf7565b8181529150602080830190848101818402860182018710156106c957600080fd5b60005b8481101561067f5781356106df81610c17565b845292820192908201906001016106cc565b600082601f830112610701578081fd5b813561070f61063182610bf7565b81815291506020808301908481018184028601820187101561073057600080fd5b60005b8481101561067f57813584529282019290820190600101610733565b8035801515811461060d57600080fd5b600082601f83011261076f578081fd5b813567ffffffffffffffff811115610785578182fd5b6107b660207fffffffffffffffffffffffffffffffffffffffffffffffffffffffffffffffe0601f84011601610bd0565b91508082528360208285010111156107cd57600080fd5b8060208401602084013760009082016020015292915050565b6000602082840312156107f7578081fd5b813561058e81610c17565b6000806000806000806000806000806101408b8d031215610821578586fd5b8a3567ffffffffffffffff80821115610838578788fd5b6108448e838f0161075f565b9b5060208d0135915080821115610859578788fd5b6108658e838f0161075f565b9a5060408d013591508082111561087a578788fd5b6108868e838f0161068a565b995060608d013591508082111561089b578788fd5b6108a78e838f016106f1565b985060808d01359150808211156108bc578788fd5b506108c98d828e01610613565b96505060a08b013594506108e08c60c08d01610602565b93506108ef8c60e08d0161074f565b92506108ff8c6101008d0161074f565b91506101208b013590509295989b9194979a5092959850565b73ffffffffffffffffffffffffffffffffffffffff169052565b6000815180845260208085019450808401835b8381101561097757815173ffffffffffffffffffffffffffffffffffffffff1687529582019590820190600101610945565b509495945050505050565b6000815180845260208085019450808401835b8381101561097757815187529582019590820190600101610995565b15159052565b60008151808452815b818110156109dc576020818501810151868301820152016109c0565b818111156109ed5782602083870101525b50601f017fffffffffffffffffffffffffffffffffffffffffffffffffffffffffffffffe0169290920160200192915050565b73ffffffffffffffffffffffffffffffffffffffff91909116815260200190565b73ffffffffffffffffffffffffffffffffffffffff92831681529116602082015260400190565b901515815260200190565b60006020825261058e60208301846109b7565b600060208252610a9a602083018451610918565b60208301516101a0806040850152610ab66101c08501836109b7565b915060408501517fffffffffffffffffffffffffffffffffffffffffffffffffffffffffffffffe080868503016060870152610af284836109b7565b93506060870151915080868503016080870152610b0f8483610932565b935060808701519150808685030160a0870152610b2c8483610982565b935060a08701519150808685030160c087015250610b4a8382610932565b92505060c085015160e085015260e0850151610100818187015280870151915050610120818187015280870151915050610140610b8981870183610918565b8601519050610160610b9d868201836109b1565b8601519050610180610bb1868201836109b1565b959095015193019290925250919050565b918252602082015260400190565b60405181810167ffffffffffffffff81118282101715610bef57600080fd5b604052919050565b600067ffffffffffffffff821115610c0d578081fd5b5060209081020190565b73ffffffffffffffffffffffffffffffffffffffff81168114610c3957600080fd5b5056fea264697066735822122019d43b0379102538042b144e1f9d289867affe41ec2bd8deb1d36ae9a389efeb64736f6c634300070100336101e06040527f6e71edae12b1b97f4d1f60370fef10105fa2faae0126114a169c64845d6126c9610120523480156200003757600080fd5b5060405162006e3d38038062006e3d8339810160408190526200005a9162000ec7565b805160208201516040830151606084015160a085015160c086015160e0870151610100880151610120890151855189906002146200009a5760016200009d565b60025b8989898989898989828289898d8280604051806040016040528060018152602001603160f81b81525085858a336001600160a01b031660001b806080818152505050806001600160a01b031660a0816001600160a01b031660601b815250505081600390805190602001906200011592919062000c0f565b5080516200012b90600490602084019062000c0f565b505060058054601260ff1990911617905550815160209283012060c052805191012060e052507f8b73c3c69bb8fe3d512ecc4cf759cc79239f7b179b0ffacaa9a75d522b39400f6101005260601b6001600160601b03191661014052506200019e90506276a70083111561019462000495565b620001b262278d0082111561019562000495565b4290910161016081905201610180528551620001d4906002111560c862000495565b620001ee620001e2620004aa565b8751111560c962000495565b6200020486620004af60201b620016181760201c565b6200020f84620004bb565b6040516309b2760f60e01b81526000906001600160a01b038c16906309b2760f9062000240908d9060040162001164565b602060405180830381600087803b1580156200025b57600080fd5b505af115801562000270573d6000803e3d6000fd5b505050506040513d601f19601f8201168201806040525081019062000296919062000eae565b604051633354e3e960e11b81529091506001600160a01b038c16906366a9c7d290620002cb9084908b908b90600401620010c8565b600060405180830381600087803b158015620002e657600080fd5b505af1158015620002fb573d6000803e3d6000fd5b50505050806101a0818152505050505050505050505050505050505050505050506001600a819055506000816060015151905062000350818360800151518460a00151516200054760201b620016221760201c565b620003806200037a8260016200036562000567565b6200056d60201b6200163a179092919060201c565b62000580565b62000398816200038f620005a5565b1460c962000495565b620003bc670de0b6b3a764000083610180015111156101526200049560201b60201c565b608082015160608301514291620003d991839182918190620005d0565b60005b8281101562000425576200041b84606001518281518110620003fa57fe5b60200260200101516000600c6200081160201b62001649179092919060201c565b50600101620003dc565b506101408301516200043790620008c1565b61016083015162000448906200091c565b610180830180516101c052516040517feba99e9e36df79031493efd8473cfce5475d3a135878665490df8b014069321091620004849162001179565b60405180910390a15050506200122b565b81620004a657620004a68162000962565b5050565b603290565b80620004a681620009b5565b620004d064e8d4a5100082101560cb62000495565b620004e867016345785d8a000082111560ca62000495565b620005078160c060085462000a3f60201b62001716179092919060201c565b6008556040517fa9ba3ffe0b6c366b81232caab38605a0699ad5398d6cce76f91ee809e322dafc906200053c90839062001179565b60405180910390a150565b6200056282841480156200055a57508183145b606762000495565b505050565b60085490565b81811b607f821b198416175b9392505050565b6200059f81600060085462000a5460201b6200172c179092919060201c565b60085550565b6000620005cb6001620005b762000567565b62000a6f60201b620017581790919060201c565b905090565b600080805b845181101562000797576000858281518110620005ee57fe5b6020026020010151905062000616662386f26fc1000082101561012e6200049560201b60201c565b60008583815181106200062557fe5b6020026020010151905062000753620006c5826001600160a01b031663313ce5676040518163ffffffff1660e01b815260040160206040518083038186803b1580156200067157600080fd5b505afa15801562000686573d6000803e3d6000fd5b505050506040513d601f19601f82011682018060405250810190620006ac91906200105e565b60ff16601262000a7c60201b6200175f1790919060201c565b60606200073e620006e18662000a9460201b620017751760201c565b604062000729620007118f8b81518110620006f857fe5b602002602001015162000ad760201b620017991760201c565b60008c62000a3f60201b62001716179092919060201c565b62000b0960201b620017b9179092919060201c565b62000b1b60201b620017cb179092919060201c565b6001600160a01b0382166000908152600b60209081526040909120919091556200078a9086908490620017da62000b2a821b17901c565b94505050600101620005d5565b50620007b0670de0b6b3a7640000831461013462000495565b620007c96200037a876028620007298b60088262000567565b7f0f3631f9dab08169d1db21c6dc5f32536fb2b0a6b9bb5330d71c52132f968be08787878760405162000800949392919062001182565b60405180910390a150505050505050565b6001600160a01b038216600090815260028401602052604081205480620008a057505082546040805180820182526001600160a01b03858116808352602080840187815260008781526001808c018452878220965187546001600160a01b0319169616959095178655905194840194909455948201808955908352600288019094529190209190915562000579565b60001901600090815260018086016020526040822001839055905062000579565b620008eb6200037a826000620008d662000567565b62000b3e60201b620017ec179092919060201c565b7f5a9e84f78f7957cb4ed7478eb0fcad35ee4ecbe2e0f298420b28a3955392573f816040516200053c9190620010bd565b620009316200037a826048620008d662000567565b7f5353e2cb47d505ba9b628610daec53fc41f3a4259dab35a757b0f1d5a58bc1c3816040516200053c9190620010bd565b62461bcd60e51b6000908152602060045260076024526642414c23000030600a808404818106603090810160081b95839006959095019082900491820690940160101b939093010160c81b604452606490fd5b600281511015620009c65762000a3c565b600081600081518110620009d657fe5b602002602001015190506000600190505b82518110156200056257600083828151811062000a0057fe5b6020026020010151905062000a31816001600160a01b0316846001600160a01b03161060656200049560201b60201c565b9150600101620009e7565b50565b6001600160401b03811b1992909216911b1790565b6001600160c01b03828116821b90821b198416179392505050565b81811c607f165b92915050565b600062000a8e83831115600162000495565b50900390565b600062000a76670de0b6b3a764000062000ac363ffffffff80168562000b6760201b620018131790919060201c565b62000bbc60201b620018611790919060201c565b600062000a76670de0b6b3a764000062000ac36001600160401b0380168562000b6760201b620018131790919060201c565b63ffffffff811b1992909216911b1790565b601f811b1992909216911b1790565b600082820162000579848210158362000495565b60006001821b198416828462000b5657600062000b59565b60015b60ff16901b17949350505050565b600082820262000b8f84158062000b8757508385838162000b8457fe5b04145b600362000495565b8062000ba057600091505062000a76565b670de0b6b3a764000060001982015b0460010191505062000a76565b600062000bcd821515600462000495565b8262000bdc5750600062000a76565b670de0b6b3a76400008381029062000c029085838162000bf857fe5b0414600562000495565b82600182038162000baf57fe5b828054600181600116156101000203166002900490600052602060002090601f016020900481019282601f1062000c5257805160ff191683800117855562000c82565b8280016001018555821562000c82579182015b8281111562000c8257825182559160200191906001019062000c65565b5062000c9092915062000c94565b5090565b5b8082111562000c90576000815560010162000c95565b805162000a768162001215565b600082601f83011262000cc9578081fd5b815162000ce062000cda82620011e9565b620011c2565b81815291506020808301908481018184028601820187101562000d0257600080fd5b60005b8481101562000d2e57815162000d1b8162001215565b8452928201929082019060010162000d05565b505050505092915050565b600082601f83011262000d4a578081fd5b815162000d5b62000cda82620011e9565b81815291506020808301908481018184028601820187101562000d7d57600080fd5b60005b8481101562000d2e57815162000d968162001215565b8452928201929082019060010162000d80565b600082601f83011262000dba578081fd5b815162000dcb62000cda82620011e9565b81815291506020808301908481018184028601820187101562000ded57600080fd5b60005b8481101562000d2e5781518452928201929082019060010162000df0565b8051801515811462000a7657600080fd5b600082601f83011262000e30578081fd5b81516001600160401b0381111562000e46578182fd5b602062000e5c601f8301601f19168201620011c2565b9250818352848183860101111562000e7357600080fd5b60005b8281101562000e9357848101820151848201830152810162000e76565b8281111562000ea55760008284860101525b50505092915050565b60006020828403121562000ec0578081fd5b5051919050565b60006020828403121562000ed9578081fd5b81516001600160401b038082111562000ef0578283fd5b81840191506101a080838703121562000f07578384fd5b62000f1281620011c2565b905062000f20868462000cab565b815260208301518281111562000f34578485fd5b62000f428782860162000e1f565b60208301525060408301518281111562000f5a578485fd5b62000f688782860162000e1f565b60408301525060608301518281111562000f80578485fd5b62000f8e8782860162000d39565b60608301525060808301518281111562000fa6578485fd5b62000fb48782860162000da9565b60808301525060a08301518281111562000fcc578485fd5b62000fda8782860162000cb8565b60a08301525060c083015160c082015260e083015160e0820152610100915081830151828201526101209150620010148683850162000cab565b8282015261014091506200102b8683850162000e0e565b828201526101609150620010428683850162000e0e565b9181019190915261018091820151918101919091529392505050565b60006020828403121562001070578081fd5b815160ff8116811462000579578182fd5b6000815180845260208085019450808401835b83811015620010b25781518752958201959082019060010162001094565b509495945050505050565b901515815260200190565b60006060820185835260206060818501528186518084526080860191508288019350845b81811015620011145762001101855162001209565b83529383019391830191600101620010ec565b505084810360408601528551808252908201925081860190845b81811015620011565762001143835162001209565b855293830193918301916001016200112e565b509298975050505050505050565b60208101600383106200117357fe5b91905290565b90815260200190565b600085825284602083015260806040830152620011a3608083018562001081565b8281036060840152620011b7818562001081565b979650505050505050565b6040518181016001600160401b0381118282101715620011e157600080fd5b604052919050565b60006001600160401b03821115620011ff578081fd5b5060209081020190565b6001600160a01b031690565b6001600160a01b038116811462000a3c57600080fd5b60805160a05160601c60c05160e05161010051610120516101405160601c61016051610180516101a0516101c051615b8b620012b2600039806110f952806137905250806108f9525080611a39525080611a155250806110d5525080611373525080611d34525080611d76525080611d555250806110a252508061102c5250615b8b6000f3fe608060405234801561001057600080fd5b506004361061030a5760003560e01c80637b749c451161019c57806395d89b41116100ee578063c0ff1a1511610097578063dd62ed3e11610071578063dd62ed3e14610605578063e01af92c14610618578063f89f27ed1461062b5761030a565b8063c0ff1a15146105d7578063d505accf146105df578063d5c096c4146105f25761030a565b8063a457c2d7116100c8578063a457c2d7146105a9578063a9059cbb146105bc578063aaabadc5146105cf5761030a565b806395d89b41146105865780639b02cdde1461058e5780639d2c110c146105965761030a565b8063851c1bb3116101505780638d0274661161012a5780638d0274661461056e5780638d928af81461057657806390605f3a1461057e5761030a565b8063851c1bb31461053357806387ec681714610546578063893d20e8146105595761030a565b80637ecebe00116101815780637ecebe00146104fa57806381788e2b1461050d5780638345245e146105205761030a565b80637b749c45146104d05780637beed220146104e35761030a565b806338fff2d01161026057806355c6762811610209578063679aefce116101e3578063679aefce1461049457806370a082311461049c57806374f3b009146104af5761030a565b806355c67628146104585780635b77155e146104605780636028bfd4146104735761030a565b80633e5692051161023a5780633e5692051461042a57806347bc4d921461043d57806350dd6ed9146104455761030a565b806338fff2d0146103fc57806339509351146104045780633c9d93b8146104175761030a565b80631dd746ea116102c257806332f144f51161029c57806332f144f5146103cb5780633644e515146103e157806338e9922e146103e95761030a565b80631dd746ea1461038e57806323b872dd146103a3578063313ce567146103b65761030a565b806316c38b3c116102f357806316c38b3c1461034d57806318160ddd146103625780631c0de051146103775761030a565b806306fdde031461030f578063095ea7b31461032d575b600080fd5b610317610633565b6040516103249190615a2e565b60405180910390f35b61034061033b36600461514c565b6106ca565b6040516103249190615834565b61036061035b366004615243565b6106e1565b005b61036a6106f5565b6040516103249190615857565b61037f6106fb565b6040516103249392919061583f565b610396610724565b60405161032491906157fc565b6103406103b136600461509c565b610733565b6103be6107a9565b6040516103249190615ab5565b6103d36107b2565b6040516103249291906157a6565b61036a6108d4565b6103606103f73660046155cf565b6108de565b61036a6108f7565b61034061041236600461514c565b61091b565b610360610425366004615048565b610956565b6103606104383660046155e7565b6109f5565b610340610af2565b61036061045336600461537a565b610b07565b61036a610b25565b61036061046e366004615048565b610b36565b61048661048136600461527b565b610c5d565b604051610324929190615a41565b61036a610c94565b61036a6104aa366004615048565b610cbf565b6104c26104bd36600461527b565b610cde565b60405161032492919061580f565b6103606104de366004615243565b610d81565b6104eb610d9a565b60405161032493929190615a5a565b61036a610508366004615048565b610f27565b61036061051b366004615048565b610f42565b61034061052e366004615048565b610ff8565b61036a61054136600461531e565b611028565b61048661055436600461527b565b61107a565b6105616110a0565b6040516103249190615792565b6103406110c4565b6105616110d3565b61036a6110f7565b61031761111b565b61036a61117c565b61036a6105a43660046154d3565b611189565b6103406105b736600461514c565b611224565b6103406105ca36600461514c565b611262565b61056161126f565b61036a611279565b6103606105ed3660046150dc565b61133e565b6104c261060036600461527b565b611487565b61036a610613366004615064565b6115b8565b610360610626366004615243565b6115f5565b61039661160e565b60038054604080516020601f60026000196101006001881615020190951694909404938401819004810282018101909252828152606093909290918301828280156106bf5780601f10610694576101008083540402835291602001916106bf565b820191906000526020600020905b8154815290600101906020018083116106a257829003601f168201915b505050505090505b90565b60006106d73384846118ac565b5060015b92915050565b6106e9611914565b6106f28161195a565b50565b60025490565b60008060006107086119f6565b159250610713611a13565b915061071d611a37565b9050909192565b606061072e611a5b565b905090565b60008061074085336115b8565b9050610764336001600160a01b038716148061075c5750838210155b61019e611ba8565b61076f858585611bb6565b336001600160a01b0386161480159061078a57506000198114155b1561079c5761079c85338584036118ac565b60019150505b9392505050565b60055460ff1690565b6060806107bd611c96565b67ffffffffffffffff811180156107d357600080fd5b506040519080825280602002602001820160405280156107fd578160200160208202803683370190505b509150610808611c96565b67ffffffffffffffff8111801561081e57600080fd5b50604051908082528060200260200182016040528015610848578160200160208202803683370190505b50905060005b610856611c96565b8110156108be5760008061086b600c84611cab565b915091508185848151811061087c57fe5b60200260200101906001600160a01b031690816001600160a01b031681525050808484815181106108a957fe5b6020908102919091010152505060010161084e565b506108d0816108cb611a5b565b611ccf565b9091565b600061072e611d30565b6108e6611914565b6108ee611dcd565b6106f281611de2565b7f000000000000000000000000000000000000000000000000000000000000000090565b3360008181526001602090815260408083206001600160a01b038716845290915281205490916106d791859061095190866117da565b6118ac565b61095e611914565b610966611dcd565b6001600160a01b0381166000908152600f602052604090205461098e9060ff166101b1611ba8565b6001600160a01b0381166000818152600f602052604080822080547fffffffffffffffffffffffffffffffffffffffffffffffffffffffffffffff00169055517f89aa0423af0b4cf311bfb79f61549f2b82b335f041e4f7ae674618059b51a4cb9190a250565b6109fd611914565b610a05611dcd565b610a0d611e4d565b610a1f610a18611c96565b8251611e66565b42610a2a8185611e73565b9350610a3b83851115610146611ba8565b6060610a456110d3565b6001600160a01b031663f94d4668610a5b6108f7565b6040518263ffffffff1660e01b8152600401610a779190615857565b60006040518083038186803b158015610a8f57600080fd5b505afa158015610aa3573d6000803e3d6000fd5b505050506040513d6000823e601f3d908101601f19168201604052610acb9190810190615177565b50509050610ae38585610adc611e8a565b8685611feb565b5050610aed6121af565b505050565b600061072e6000610b016121b6565b906121bc565b610b0f611914565b610b17611dcd565b610b2182826121c6565b5050565b60085460009061072e9060c06122de565b610b3e611914565b610b46611dcd565b610b4e611e4d565b606080610b596107b2565b91509150610b656110d3565b6001600160a01b0316638bdb3913610b7b6108f7565b30866040518060800160405280610b91896106c7565b81526020018781526020016003604051602001610bae9190615a1a565b6040516020818303038152906040528152602001600015158152506040518563ffffffff1660e01b8152600401610be8949392919061587f565b600060405180830381600087803b158015610c0257600080fd5b505af1158015610c16573d6000803e3d6000fd5b505050507f5cf8dd4ddeaded21c5e3dc4043073fa7659089e0d11d8480344663008dff060f8282604051610c4b9291906157a6565b60405180910390a150506106f26121af565b60006060610c738651610c6e611c96565b611e66565b610c88898989898989896122ec611ccf6123b9565b97509795505050505050565b600061072e610ca16106f5565b610cb9610cac611279565b610cb4611c96565b612549565b90612563565b6001600160a01b0381166000908152602081905260409020545b919050565b60608088610d08610ced6110d3565b6001600160a01b0316336001600160a01b03161460cd611ba8565b610d1d610d136108f7565b82146101f4611ba8565b6060610d27611a5b565b9050610d3388826125ab565b6000606080610d488e8e8e8e8e8e8a8f6122ec565b925092509250610d588d8461260c565b610d628285611ccf565b610d6c8185611ccf565b909550935050505b5097509795505050505050565b610d89611914565b610d91611dcd565b6106f281612616565b60008060606000610da96121b6565b9050610db681600861265d565b9350610dc381602861265d565b92506060610dcf6110d3565b6001600160a01b031663f94d4668610de56108f7565b6040518263ffffffff1660e01b8152600401610e019190615857565b60006040518083038186803b158015610e1957600080fd5b505afa158015610e2d573d6000803e3d6000fd5b505050506040513d6000823e601f3d908101601f19168201604052610e559190810190615177565b505080519091508067ffffffffffffffff81118015610e7357600080fd5b50604051908082528060200260200182016040528015610e9d578160200160208202803683370190505b50935060005b81811015610f1e57610eff610efa6040600b6000878681518110610ec357fe5b60200260200101516001600160a01b03166001600160a01b031681526020019081526020016000205461265d90919063ffffffff16565b612667565b858281518110610f0b57fe5b6020908102919091010152600101610ea3565b50505050909192565b6001600160a01b031660009081526006602052604090205490565b610f4a611914565b610f52611dcd565b610f65610f5d6110c4565b610158611ba8565b6001600160a01b0381166000908152600f6020526040902054610f8e9060ff16156101b0611ba8565b6001600160a01b0381166000818152600f602052604080822080547fffffffffffffffffffffffffffffffffffffffffffffffffffffffffffffff00166001179055517fbf5840c727acdcaceea5154edc82998fa82a490aa3dc7aeb66849c8bbea1f5799190a250565b60006110026110c4565b15806106db5750506001600160a01b03166000908152600f602052604090205460ff1690565b60007f00000000000000000000000000000000000000000000000000000000000000008260405160200161105d92919061571c565b604051602081830303815290604052805190602001209050919050565b6000606061108b8651610c6e611c96565b610c88898989898989896126856127476123b9565b7f000000000000000000000000000000000000000000000000000000000000000090565b600061072e6048610b016121b6565b7f000000000000000000000000000000000000000000000000000000000000000090565b7f000000000000000000000000000000000000000000000000000000000000000090565b60048054604080516020601f60026000196101006001881615020190951694909404938401819004810282018101909252828152606093909290918301828280156106bf5780601f10610694576101008083540402835291602001916106bf565b60006106c76101536127a8565b6000806111a88560200151610135600c6128159092919063ffffffff16565b905060006111cc6111c5836111c08960200151612852565b612865565b869061175f565b905060006111ec8760400151610135600c6128159092919063ffffffff16565b9050600061120b611204836111c08b60400151612852565b879061175f565b9050611218888483612871565b98975050505050505050565b60008061123133856115b8565b905080831061124b57611246338560006118ac565b611258565b61125833858584036118ac565b5060019392505050565b60006106d7338484611bb6565b600061072e6129c7565b600060606112856110d3565b6001600160a01b031663f94d466861129b6108f7565b6040518263ffffffff1660e01b81526004016112b79190615857565b60006040518083038186803b1580156112cf57600080fd5b505afa1580156112e3573d6000803e3d6000fd5b505050506040513d6000823e601f3d908101601f1916820160405261130b9190810190615177565b509150506113208161131b611a5b565b6125ab565b606061132a612a41565b5090506113378183612abf565b9250505090565b61134c8442111560d1611ba8565b6001600160a01b03871660009081526006602090815260408083205490519092916113a3917f0000000000000000000000000000000000000000000000000000000000000000918c918c918c9188918d910161596c565b60405160208183030381529060405280519060200120905060006113c682612b31565b90506000600182888888604051600081526020016040526040516113ed94939291906159fc565b6020604051602081039080840390855afa15801561140f573d6000803e3d6000fd5b5050604051601f190151915061145190506001600160a01b0382161580159061144957508b6001600160a01b0316826001600160a01b0316145b6101f8611ba8565b6001600160a01b038b16600090815260066020526040902060018501905561147a8b8b8b6118ac565b5050505050505050505050565b60608088611496610ced6110d3565b6114a1610d136108f7565b60606114ab611a5b565b90506114b56106f5565b61156857600060606114ca8d8d8d868b612b4d565b915091506114e36114d9612be3565b83101560cc611ba8565b6114f560006114f0612be3565b612bea565b6115088b611501612be3565b8403612bea565b6115128184612747565b8061151b611c96565b67ffffffffffffffff8111801561153157600080fd5b5060405190808252806020026020018201604052801561155b578160200160208202803683370190505b5095509550505050610d74565b61157288826125ab565b60006060806115878e8e8e8e8e8e8a8f612685565b9250925092506115978c84612bea565b6115a18285612747565b6115ab8185611ccf565b9095509350610d74915050565b60006115c26110d3565b6001600160a01b0316826001600160a01b031614156115e457506000196106db565b6115ee8383612bf4565b90506106db565b6115fd611914565b611605611dcd565b6106f281612c1f565b606061072e611e8a565b80610b2181612c5f565b610aed828414801561163357508183145b6067611ba8565b607f811b1992909216911b1790565b6001600160a01b0382166000908152600284016020526040812054806116ee57505082546040805180820182526001600160a01b03858116808352602080840187815260008781526001808c018452878220965187547fffffffffffffffffffffffff000000000000000000000000000000000000000016961695909517865590519484019490945594820180895590835260028801909452919020919091556107a2565b6000190160009081526001808601602052604082200183905590506107a2565b509392505050565b67ffffffffffffffff811b1992909216911b1790565b77ffffffffffffffffffffffffffffffffffffffffffffffff828116821b90821b198416179392505050565b1c607f1690565b600061176f838311156001611ba8565b50900390565b60006106db670de0b6b3a76400006117938463ffffffff6118138116565b90611861565b60006106db670de0b6b3a76400006117938467ffffffffffffffff611813565b63ffffffff811b1992909216911b1790565b601f811b1992909216911b1790565b60008282016107a28482101583611ba8565b60006001821b1984168284611802576000611805565b60015b60ff16901b17949350505050565b600082820261183784158061183057508385838161182d57fe5b04145b6003611ba8565b806118465760009150506106db565b670de0b6b3a764000060001982015b046001019150506106db565b60006118708215156004611ba8565b8261187d575060006106db565b670de0b6b3a7640000838102906118a09085838161189757fe5b04146005611ba8565b82600182038161185557fe5b6001600160a01b0380841660008181526001602090815260408083209487168084529490915290819020849055517f8c5be1e5ebec7d5bd14f71427d1e84f3dd0314c0f7b2291e5b200ac8c7c3b92590611907908590615857565b60405180910390a3505050565b60006119436000357fffffffff0000000000000000000000000000000000000000000000000000000016611028565b90506106f26119528233612cd8565b610191611ba8565b801561197a5761197561196b611a13565b4210610193611ba8565b61198f565b61198f611985611a37565b42106101a9611ba8565b600780547fffffffffffffffffffffffffffffffffffffffffffffffffffffffffffffff00168215151790556040517f9e3a5e37224532dea67b89face185703738a228a6e8a23dee546960180d3be64906119eb908390615834565b60405180910390a150565b6000611a00611a37565b42118061072e57505060075460ff161590565b7f000000000000000000000000000000000000000000000000000000000000000090565b7f000000000000000000000000000000000000000000000000000000000000000090565b606080611a666110d3565b6001600160a01b031663f94d4668611a7c6108f7565b6040518263ffffffff1660e01b8152600401611a989190615857565b60006040518083038186803b158015611ab057600080fd5b505afa158015611ac4573d6000803e3d6000fd5b505050506040513d6000823e601f3d908101601f19168201604052611aec9190810190615177565b505080519091508067ffffffffffffffff81118015611b0a57600080fd5b50604051908082528060200260200182016040528015611b34578160200160208202803683370190505b50925060005b81811015611ba257611b83600b6000858481518110611b5557fe5b60200260200101516001600160a01b03166001600160a01b0316815260200190815260200160002054612dc1565b848281518110611b8f57fe5b6020908102919091010152600101611b3a565b50505090565b81610b2157610b21816127a8565b611bcd6001600160a01b0384161515610198611ba8565b611be46001600160a01b0383161515610199611ba8565b611bef838383610aed565b6001600160a01b038316600090815260208190526040902054611c1590826101a0612de3565b6001600160a01b038085166000908152602081905260408082209390935590841681522054611c4490826117da565b6001600160a01b0380841660008181526020819052604090819020939093559151908516907fddf252ad1be2c89b69c2b068fc378daa952ba7f163c4a11628f55a4df523b3ef90611907908590615857565b600061072e6001611ca56121b6565b90611758565b600090815260019182016020526040902080549101546001600160a01b0390911691565b60005b611cda611c96565b811015610aed57611d11838281518110611cf057fe5b6020026020010151838381518110611d0457fe5b6020026020010151612563565b838281518110611d1d57fe5b6020908102919091010152600101611cd2565b60007f00000000000000000000000000000000000000000000000000000000000000007f00000000000000000000000000000000000000000000000000000000000000007f0000000000000000000000000000000000000000000000000000000000000000611d9d612df9565b30604051602001611db29594939291906159a0565b60405160208183030381529060405280519060200120905090565b611de0611dd86119f6565b610192611ba8565b565b611df564e8d4a5100082101560cb611ba8565b611e0b67016345785d8a000082111560ca611ba8565b600854611e1a908260c0611716565b6008556040517fa9ba3ffe0b6c366b81232caab38605a0699ad5398d6cce76f91ee809e322dafc906119eb908390615857565b611e5f6002600a541415610190611ba8565b6002600a55565b610b218183146067611ba8565b600081831015611e8357816107a2565b5090919050565b606080611e956110d3565b6001600160a01b031663f94d4668611eab6108f7565b6040518263ffffffff1660e01b8152600401611ec79190615857565b60006040518083038186803b158015611edf57600080fd5b505afa158015611ef3573d6000803e3d6000fd5b505050506040513d6000823e601f3d908101601f19168201604052611f1b9190810190615177565b505080519091508067ffffffffffffffff81118015611f3957600080fd5b50604051908082528060200260200182016040528015611f63578160200160208202803683370190505b5092506000611f70612dfd565b905060005b82811015611fe4576000600b6000868481518110611f8f57fe5b60200260200101516001600160a01b03166001600160a01b03168152602001908152602001600020549050611fc48184612e73565b868381518110611fd057fe5b602090810291909101015250600101611f75565b5050505090565b600080805b845181101561213657600085828151811061200757fe5b60200260200101519050612027662386f26fc1000082101561012e611ba8565b600085838151811061203557fe5b602002602001015190506121076120c1826001600160a01b031663313ce5676040518163ffffffff1660e01b815260040160206040518083038186803b15801561207e57600080fd5b505afa158015612092573d6000803e3d6000fd5b505050506040513d601f19601f820116820180604052508101906120b69190615675565b60129060ff1661175f565b60606121006120cf86611775565b60406120f96120f08f8b815181106120e357fe5b6020026020010151611799565b8b906000611716565b91906117b9565b91906117cb565b6001600160a01b0382166000908152600b602052604090205561212a85836117da565b94505050600101611ff0565b5061214d670de0b6b3a76400008314610134611ba8565b6121696121648760286120f98b60086120f96121b6565b612f0c565b7f0f3631f9dab08169d1db21c6dc5f32536fb2b0a6b9bb5330d71c52132f968be08787878760405161219e9493929190615a79565b60405180910390a150505050505050565b6001600a55565b60085490565b1c60019081161490565b60006121d06108f7565b905060006121dc6110d3565b6001600160a01b031663b05f8e4883866040518363ffffffff1660e01b81526004016122099291906159e5565b60806040518083038186803b15801561222157600080fd5b505afa158015612235573d6000803e3d6000fd5b505050506040513d601f19601f820116820180604052508101906122599190615635565b6040517f18e736d40000000000000000000000000000000000000000000000000000000081529094506001600160a01b03851693506318e736d492506122a69150859087906004016159cc565b600060405180830381600087803b1580156122c057600080fd5b505af11580156122d4573d6000803e3d6000fd5b5050505050505050565b1c67ffffffffffffffff1690565b600060608060006122fc85612f21565b905061233d612309610af2565b8061231f5750600182600381111561231d57fe5b145b806123355750600382600381111561233357fe5b145b61014a611ba8565b61234689612f37565b61235a8b8a612353611e8a565b8989612f98565b9094509250612367611c96565b67ffffffffffffffff8111801561237d57600080fd5b506040519080825280602002602001820160405280156123a7578160200160208202803683370190505b50915050985098509895505050505050565b3330146124a8576000306001600160a01b03166000366040516123dd92919061574c565b6000604051808303816000865af19150503d806000811461241a576040519150601f19603f3d011682016040523d82523d6000602084013e61241f565b606091505b50509050806000811461242e57fe5b60046000803e6000517fffffffff00000000000000000000000000000000000000000000000000000000167f43adbafb00000000000000000000000000000000000000000000000000000000811461248a573d6000803e3d6000fd5b506020600460003e604060205260243d03602460403e601c3d016000f35b60606124b2611a5b565b90506124be87826125ab565b600060606124d68c8c8c8c8c8c898d8d63ffffffff16565b50915091506124e981848663ffffffff16565b8051601f1982018390526343adbafb7fffffffffffffffffffffffffffffffffffffffffffffffffffffffffffffffc08301526020027fffffffffffffffffffffffffffffffffffffffffffffffffffffffffffffffdc82016044820181fd5b60008282026107a284158061183057508385838161182d57fe5b60006125728215156004611ba8565b8261257f575060006106db565b670de0b6b3a7640000838102906125999085838161189757fe5b8281816125a257fe5b049150506106db565b60005b6125b6611c96565b811015610aed576125ed8382815181106125cc57fe5b60200260200101518383815181106125e057fe5b6020026020010151612fdc565b8382815181106125f957fe5b60209081029190910101526001016125ae565b610b218282613008565b61262e6121648260486126276121b6565b91906117ec565b7f5353e2cb47d505ba9b628610daec53fc41f3a4259dab35a757b0f1d5a58bc1c3816040516119eb9190615834565b1c63ffffffff1690565b60006106db63ffffffff61179384670de0b6b3a76400006118138416565b6000606080612692611dcd565b6126b961269d610af2565b80612335575060036126ae86612f21565b600381111561233357fe5b6126cd6126c58b610ff8565b6101b1611ba8565b6126d688612f37565b6126e9886126e2611e8a565b87876130c4565b90935091506126f6611c96565b67ffffffffffffffff8111801561270c57600080fd5b50604051908082528060200260200182016040528015612736578160200160208202803683370190505b509050985098509895505050505050565b60005b612752611c96565b811015610aed5761278983828151811061276857fe5b602002602001015183838151811061277c57fe5b6020026020010151611861565b83828151811061279557fe5b602090810291909101015260010161274a565b7f08c379a0000000000000000000000000000000000000000000000000000000006000908152602060045260076024526642414c23000030600a808404818106603090810160081b95839006959095019082900491820690940160101b939093010160c81b604452606490fd5b6001600160a01b038216600090815260028401602052604081205461283c81151584611ba8565b6128498560018303613152565b95945050505050565b60006106db61286083613168565b612dc1565b60006107a28383612563565b60008360800151612883610ced6110d3565b61288e610d136108f7565b600061289d8660200151612852565b905060006128ae8760400151612852565b90506000875160018111156128bf57fe5b141561294f5760006128d4886060015161318f565b905060008189606001510390506128f889602001516128f383876131b0565b6131bc565b6060890182905261290988856131b0565b975061291587846131b0565b96506129258960600151856131b0565b60608a015260006129378a8a8a6131ce565b90506129438185612865565b9650505050505061170e565b61295986836131b0565b955061296585826131b0565b94506129758760600151826131b0565b606088015260006129878888886131f6565b9050612993818461320e565b905060006129a08261321a565b9050600082820390506129bb8a602001516128f383886131b0565b50945061170e92505050565b60006129d16110d3565b6001600160a01b031663aaabadc56040518163ffffffff1660e01b815260040160206040518083038186803b158015612a0957600080fd5b505afa158015612a1d573d6000803e3d6000fd5b505050506040513d601f19601f8201168201806040525081019061072e919061535e565b60606000612a4d611e8a565b915060009050600082600081518110612a6257fe5b602002602001015190506000600190505b8351811015612ab95781848281518110612a8957fe5b60200260200101511115612ab157809250838181518110612aa657fe5b602002602001015191505b600101612a73565b50509091565b670de0b6b3a764000060005b8351811015612b2157612b17612b10858381518110612ae657fe5b6020026020010151858481518110612afa57fe5b602002602001015161324090919063ffffffff16565b8390612fdc565b9150600101612acb565b506106db60008211610137611ba8565b6000612b3b611d30565b8260405160200161105d92919061575c565b60006060612b59611dcd565b6000612b6484612f21565b9050612b7f6000826003811115612b7757fe5b1460ce611ba8565b6060612b8a8561328f565b9050612b97610a18611c96565b612ba181876125ab565b6060612bab612a41565b5090506000612bba8284612abf565b90506000612bca82610cb4611c96565b60099290925550945090925050505b9550959350505050565b620f424090565b610b2182826132a5565b6001600160a01b03918216600090815260016020908152604080832093909416825291909152205490565b612c306121648260006126276121b6565b7f5a9e84f78f7957cb4ed7478eb0fcad35ee4ecbe2e0f298420b28a3955392573f816040516119eb9190615834565b600281511015612c6e576106f2565b600081600081518110612c7d57fe5b602002602001015190506000600190505b8251811015610aed576000838281518110612ca557fe5b60200260200101519050612cce816001600160a01b0316846001600160a01b0316106065611ba8565b9150600101612c8e565b600073ba1ba1ba1ba1ba1ba1ba1ba1ba1ba1ba1ba1ba1b612cf76110a0565b6001600160a01b031614158015612d125750612d1283613333565b15612d3a57612d1f6110a0565b6001600160a01b0316336001600160a01b03161490506106db565b612d426129c7565b6001600160a01b0316639be2a8848484306040518463ffffffff1660e01b8152600401612d7193929190615860565b60206040518083038186803b158015612d8957600080fd5b505afa158015612d9d573d6000803e3d6000fd5b505050506040513d601f19601f820116820180604052508101906115ee919061525f565b600080612dcf836060613469565b600a0a670de0b6b3a7640000029392505050565b6000612df28484111583611ba8565b5050900390565b4690565b60004281612e096121b6565b90506000612e1882600861265d565b90506000612e2783602861265d565b9050808410612e4457670de0b6b3a76400009450505050506106c7565b818411612e585760009450505050506106c7565b818103828503612e688183612563565b965050505050505090565b600080612e88612e8385836122de565b613470565b90506000612e9a610efa86604061265d565b9050831580612ea857508082145b15612eb5575090506106db565b670de0b6b3a76400008410612ecd5791506106db9050565b80821115612ef0576000612ee385838503612fdc565b90920392506106db915050565b6000612efe85848403612fdc565b9290920192506106db915050565b600854612f1b9082600061172c565b60085550565b6000818060200190518101906106db91906153c8565b60005b612f42611c96565b811015610b2157612f79612f57600c83613152565b838381518110612f6357fe5b602002602001015161175f90919063ffffffff16565b828281518110612f8557fe5b6020908102919091010152600101612f3a565b600060606000612fa784612f21565b90506003816003811115612fb757fe5b1415612fd057612fc688613490565b9250925050612bd9565b612fc687878787613551565b6000828202612ff684158061183057508385838161182d57fe5b670de0b6b3a764000090049392505050565b61301f6001600160a01b038316151561019b611ba8565b61302b82600083610aed565b6001600160a01b03821660009081526020819052604090205461305190826101a1612de3565b6001600160a01b03831660009081526020819052604090205560025461307790826135ca565b6002556040516000906001600160a01b038416907fddf252ad1be2c89b69c2b068fc378daa952ba7f163c4a11628f55a4df523b3ef906130b8908590615857565b60405180910390a35050565b6000606060006130d384612f21565b905060018160038111156130e357fe5b14156130ff576130f5878787876135d8565b9250925050613149565b600281600381111561310d57fe5b141561311e576130f5878786613651565b600381600381111561312c57fe5b141561313c576130f58785613740565b6131476101366127a8565b505b94509492505050565b6000908152600191820160205260409020015490565b6001600160a01b0381166000908152600b6020526040902054610cd9811515610135611ba8565b6000806131a461319d610b25565b8490611813565b90506107a2838261175f565b60006107a28383612fdc565b610b216131c883613772565b82613782565b60006131e36131db610af2565b610147611ba8565b6131ee8484846137e9565b949350505050565b60006132036131db610af2565b6131ee84848461381c565b60006107a28383611861565b60006106db61323961322a610b25565b670de0b6b3a76400009061175f565b8390611861565b60008061324d848461384f565b9050600061326761326083612710611813565b60016117da565b90508082101561327c576000925050506106db565b613286828261175f565b925050506106db565b6060818060200190518101906107a2919061548e565b6132b160008383610aed565b6002546132be90826117da565b6002556001600160a01b0382166000908152602081905260409020546132e490826117da565b6001600160a01b0383166000818152602081905260408082209390935591519091907fddf252ad1be2c89b69c2b068fc378daa952ba7f163c4a11628f55a4df523b3ef906130b8908590615857565b600061335e7f3e56920500000000000000000000000000000000000000000000000000000000611028565b821480613392575061338f7fe01af92c00000000000000000000000000000000000000000000000000000000611028565b82145b806133c457506133c17f5b77155e00000000000000000000000000000000000000000000000000000000611028565b82145b806133f657506133f37f81788e2b00000000000000000000000000000000000000000000000000000000611028565b82145b8061342857506134257f3c9d93b800000000000000000000000000000000000000000000000000000000611028565b82145b8061345a57506134577f7b749c4500000000000000000000000000000000000000000000000000000000611028565b82145b806106db57506106db8261398c565b1c601f1690565b60006106db67ffffffffffffffff61179384670de0b6b3a7640000611813565b6000606061349c611dcd565b6134b36001600160a01b0384163014610151611ba8565b600091506134bf611c96565b67ffffffffffffffff811180156134d557600080fd5b506040519080825280602002602001820160405280156134ff578160200160208202803683370190505b50905060005b61350d611c96565b81101561354b5761351f600c82613152565b82828151811061352b57fe5b6020908102919091010152613543600c8260006139f0565b600101613505565b50915091565b60006060600061356084612f21565b9050600081600381111561357057fe5b1415613581576130f5878786613a08565b600181600381111561358f57fe5b141561359f576130f58785613a73565b60028160038111156135ad57fe5b14156135bf576130f587878787613a98565b6131476101506127a8565b60006107a283836001612de3565b600060608060006135e885613b06565b915091506135fe6135f7611c96565b8351611e66565b61360882876125ab565b600060606136278a8a8661361a6106f5565b613622610b25565b613b29565b9150915061363481613c92565b6136428383101560d0611ba8565b50989197509095505050505050565b6000606060008061366185613cd6565b91509150613679613670611c96565b82106064611ba8565b6000806136bd89848151811061368b57fe5b602002602001015189858151811061369f57fe5b6020026020010151866136b06106f5565b6136b8610b25565b613ced565b915091506136cb8382613782565b60606136d5611c96565b67ffffffffffffffff811180156136eb57600080fd5b50604051908082528060200260200182016040528015613715578160200160208202803683370190505b5090508281858151811061372557fe5b60209081029190910101529399939850929650505050505050565b60006060600061374f84613dc3565b9050606061376586836137606106f5565b613dd9565b9196919550909350505050565b60006106db600c83610135613e8b565b80156137df5760006137b4827f0000000000000000000000000000000000000000000000000000000000000000612fdc565b905060006137c3600c85613152565b90506137dc846137d383856117da565b600c91906139f0565b50505b610b218282610b21565b60006137f3611dcd565b6131ee836138048660200151613eb2565b846138128860400151613eb2565b8860600151613ed6565b6000613826611dcd565b6131ee836138378660200151613eb2565b846138458860400151613eb2565b8860600151613f51565b6000816138655750670de0b6b3a76400006106db565b82613872575060006106db565b61389f7f800000000000000000000000000000000000000000000000000000000000000084106006611ba8565b826138c5770bce5086492111aea88f4bb1ca6bcf584181ea8059f7653284106007611ba8565b826000670c7d713b49da0000831380156138e65750670f43fc2c04ee000083125b1561391d5760006138f684613fc7565b9050670de0b6b3a764000080820784020583670de0b6b3a76400008305020191505061392b565b81613927846140fe565b0290505b670de0b6b3a764000090056139797ffffffffffffffffffffffffffffffffffffffffffffffffdc702bd3a30fc00008212801590613972575068070c1cc73b00c800008213155b6008611ba8565b6139828161449e565b9695505050505050565b60006139b77f38e9922e00000000000000000000000000000000000000000000000000000000611028565b8214806106db57506139e87f50dd6ed900000000000000000000000000000000000000000000000000000000611028565b909114919050565b60009182526001928301602052604090912090910155565b60006060613a14611dcd565b600080613a2085613cd6565b91509150613a2f613670611c96565b6000806136bd898481518110613a4157fe5b6020026020010151898581518110613a5557fe5b602002602001015186613a666106f5565b613a6e610b25565b61496e565b600060606000613a8284613dc3565b905060606137658683613a936106f5565b614a24565b60006060613aa4611dcd565b60606000613ab185613b06565b91509150613ac28251610c6e611c96565b613acc82876125ab565b60006060613aeb8a8a86613ade6106f5565b613ae6610b25565b614ab6565b91509150613afd8383111560cf611ba8565b61364281613c92565b6060600082806020019051810190613b1e91906153e4565b909590945092505050565b6000606080855167ffffffffffffffff81118015613b4657600080fd5b50604051908082528060200260200182016040528015613b70578160200160208202803683370190505b5090506000805b8951811015613c3557613bd08a8281518110613b8f57fe5b6020026020010151610cb98a8481518110613ba657fe5b60200260200101518d8581518110613bba57fe5b60200260200101516117da90919063ffffffff16565b838281518110613bdc57fe5b602002602001018181525050613c2b613c248a8381518110613bfa57fe5b6020026020010151858481518110613c0e57fe5b6020026020010151612fdc90919063ffffffff16565b83906117da565b9150600101613b77565b5060006060613c488b8b8b87878c614bbb565b915091506000670de0b6b3a76400008311613c64576000613c80565b613c80613c7984670de0b6b3a764000061175f565b8a90612fdc565b9c919b50909950505050505050505050565b613c9f8151610c6e611c96565b60005b613caa611c96565b811015610b2157613cce81838381518110613cc157fe5b6020026020010151613782565b600101613ca2565b60008082806020019051810190613b1e9190615458565b60008080613cff8561179381896117da565b9050613d186729a2241af62c0000821115610133611ba8565b6000613d36613d2f670de0b6b3a76400008a611861565b8390614d40565b90506000613d56613d4f83670de0b6b3a764000061175f565b8b90611813565b90506000613d638a614d6c565b90506000613d718383611813565b90506000613d7f848361175f565b90506000613d9f613d98670de0b6b3a76400008c61175f565b8490611861565b83810398509050613db082826117da565b9850505050505050509550959350505050565b6000818060200190518101906107a2919061542b565b60606000613de78484611861565b90506060855167ffffffffffffffff81118015613e0357600080fd5b50604051908082528060200260200182016040528015613e2d578160200160208202803683370190505b50905060005b8651811015613e8157613e6283888381518110613e4c57fe5b602002602001015161181390919063ffffffff16565b828281518110613e6e57fe5b6020908102919091010152600101613e33565b5095945050505050565b600080613e988585614d92565b9050613ea681151584611ba8565b60001901949350505050565b600080613ebd612dfd565b90506000613eca84613168565b90506131ee8183612e73565b6000613ef8613eed87670429d069189e0000612fdc565b831115610130611ba8565b6000613f0487846117da565b90506000613f128883611861565b90506000613f208887612563565b90506000613f2e8383614d40565b9050613f43613f3c82614d6c565b8990612fdc565b9a9950505050505050505050565b6000613f73613f6885670429d069189e0000612fdc565b831115610131611ba8565b6000613f89613f82868561175f565b8690611861565b90506000613f978588611861565b90506000613fa58383614d40565b90506000613fbb82670de0b6b3a764000061175f565b9050613f438a82611813565b670de0b6b3a7640000026000806ec097ce7bc90715b34b9f1000000000808401907fffffffffffffffffffffffffffffffffff3f68318436f8ea4cb460f0000000008501028161401357fe5b05905060006ec097ce7bc90715b34b9f100000000082800205905081806ec097ce7bc90715b34b9f100000000081840205915060038205016ec097ce7bc90715b34b9f100000000082840205915060058205016ec097ce7bc90715b34b9f100000000082840205915060078205016ec097ce7bc90715b34b9f100000000082840205915060098205016ec097ce7bc90715b34b9f1000000000828402059150600b8205016ec097ce7bc90715b34b9f1000000000828402059150600d8205016ec097ce7bc90715b34b9f1000000000828402059150600f826002919005919091010295945050505050565b6000670de0b6b3a764000082121561413b57614131826ec097ce7bc90715b34b9f10000000008161412b57fe5b056140fe565b6000039050610cd9565b60007e1600ef3172e58d2e933ec884fde10064c63b5372d805e203c0000000000000831261418c57770195e54c5dd42177f53a27172fa9ec630262827000000000830592506806f05b59d3b2000000015b73011798004d755d3c8bc8e03204cf44619e00000083126141c4576b1425982cf597cd205cef7380830592506803782dace9d9000000015b606492830292026e01855144814a7ff805980ff0084000831261420c576e01855144814a7ff805980ff008400068056bc75e2d63100000840205925068ad78ebc5ac62000000015b6b02df0ab5a80a22c61ab5a7008312614247576b02df0ab5a80a22c61ab5a70068056bc75e2d6310000084020592506856bc75e2d631000000015b693f1fce3da636ea5cf850831261427e57693f1fce3da636ea5cf85068056bc75e2d631000008402059250682b5e3af16b18800000015b690127fa27722cc06cc5e283126142b557690127fa27722cc06cc5e268056bc75e2d6310000084020592506815af1d78b58c400000015b68280e60114edb805d0383126142ea5768280e60114edb805d0368056bc75e2d631000008402059250680ad78ebc5ac6200000015b680ebc5fb41746121110831261431557680ebc5fb4174612111068056bc75e2d631000009384020592015b6808f00f760a4b2db55d831261434a576808f00f760a4b2db55d68056bc75e2d6310000084020592506802b5e3af16b1880000015b6806f5f1775788937937831261437f576806f5f177578893793768056bc75e2d63100000840205925068015af1d78b58c40000015b6806248f33704b28660383126143b3576806248f33704b28660368056bc75e2d63100000840205925067ad78ebc5ac620000015b6805c548670b9510e7ac83126143e7576805c548670b9510e7ac68056bc75e2d6310000084020592506756bc75e2d6310000015b600068056bc75e2d63100000840168056bc75e2d63100000808603028161440a57fe5b059050600068056bc75e2d63100000828002059050818068056bc75e2d63100000818402059150600382050168056bc75e2d63100000828402059150600582050168056bc75e2d63100000828402059150600782050168056bc75e2d63100000828402059150600982050168056bc75e2d63100000828402059150600b820501600202606485820105979650505050505050565b60006144e37ffffffffffffffffffffffffffffffffffffffffffffffffdc702bd3a30fc000083121580156144dc575068070c1cc73b00c800008313155b6009611ba8565b6000821215614517576144f88260000361449e565b6ec097ce7bc90715b34b9f10000000008161450f57fe5b059050610cd9565b60006806f05b59d3b2000000831261456d57507ffffffffffffffffffffffffffffffffffffffffffffffff90fa4a62c4e00000090910190770195e54c5dd42177f53a27172fa9ec6302628270000000006145b9565b6803782dace9d900000083126145b557507ffffffffffffffffffffffffffffffffffffffffffffffffc87d2531627000000909101906b1425982cf597cd205cef73806145b9565b5060015b6064929092029168056bc75e2d6310000068ad78ebc5ac62000000841261461f577fffffffffffffffffffffffffffffffffffffffffffffff5287143a539e0000009093019268056bc75e2d631000006e01855144814a7ff805980ff008400082020590505b6856bc75e2d6310000008412614671577fffffffffffffffffffffffffffffffffffffffffffffffa9438a1d29cf0000009093019268056bc75e2d631000006b02df0ab5a80a22c61ab5a70082020590505b682b5e3af16b1880000084126146c1577fffffffffffffffffffffffffffffffffffffffffffffffd4a1c50e94e78000009093019268056bc75e2d63100000693f1fce3da636ea5cf85082020590505b6815af1d78b58c4000008412614711577fffffffffffffffffffffffffffffffffffffffffffffffea50e2874a73c000009093019268056bc75e2d63100000690127fa27722cc06cc5e282020590505b680ad78ebc5ac62000008412614760577ffffffffffffffffffffffffffffffffffffffffffffffff5287143a539e000009093019268056bc75e2d6310000068280e60114edb805d0382020590505b68056bc75e2d6310000084126147af577ffffffffffffffffffffffffffffffffffffffffffffffffa9438a1d29cf000009093019268056bc75e2d63100000680ebc5fb4174612111082020590505b6802b5e3af16b188000084126147fe577ffffffffffffffffffffffffffffffffffffffffffffffffd4a1c50e94e7800009093019268056bc75e2d631000006808f00f760a4b2db55d82020590505b68015af1d78b58c40000841261484d577ffffffffffffffffffffffffffffffffffffffffffffffffea50e2874a73c00009093019268056bc75e2d631000006806f5f177578893793782020590505b68056bc75e2d631000008481019085906002908280020505918201919050600368056bc75e2d631000008783020505918201919050600468056bc75e2d631000008783020505918201919050600568056bc75e2d631000008783020505918201919050600668056bc75e2d631000008783020505918201919050600768056bc75e2d631000008783020505918201919050600868056bc75e2d631000008783020505918201919050600968056bc75e2d631000008783020505918201919050600a68056bc75e2d631000008783020505918201919050600b68056bc75e2d631000008783020505918201919050600c68056bc75e2d631000008783020505918201919050606468056bc75e2d63100000848402058502059695505050505050565b6000808061498085611793818961175f565b90506149996709b6e64a8ec60000821015610132611ba8565b60006149b0613d2f670de0b6b3a76400008a612563565b905060006149c76149c083614d6c565b8b90612fdc565b905060006149d48a614d6c565b905060006149e28383611813565b905060006149f0848361175f565b90506149fc828a611813565b9650614a12614a0b838961175f565b82906117da565b97505050505050509550959350505050565b60606000614a328484612563565b90506060855167ffffffffffffffff81118015614a4e57600080fd5b50604051908082528060200260200182016040528015614a78578160200160208202803683370190505b50905060005b8651811015613e8157614a9783888381518110613c0e57fe5b828281518110614aa357fe5b6020908102919091010152600101614a7e565b6000606080855167ffffffffffffffff81118015614ad357600080fd5b50604051908082528060200260200182016040528015614afd578160200160208202803683370190505b5090506000805b8951811015614b8f57614b478a8281518110614b1c57fe5b60200260200101516117938a8481518110614b3357fe5b60200260200101518d8581518110612f6357fe5b838281518110614b5357fe5b602002602001018181525050614b85613c248a8381518110614b7157fe5b6020026020010151858481518110613e4c57fe5b9150600101614b04565b5060006060614ba28b8b8b87878c614db1565b915091506000613c80614bb484614d6c565b8a90611813565b60006060855167ffffffffffffffff81118015614bd757600080fd5b50604051908082528060200260200182016040528015614c01578160200160208202803683370190505b509050670de0b6b3a7640000915060005b8851811015614d3457600085878381518110614c2a57fe5b60200260200101511115614cb6576000614c5b614c4f88670de0b6b3a764000061175f565b8c8581518110613c0e57fe5b90506000614c6f828b8681518110612f6357fe5b90506000614c7d8289611813565b9050614c93614c8c838361175f565b84906117da565b935080868681518110614ca257fe5b602002602001018181525050505050614ccd565b878281518110614cc257fe5b602002602001015190505b6000614cf68b8481518110614cde57fe5b6020026020010151610cb9848e8781518110613bba57fe5b9050614d28614d218b8581518110614d0a57fe5b60200260200101518361324090919063ffffffff16565b8690612fdc565b94505050600101614c12565b50965096945050505050565b600080614d4d848461384f565b90506000614d6061326083612710611813565b905061284982826117da565b6000670de0b6b3a76400008210614d845760006106db565b50670de0b6b3a76400000390565b6001600160a01b03166000908152600291909101602052604090205490565b60006060855167ffffffffffffffff81118015614dcd57600080fd5b50604051908082528060200260200182016040528015614df7578160200160208202803683370190505b509050670de0b6b3a7640000915060005b8851811015614d34576000868281518110614e1f57fe5b6020026020010151861115614e99576000614e3c614c4f88614d6c565b90506000614e50828b8681518110612f6357fe5b90506000614e69613239670de0b6b3a76400008a61175f565b9050818103868681518110614e7a57fe5b6020908102919091010152614e8f83826117da565b9350505050614eb0565b878281518110614ea557fe5b602002602001015190505b6000614ed98b8481518110614ec157fe5b6020026020010151610cb9848e8781518110612f6357fe5b9050614eed614d218b8581518110614d0a57fe5b94505050600101614e08565b80356106db81615b16565b600082601f830112614f14578081fd5b8135614f27614f2282615aea565b615ac3565b818152915060208083019084810181840286018201871015614f4857600080fd5b60005b84811015614f6757813584529282019290820190600101614f4b565b505050505092915050565b600082601f830112614f82578081fd5b8151614f90614f2282615aea565b818152915060208083019084810181840286018201871015614fb157600080fd5b60005b84811015614f6757815184529282019290820190600101614fb4565b600082601f830112614fe0578081fd5b813567ffffffffffffffff811115614ff6578182fd5b6150096020601f19601f84011601615ac3565b915080825283602082850101111561502057600080fd5b8060208401602084013760009082016020015292915050565b8035600281106106db57600080fd5b600060208284031215615059578081fd5b81356107a281615b16565b60008060408385031215615076578081fd5b823561508181615b16565b9150602083013561509181615b16565b809150509250929050565b6000806000606084860312156150b0578081fd5b83356150bb81615b16565b925060208401356150cb81615b16565b929592945050506040919091013590565b600080600080600080600060e0888a0312156150f6578283fd5b873561510181615b16565b9650602088013561511181615b16565b95506040880135945060608801359350608088013561512f81615b46565b9699959850939692959460a0840135945060c09093013592915050565b6000806040838503121561515e578182fd5b823561516981615b16565b946020939093013593505050565b60008060006060848603121561518b578081fd5b835167ffffffffffffffff808211156151a2578283fd5b818601915086601f8301126151b5578283fd5b81516151c3614f2282615aea565b80828252602080830192508086018b8283870289010111156151e3578788fd5b8796505b8487101561520e5780516151fa81615b16565b8452600196909601959281019281016151e7565b508901519097509350505080821115615225578283fd5b5061523286828701614f72565b925050604084015190509250925092565b600060208284031215615254578081fd5b81356107a281615b2b565b600060208284031215615270578081fd5b81516107a281615b2b565b600080600080600080600060e0888a031215615295578081fd5b8735965060208801356152a781615b16565b955060408801356152b781615b16565b9450606088013567ffffffffffffffff808211156152d3578283fd5b6152df8b838c01614f04565b955060808a0135945060a08a0135935060c08a0135915080821115615302578283fd5b5061530f8a828b01614fd0565b91505092959891949750929550565b60006020828403121561532f578081fd5b81357fffffffff00000000000000000000000000000000000000000000000000000000811681146107a2578182fd5b60006020828403121561536f578081fd5b81516107a281615b16565b6000806040838503121561538c578182fd5b823561539781615b16565b9150602083013567ffffffffffffffff8111156153b2578182fd5b6153be85828601614fd0565b9150509250929050565b6000602082840312156153d9578081fd5b81516107a281615b39565b6000806000606084860312156153f8578081fd5b835161540381615b39565b602085015190935067ffffffffffffffff81111561541f578182fd5b61523286828701614f72565b6000806040838503121561543d578182fd5b825161544881615b39565b6020939093015192949293505050565b60008060006060848603121561546c578081fd5b835161547781615b39565b602085015160409095015190969495509392505050565b600080604083850312156154a0578182fd5b82516154ab81615b39565b602084015190925067ffffffffffffffff8111156154c7578182fd5b6153be85828601614f72565b6000806000606084860312156154e7578081fd5b833567ffffffffffffffff808211156154fe578283fd5b8186019150610120808389031215615514578384fd5b61551d81615ac3565b90506155298884615039565b81526155388860208501614ef9565b602082015261554a8860408501614ef9565b6040820152606083013560608201526080830135608082015260a083013560a082015261557a8860c08501614ef9565b60c082015261558c8860e08501614ef9565b60e082015261010080840135838111156155a4578586fd5b6155b08a828701614fd0565b9183019190915250976020870135975060409096013595945050505050565b6000602082840312156155e0578081fd5b5035919050565b6000806000606084860312156155fb578081fd5b8335925060208401359150604084013567ffffffffffffffff81111561561f578182fd5b61562b86828701614f04565b9150509250925092565b6000806000806080858703121561564a578182fd5b845193506020850151925060408501519150606085015161566a81615b16565b939692955090935050565b600060208284031215615686578081fd5b81516107a281615b46565b6000815180845260208085019450808401835b838110156156c0578151875295820195908201906001016156a4565b509495945050505050565b15159052565b60008151808452815b818110156156f6576020818501810151868301820152016156da565b818111156157075782602083870101525b50601f01601f19169290920160200192915050565b9182527fffffffff0000000000000000000000000000000000000000000000000000000016602082015260240190565b6000828483379101908152919050565b7f190100000000000000000000000000000000000000000000000000000000000081526002810192909252602282015260420190565b6001600160a01b0391909116815260200190565b604080825283519082018190526000906020906060840190828701845b828110156157e85781516001600160a01b0316845292840192908401906001016157c3565b505050838103828501526139828186615691565b6000602082526107a26020830184615691565b6000604082526158226040830185615691565b82810360208401526128498185615691565b901515815260200190565b92151583526020830191909152604082015260600190565b90815260200190565b9283526001600160a01b03918216602084015216604082015260600190565b600085825260206001600160a01b038087168285015280861660408501525060806060840152610100830184516080808601528181518084526101208701915084830193508592505b808310156158f0576158da8451615b0a565b82529284019260019290920191908401906158c8565b508387015193507fffffffffffffffffffffffffffffffffffffffffffffffffffffffffffffff809250828682030160a087015261592e8185615691565b935050506040850151818584030160c086015261594b83826156d1565b92505050606084015161596160e08501826156cb565b509695505050505050565b9586526001600160a01b0394851660208701529290931660408501526060840152608083019190915260a082015260c00190565b9485526020850193909352604084019190915260608301526001600160a01b0316608082015260a00190565b6000838252604060208301526131ee60408301846156d1565b9182526001600160a01b0316602082015260400190565b93845260ff9290921660208401526040830152606082015260800190565b6020810160048310615a2857fe5b91905290565b6000602082526107a260208301846156d1565b6000838252604060208301526131ee6040830184615691565b6000848252836020830152606060408301526128496060830184615691565b600085825284602083015260806040830152615a986080830185615691565b8281036060840152615aaa8185615691565b979650505050505050565b60ff91909116815260200190565b60405181810167ffffffffffffffff81118282101715615ae257600080fd5b604052919050565b600067ffffffffffffffff821115615b00578081fd5b5060209081020190565b6001600160a01b031690565b6001600160a01b03811681146106f257600080fd5b80151581146106f257600080fd5b600481106106f257600080fd5b60ff811681146106f257600080fdfea2646970667358221220c4586bce9bcbc9930712a4c9bbbd42fc2c217da334271ddc364040503079f51c64736f6c63430007010033",
  "devdoc": {
    "kind": "dev",
    "methods": {
      "create(string,string,address[],uint256[],address[],uint256,address,bool,bool,uint256)": {
        "params": {
          "assetManagers": "Addresses of asset managers.",
          "managementSwapFeePercentage": "Management swap fee percentage.",
          "mustAllowlistLPs": "If true, only listed addresses can join the pool.",
          "name": "Pool Token name.",
          "owner": "Pool controller.",
          "swapEnabledOnStart": "Swap enabled states on start.",
          "swapFeePercentage": "Swap fee percentage.",
          "symbol": "Pool Token symbol.",
          "tokens": "Addresses of asset tokens.",
          "weights": "Initial weights of asset tokens."
        }
      },
      "getCreationCode()": {
        "details": "Returns the creation code of the contract this factory creates."
      },
      "getCreationCodeContracts()": {
        "details": "Returns the two addresses where the creation code of the contract crated by this factory is stored."
      },
      "getPauseConfiguration()": {
        "details": "Returns the current `TemporarilyPausable` configuration that will be applied to Pools created by this factory. `pauseWindowDuration` will decrease over time until it reaches zero, at which point both it and `bufferPeriodDuration` will be zero forever, meaning deployed Pools will not be pausable."
      },
      "getVault()": {
        "details": "Returns the Vault's address."
      },
      "isPoolFromFactory(address)": {
        "details": "Returns true if `pool` was created by this factory."
      }
    },
    "version": 1
  },
  "userdoc": {
    "kind": "user",
    "methods": {
      "create(string,string,address[],uint256[],address[],uint256,address,bool,bool,uint256)": {
        "notice": "Deploys a New Balancer ManagedPool."
      }
    },
    "version": 1
  },
  "storageLayout": {
    "storage": [
      {
        "astId": 2680,
        "contract": "contracts/MammonPoolFactoryV1.sol:MammonPoolFactoryV1",
        "label": "_isPoolFromFactory",
        "offset": 0,
        "slot": "0",
        "type": "t_mapping(t_address,t_bool)"
      }
    ],
    "types": {
      "t_address": {
        "encoding": "inplace",
        "label": "address",
        "numberOfBytes": "20"
      },
      "t_bool": {
        "encoding": "inplace",
        "label": "bool",
        "numberOfBytes": "1"
      },
      "t_mapping(t_address,t_bool)": {
        "encoding": "mapping",
        "key": "t_address",
        "label": "mapping(address => bool)",
        "numberOfBytes": "32",
        "value": "t_bool"
      }
    }
  }
}