{
  "address": "0x047F5748Ed6b72d2EDB48B9c36CeC1446725AF95",
  "abi": [
    {
      "inputs": [
        {
          "internalType": "address",
          "name": "factory",
          "type": "address"
        },
        {
          "internalType": "string",
          "name": "name",
          "type": "string"
        },
        {
          "internalType": "string",
          "name": "symbol",
          "type": "string"
        },
        {
          "internalType": "contract IERC20[]",
          "name": "tokens",
          "type": "address[]"
        },
        {
          "internalType": "uint256[]",
          "name": "weights",
          "type": "uint256[]"
        },
        {
          "internalType": "uint256",
          "name": "swapFeePercentage",
          "type": "uint256"
        },
        {
          "internalType": "address",
          "name": "manager_",
          "type": "address"
        },
        {
          "internalType": "address",
          "name": "validator_",
          "type": "address"
        },
        {
          "internalType": "uint32",
          "name": "noticePeriod_",
          "type": "uint32"
        },
        {
          "internalType": "string",
          "name": "description_",
          "type": "string"
        }
      ],
      "stateMutability": "nonpayable",
      "type": "constructor"
    },
    {
      "inputs": [
        {
          "internalType": "address",
          "name": "token",
          "type": "address"
        },
        {
          "internalType": "uint256",
          "name": "amount",
          "type": "uint256"
        },
        {
          "internalType": "uint256",
          "name": "available",
          "type": "uint256"
        }
      ],
      "name": "Mammon__AmountExceedAvailable",
      "type": "error"
    },
    {
      "inputs": [
        {
          "internalType": "uint256",
          "name": "actual",
          "type": "uint256"
        },
        {
          "internalType": "uint256",
          "name": "min",
          "type": "uint256"
        }
      ],
      "name": "Mammon__AmountIsBelowMin",
      "type": "error"
    },
    {
      "inputs": [
        {
          "internalType": "uint256",
          "name": "tokenLength",
          "type": "uint256"
        },
        {
          "internalType": "uint256",
          "name": "amountLength",
          "type": "uint256"
        }
      ],
      "name": "Mammon__AmountLengthIsNotSame",
      "type": "error"
    },
    {
      "inputs": [],
      "name": "Mammon__CallerIsNotManager",
      "type": "error"
    },
    {
      "inputs": [],
      "name": "Mammon__CallerIsNotOwnerOrManager",
      "type": "error"
    },
    {
      "inputs": [],
      "name": "Mammon__FinalizationNotInitialized",
      "type": "error"
    },
    {
      "inputs": [],
      "name": "Mammon__ManagerIsZeroAddress",
      "type": "error"
    },
    {
      "inputs": [
        {
          "internalType": "uint256",
          "name": "actual",
          "type": "uint256"
        },
        {
          "internalType": "uint256",
          "name": "max",
          "type": "uint256"
        }
      ],
      "name": "Mammon__NoticePeriodIsAboveMax",
      "type": "error"
    },
    {
      "inputs": [
        {
          "internalType": "uint64",
          "name": "noticeTimeoutAt",
          "type": "uint64"
        }
      ],
      "name": "Mammon__NoticeTimeoutNotElapsed",
      "type": "error"
    },
    {
      "inputs": [
        {
          "internalType": "address",
          "name": "validator",
          "type": "address"
        }
      ],
      "name": "Mammon__ValidatorIsNotValid",
      "type": "error"
    },
    {
      "inputs": [],
      "name": "Mammon__VaultIsAlreadyInitialized",
      "type": "error"
    },
    {
      "inputs": [],
      "name": "Mammon__VaultIsFinalizing",
      "type": "error"
    },
    {
      "inputs": [],
      "name": "Mammon__VaultNotInitialized",
      "type": "error"
    },
    {
      "inputs": [
        {
          "internalType": "uint256",
          "name": "actual",
          "type": "uint256"
        },
        {
          "internalType": "uint256",
          "name": "min",
          "type": "uint256"
        }
      ],
      "name": "Mammon__WeightChangeDurationIsBelowMin",
      "type": "error"
    },
    {
      "inputs": [
        {
          "internalType": "uint256",
          "name": "actual",
          "type": "uint256"
        },
        {
          "internalType": "uint256",
          "name": "max",
          "type": "uint256"
        }
      ],
      "name": "Mammon__WeightIsAboveMax",
      "type": "error"
    },
    {
      "inputs": [
        {
          "internalType": "uint256",
          "name": "actual",
          "type": "uint256"
        },
        {
          "internalType": "uint256",
          "name": "min",
          "type": "uint256"
        }
      ],
      "name": "Mammon__WeightIsBelowMin",
      "type": "error"
    },
    {
      "inputs": [
        {
          "internalType": "uint256",
          "name": "tokenLength",
          "type": "uint256"
        },
        {
          "internalType": "uint256",
          "name": "weightLength",
          "type": "uint256"
        }
      ],
      "name": "Mammon__WeightLengthIsNotSame",
      "type": "error"
    },
    {
      "anonymous": false,
      "inputs": [
        {
          "indexed": true,
          "internalType": "address",
          "name": "factory",
          "type": "address"
        },
        {
          "indexed": false,
          "internalType": "contract IERC20[]",
          "name": "tokens",
          "type": "address[]"
        },
        {
          "indexed": false,
          "internalType": "uint256[]",
          "name": "weights",
          "type": "uint256[]"
        },
        {
          "indexed": false,
          "internalType": "address",
          "name": "manager",
          "type": "address"
        },
        {
          "indexed": false,
          "internalType": "address",
          "name": "validator",
          "type": "address"
        },
        {
          "indexed": false,
          "internalType": "uint32",
          "name": "noticePeriod",
          "type": "uint32"
        },
        {
          "indexed": false,
          "internalType": "string",
          "name": "description",
          "type": "string"
        }
      ],
      "name": "Created",
      "type": "event"
    },
    {
      "anonymous": false,
      "inputs": [
        {
          "indexed": false,
          "internalType": "uint256[]",
          "name": "amounts",
          "type": "uint256[]"
        },
        {
          "indexed": false,
          "internalType": "uint256[]",
          "name": "weights",
          "type": "uint256[]"
        }
      ],
      "name": "Deposit",
      "type": "event"
    },
    {
      "anonymous": false,
      "inputs": [
        {
          "indexed": false,
          "internalType": "uint64",
          "name": "noticeTimeoutAt",
          "type": "uint64"
        }
      ],
      "name": "FinalizationInitialized",
      "type": "event"
    },
    {
      "anonymous": false,
      "inputs": [
        {
          "indexed": true,
          "internalType": "address",
          "name": "caller",
          "type": "address"
        },
        {
          "indexed": false,
          "internalType": "uint256[]",
          "name": "amounts",
          "type": "uint256[]"
        }
      ],
      "name": "Finalized",
      "type": "event"
    },
    {
      "anonymous": false,
      "inputs": [
        {
          "indexed": true,
          "internalType": "address",
          "name": "previousManager",
          "type": "address"
        },
        {
          "indexed": true,
          "internalType": "address",
          "name": "manager",
          "type": "address"
        }
      ],
      "name": "ManagerChanged",
      "type": "event"
    },
    {
      "anonymous": false,
      "inputs": [
        {
          "indexed": true,
          "internalType": "address",
          "name": "previousOwner",
          "type": "address"
        },
        {
          "indexed": true,
          "internalType": "address",
          "name": "newOwner",
          "type": "address"
        }
      ],
      "name": "OwnershipTransferred",
      "type": "event"
    },
    {
      "anonymous": false,
      "inputs": [
        {
          "indexed": false,
          "internalType": "bool",
          "name": "swapEnabled",
          "type": "bool"
        }
      ],
      "name": "SetSwapEnabled",
      "type": "event"
    },
    {
      "anonymous": false,
      "inputs": [
        {
          "indexed": false,
          "internalType": "uint256",
          "name": "swapFee",
          "type": "uint256"
        }
      ],
      "name": "SetSwapFee",
      "type": "event"
    },
    {
      "anonymous": false,
      "inputs": [
        {
          "indexed": false,
          "internalType": "uint256",
          "name": "startTime",
          "type": "uint256"
        },
        {
          "indexed": false,
          "internalType": "uint256",
          "name": "endTime",
          "type": "uint256"
        },
        {
          "indexed": false,
          "internalType": "uint256[]",
          "name": "weights",
          "type": "uint256[]"
        }
      ],
      "name": "UpdateWeightsGradually",
      "type": "event"
    },
    {
      "anonymous": false,
      "inputs": [
        {
          "indexed": false,
          "internalType": "uint256[]",
          "name": "requestedAmounts",
          "type": "uint256[]"
        },
        {
          "indexed": false,
          "internalType": "uint256[]",
          "name": "withdrawnAmounts",
          "type": "uint256[]"
        },
        {
          "indexed": false,
          "internalType": "uint256[]",
          "name": "allowances",
          "type": "uint256[]"
        },
        {
          "indexed": false,
          "internalType": "uint256[]",
          "name": "weights",
          "type": "uint256[]"
        }
      ],
      "name": "Withdraw",
      "type": "event"
    },
    {
      "inputs": [],
      "name": "bVault",
      "outputs": [
        {
          "internalType": "contract IBVault",
          "name": "",
          "type": "address"
        }
      ],
      "stateMutability": "view",
      "type": "function"
    },
    {
      "inputs": [
        {
          "internalType": "uint256[]",
          "name": "amounts",
          "type": "uint256[]"
        }
      ],
      "name": "deposit",
      "outputs": [],
      "stateMutability": "nonpayable",
      "type": "function"
    },
    {
      "inputs": [],
      "name": "description",
      "outputs": [
        {
          "internalType": "string",
          "name": "",
          "type": "string"
        }
      ],
      "stateMutability": "view",
      "type": "function"
    },
    {
      "inputs": [],
      "name": "finalize",
      "outputs": [],
      "stateMutability": "nonpayable",
      "type": "function"
    },
    {
      "inputs": [],
      "name": "getHoldings",
      "outputs": [
        {
          "internalType": "uint256[]",
          "name": "amounts",
          "type": "uint256[]"
        }
      ],
      "stateMutability": "view",
      "type": "function"
    },
    {
      "inputs": [],
      "name": "getNormalizedWeights",
      "outputs": [
        {
          "internalType": "uint256[]",
          "name": "",
          "type": "uint256[]"
        }
      ],
      "stateMutability": "view",
      "type": "function"
    },
    {
      "inputs": [],
      "name": "getPoolId",
      "outputs": [
        {
          "internalType": "bytes32",
          "name": "",
          "type": "bytes32"
        }
      ],
      "stateMutability": "view",
      "type": "function"
    },
    {
      "inputs": [],
      "name": "getSwapFee",
      "outputs": [
        {
          "internalType": "uint256",
          "name": "",
          "type": "uint256"
        }
      ],
      "stateMutability": "view",
      "type": "function"
    },
    {
      "inputs": [],
      "name": "getTokens",
      "outputs": [
        {
          "internalType": "contract IERC20[]",
          "name": "tokens",
          "type": "address[]"
        }
      ],
      "stateMutability": "view",
      "type": "function"
    },
    {
      "inputs": [],
      "name": "getTokensData",
      "outputs": [
        {
          "internalType": "contract IERC20[]",
          "name": "",
          "type": "address[]"
        },
        {
          "internalType": "uint256[]",
          "name": "",
          "type": "uint256[]"
        },
        {
          "internalType": "uint256",
          "name": "",
          "type": "uint256"
        }
      ],
      "stateMutability": "view",
      "type": "function"
    },
    {
      "inputs": [
        {
          "internalType": "uint256",
          "name": "index",
          "type": "uint256"
        }
      ],
      "name": "holding",
      "outputs": [
        {
          "internalType": "uint256",
          "name": "",
          "type": "uint256"
        }
      ],
      "stateMutability": "view",
      "type": "function"
    },
    {
      "inputs": [
        {
          "internalType": "uint256[]",
          "name": "amounts",
          "type": "uint256[]"
        }
      ],
      "name": "initialDeposit",
      "outputs": [],
      "stateMutability": "nonpayable",
      "type": "function"
    },
    {
      "inputs": [],
      "name": "initializeFinalization",
      "outputs": [],
      "stateMutability": "nonpayable",
      "type": "function"
    },
    {
      "inputs": [],
      "name": "initialized",
      "outputs": [
        {
          "internalType": "bool",
          "name": "",
          "type": "bool"
        }
      ],
      "stateMutability": "view",
      "type": "function"
    },
    {
      "inputs": [],
      "name": "isSwapEnabled",
      "outputs": [
        {
          "internalType": "bool",
          "name": "",
          "type": "bool"
        }
      ],
      "stateMutability": "view",
      "type": "function"
    },
    {
      "inputs": [],
      "name": "manager",
      "outputs": [
        {
          "internalType": "address",
          "name": "",
          "type": "address"
        }
      ],
      "stateMutability": "view",
      "type": "function"
    },
    {
      "inputs": [],
      "name": "noticePeriod",
      "outputs": [
        {
          "internalType": "uint32",
          "name": "",
          "type": "uint32"
        }
      ],
      "stateMutability": "view",
      "type": "function"
    },
    {
      "inputs": [],
      "name": "noticeTimeoutAt",
      "outputs": [
        {
          "internalType": "uint64",
          "name": "",
          "type": "uint64"
        }
      ],
      "stateMutability": "view",
      "type": "function"
    },
    {
      "inputs": [],
      "name": "owner",
      "outputs": [
        {
          "internalType": "address",
          "name": "",
          "type": "address"
        }
      ],
      "stateMutability": "view",
      "type": "function"
    },
    {
      "inputs": [],
      "name": "pool",
      "outputs": [
        {
          "internalType": "contract IBManagedPool",
          "name": "",
          "type": "address"
        }
      ],
      "stateMutability": "view",
      "type": "function"
    },
    {
      "inputs": [],
      "name": "renounceOwnership",
      "outputs": [],
      "stateMutability": "nonpayable",
      "type": "function"
    },
    {
      "inputs": [
        {
          "internalType": "address",
          "name": "newManager",
          "type": "address"
        }
      ],
      "name": "setManager",
      "outputs": [],
      "stateMutability": "nonpayable",
      "type": "function"
    },
    {
      "inputs": [
        {
          "internalType": "bool",
          "name": "value",
          "type": "bool"
        }
      ],
      "name": "setSwapEnabled",
      "outputs": [],
      "stateMutability": "nonpayable",
      "type": "function"
    },
    {
      "inputs": [
        {
          "internalType": "uint256",
          "name": "newSwapFee",
          "type": "uint256"
        }
      ],
      "name": "setSwapFee",
      "outputs": [],
      "stateMutability": "nonpayable",
      "type": "function"
    },
    {
      "inputs": [
        {
          "internalType": "address",
          "name": "token",
          "type": "address"
        },
        {
          "internalType": "uint256",
          "name": "amount",
          "type": "uint256"
        }
      ],
      "name": "sweep",
      "outputs": [],
      "stateMutability": "nonpayable",
      "type": "function"
    },
    {
      "inputs": [
        {
          "internalType": "address",
          "name": "newOwner",
          "type": "address"
        }
      ],
      "name": "transferOwnership",
      "outputs": [],
      "stateMutability": "nonpayable",
      "type": "function"
    },
    {
      "inputs": [
        {
          "internalType": "uint256[]",
          "name": "targetWeights",
          "type": "uint256[]"
        },
        {
          "internalType": "uint256",
          "name": "startTime",
          "type": "uint256"
        },
        {
          "internalType": "uint256",
          "name": "endTime",
          "type": "uint256"
        }
      ],
      "name": "updateWeightsGradually",
      "outputs": [],
      "stateMutability": "nonpayable",
      "type": "function"
    },
    {
      "inputs": [],
      "name": "validator",
      "outputs": [
        {
          "internalType": "contract IWithdrawalValidator",
          "name": "",
          "type": "address"
        }
      ],
      "stateMutability": "view",
      "type": "function"
    },
    {
      "inputs": [
        {
          "internalType": "uint256[]",
          "name": "amounts",
          "type": "uint256[]"
        }
      ],
      "name": "withdraw",
      "outputs": [],
      "stateMutability": "nonpayable",
      "type": "function"
    }
  ],
  "transactionHash": "0xe170aa7d24777f4663906598cea628aac40a41ab2f220b0853a52739d0cdc7ba",
  "args": [
    "0xd46eD43509Dd67683f2B756C254445670f0ff565",
    "Mammon",
    "MAMM",
    [
      "0x3C16C121573749Fe5566E1d9cd176a2085b4Ec20",
      "0x51F85fA7cD876997c44760FB94b2a51ba73ABe14"
    ],
    [
      "872736297211384770",
      "127263702788615230"
    ],
    "1000000000000",
    "0x23E2DB566af28810446aF4f001F1929edf6E8841",
    "0x97246142314dc1e20b03c3f9c12432d75425b95e",
    "30",
    "Testing"
  ],
  "solcInputHash": "92382bea342e923ad8943d59102c1a87",
  "bytecode": "0x6101006040523480156200001257600080fd5b5060405162003f0f38038062003f0f8339810160408190526200003591620007fb565b62000040336200037b565b6001805585518751146200007957865186516040516341c786a960e01b8152600481019290925260248201526044015b60405180910390fd5b62000097836337890bfd60e21b620003cb60201b62001d901760201c565b620000c15760405163da5901bb60e01b81526001600160a01b038416600482015260240162000070565b624f1a008263ffffffff161115620000fe5760405163ab850c4160e01b815263ffffffff83166004820152624f1a00602482015260440162000070565b600087516001600160401b038111156200011c576200011c620005f0565b60405190808252806020026020018201604052801562000146578160200160208202803683370190505b50905060005b88518110156200019957308282815181106200016c576200016c62000933565b6001600160a01b039092166020928302919091019091015280620001908162000949565b9150506200014c565b5060405163a7c671eb60e01b81526001600160a01b038c169063a7c671eb90620001dc908d908d908d908d9088908e903090600090600190829060040162000a19565b6020604051808303816000875af1158015620001fc573d6000803e3d6000fd5b505050506040513d601f19601f8201168201806040525081019062000222919062000af8565b6001600160a01b031660a0816001600160a01b0316815250508a6001600160a01b0316638d928af86040518163ffffffff1660e01b8152600401602060405180830381865afa1580156200027a573d6000803e3d6000fd5b505050506040513d601f19601f82011682018060405250810190620002a0919062000af8565b6001600160a01b03908116608052600380546001600160a01b031916878316179055841660e05263ffffffff831660c0528151620002e69060029060208501906200051f565b508a6001600160a01b03167f4849aacb71900195a19f34665b8adbb4a9af2e7761a96bd71b2c0de2200ec47a8989888888886040516200032c9695949392919062000b1f565b60405180910390a26040516001600160a01b038616906000907f605c2dbf762e5f7d60a546d42e7205dcb1b011ebc62a61736a57c9089d3a4350908290a3505050505050505050505062000c0d565b600080546001600160a01b038381166001600160a01b0319831681178455604051919092169283917f8be0079c531659141344cd1fd0a4f28419497f9722a3daafe3b4186f6b6457e09190a35050565b6000620003d883620003f5565b8015620003ec5750620003ec83836200042d565b90505b92915050565b60006200040a826301ffc9a760e01b6200042d565b8015620003ef575062000426826001600160e01b03196200042d565b1592915050565b604080516001600160e01b0319831660248083019190915282518083039091018152604490910182526020810180516001600160e01b03166301ffc9a760e01b179052905160009190829081906001600160a01b03871690617530906200049690869062000b8e565b6000604051808303818686fa925050503d8060008114620004d4576040519150601f19603f3d011682016040523d82523d6000602084013e620004d9565b606091505b5091509150602081511015620004f65760009350505050620003ef565b8180156200051557508080602001905181019062000515919062000bac565b9695505050505050565b8280546200052d9062000bd0565b90600052602060002090601f0160209004810192826200055157600085556200059c565b82601f106200056c57805160ff19168380011785556200059c565b828001600101855582156200059c579182015b828111156200059c5782518255916020019190600101906200057f565b50620005aa929150620005ae565b5090565b5b80821115620005aa5760008155600101620005af565b6001600160a01b0381168114620005db57600080fd5b50565b8051620005eb81620005c5565b919050565b634e487b7160e01b600052604160045260246000fd5b604051601f8201601f191681016001600160401b0381118282101715620006315762000631620005f0565b604052919050565b60005b83811015620006565781810151838201526020016200063c565b8381111562000666576000848401525b50505050565b600082601f8301126200067e57600080fd5b81516001600160401b038111156200069a576200069a620005f0565b620006af601f8201601f191660200162000606565b818152846020838601011115620006c557600080fd5b620006d882602083016020870162000639565b949350505050565b60006001600160401b03821115620006fc57620006fc620005f0565b5060051b60200190565b600082601f8301126200071857600080fd5b81516020620007316200072b83620006e0565b62000606565b82815260059290921b840181019181810190868411156200075157600080fd5b8286015b84811015620007795780516200076b81620005c5565b835291830191830162000755565b509695505050505050565b600082601f8301126200079657600080fd5b81516020620007a96200072b83620006e0565b82815260059290921b84018101918181019086841115620007c957600080fd5b8286015b84811015620007795780518352918301918301620007cd565b805163ffffffff81168114620005eb57600080fd5b6000806000806000806000806000806101408b8d0312156200081c57600080fd5b620008278b620005de565b60208c0151909a506001600160401b03808211156200084557600080fd5b620008538e838f016200066c565b9a5060408d01519150808211156200086a57600080fd5b620008788e838f016200066c565b995060608d01519150808211156200088f57600080fd5b6200089d8e838f0162000706565b985060808d0151915080821115620008b457600080fd5b620008c28e838f0162000784565b975060a08d01519650620008d960c08e01620005de565b9550620008e960e08e01620005de565b9450620008fa6101008e01620007e6565b93506101208d01519150808211156200091257600080fd5b50620009218d828e016200066c565b9150509295989b9194979a5092959850565b634e487b7160e01b600052603260045260246000fd5b60006000198214156200096c57634e487b7160e01b600052601160045260246000fd5b5060010190565b600081518084526200098d81602086016020860162000639565b601f01601f19169290920160200192915050565b600081518084526020808501945080840160005b83811015620009dc5781516001600160a01b031687529582019590820190600101620009b5565b509495945050505050565b600081518084526020808501945080840160005b83811015620009dc57815187529582019590820190600101620009fb565b600061014080835262000a2f8184018e62000973565b905060208382038185015262000a46828e62000973565b9150838203604085015262000a5c828d620009a1565b9150838203606085015262000a72828c620009e7565b84810360808601528a51808252828c0193509082019060005b8181101562000ab25784516001600160a01b03168352938301939183019160010162000a8b565b505060a085018a90526001600160a01b03891660c0860152925062000ad5915050565b93151560e082015291151561010083015261012090910152979650505050505050565b60006020828403121562000b0b57600080fd5b815162000b1881620005c5565b9392505050565b60c08152600062000b3460c0830189620009a1565b828103602084015262000b488189620009e7565b6001600160a01b0388811660408601528716606085015263ffffffff8616608085015283810360a0850152905062000b81818562000973565b9998505050505050505050565b6000825162000ba281846020870162000639565b9190910192915050565b60006020828403121562000bbf57600080fd5b8151801515811462000b1857600080fd5b600181811c9082168062000be557607f821691505b6020821081141562000c0757634e487b7160e01b600052602260045260246000fd5b50919050565b60805160a05160c05160e05161326662000ca9600039600081816102e401526114ac0152600081816103c101526109ed0152600081816102320152818161088501528181610ae001528181610b8401528181610c0d01528181611ac701528181611b8f01528181611d0c01526122d50152600081816102bd015281816106750152818161070401528181611dd9015261214b01526132666000f3fe608060405234801561001057600080fd5b50600436106101cf5760003560e01c8063598b8e7111610104578063aa6ca808116100a2578063d4cadf6811610071578063d4cadf6814610448578063e01af92c14610450578063f2fde38b14610463578063f89f27ed1461047657600080fd5b8063aa6ca808146103f8578063bae930cb1461040d578063d0ebdbe714610420578063d353ac7c1461043357600080fd5b80637284e416116100de5780637284e416146103835780638da5cb5b14610398578063983d95ce146103a95780639b14d4c6146103bc57600080fd5b8063598b8e71146103555780636ea056a914610368578063715018a61461037b57600080fd5b8063351a964d116101715780633a5381b51161014b5780633a5381b5146102df5780634771233b14610306578063481c6a751461033a5780634bb278f31461034d57600080fd5b8063351a964d1461029a57806338fff2d0146102a2578063394b71cf146102b857600080fd5b806316f0115b116101ad57806316f0115b1461022d578063246bc19b1461026c57806324d9ce4b1461027f57806334e199071461028757600080fd5b806308860ee5146101d457806309402ebd146101e9578063158ef93e14610209575b600080fd5b6101e76101e23660046129d1565b61047e565b005b6101f16106fd565b60405161020093929190612a87565b60405180910390f35b60035461021d90600160e01b900460ff1681565b6040519015158152602001610200565b6102547f000000000000000000000000000000000000000000000000000000000000000081565b6040516001600160a01b039091168152602001610200565b6101e761027a366004612abd565b6107a7565b6101e7610935565b6101e7610295366004612b0e565b610a9f565b61021d610b80565b6102aa610c09565b604051908152602001610200565b6102547f000000000000000000000000000000000000000000000000000000000000000081565b6102547f000000000000000000000000000000000000000000000000000000000000000081565b60035461032190600160a01b900467ffffffffffffffff1681565b60405167ffffffffffffffff9091168152602001610200565b600354610254906001600160a01b031681565b6101e7610c8d565b6101e76103633660046129d1565b610e00565b6101e7610376366004612b3c565b6111f5565b6101e7611267565b61038b6112cd565b6040516102009190612bc0565b6000546001600160a01b0316610254565b6101e76103b73660046129d1565b61135b565b6103e37f000000000000000000000000000000000000000000000000000000000000000081565b60405163ffffffff9091168152602001610200565b610400611987565b6040516102009190612bd3565b6102aa61041b366004612b0e565b611999565b6101e761042e366004612be6565b6119c8565b61043b611ab2565b6040516102009190612c03565b6102aa611ac3565b6101e761045e366004612c24565b611b23565b6101e7610471366004612be6565b611c26565b61043b611d08565b6000546001600160a01b031633146104dd5760405162461bcd60e51b815260206004820181905260248201527f4f776e61626c653a2063616c6c6572206973206e6f7420746865206f776e657260448201526064015b60405180910390fd5b600354600160e01b900460ff161561050857604051631ec6430360e31b815260040160405180910390fd5b600380547fffffff00ffffffffffffffffffffffffffffffffffffffffffffffffffffffff16600160e01b1790556000610540611987565b8051909150821461057157805160405163d818ce8360e01b81526004810191909152602481018390526044016104d4565b600080848460405160200161058893929190612c90565b604051602081830303815290604052905060005b82518110156106135760008585838181106105b9576105b9612cb6565b905060200201351115610601576106018382815181106105db576105db612cb6565b60200260200101518686848181106105f5576105f5612cb6565b90506020020135611db5565b8061060b81612ce2565b91505061059c565b506000604051806080016040528084815260200186868080602002602001604051908101604052809392919081815260200183836020028082843760009201829052509385525050506020820185905260409091015290506001600160a01b037f00000000000000000000000000000000000000000000000000000000000000001663b95cac286106a2610c09565b3030856040518563ffffffff1660e01b81526004016106c49493929190612cfd565b600060405180830381600087803b1580156106de57600080fd5b505af11580156106f2573d6000803e3d6000fd5b505050505050505050565b60608060007f00000000000000000000000000000000000000000000000000000000000000006001600160a01b031663f94d4668610739610c09565b6040518263ffffffff1660e01b815260040161075791815260200190565b600060405180830381865afa158015610774573d6000803e3d6000fd5b505050506040513d6000823e601f3d908101601f1916820160405261079c9190810190612e9c565b925092509250909192565b6003546001600160a01b031633146107d257604051634dd4ed5360e01b815260040160405180910390fd5b600354600160e01b900460ff166107fc57604051631888b48f60e31b815260040160405180910390fd5b600354600160a01b900467ffffffffffffffff161561082e576040516395ebdb5f60e01b815260040160405180910390fd5b600161083a8383612f6a565b101561086e5761084a8282612f6a565b604051632f395f7560e01b81526004810191909152600160248201526044016104d4565b604051633e56920560e01b81526001600160a01b037f00000000000000000000000000000000000000000000000000000000000000001690633e569205906108c0908590859089908990600401612f81565b600060405180830381600087803b1580156108da57600080fd5b505af11580156108ee573d6000803e3d6000fd5b505050507f10d2cebdbfcb912ca22f107e18eadc260a534609e13140deac4568a732171826828286866040516109279493929190612f81565b60405180910390a150505050565b6000546001600160a01b0316331461098f5760405162461bcd60e51b815260206004820181905260248201527f4f776e61626c653a2063616c6c6572206973206e6f7420746865206f776e657260448201526064016104d4565b600354600160e01b900460ff166109b957604051631888b48f60e31b815260040160405180910390fd5b600354600160a01b900467ffffffffffffffff16156109eb576040516395ebdb5f60e01b815260040160405180910390fd5b7f000000000000000000000000000000000000000000000000000000000000000063ffffffff16610a1b42611dfe565b610a259190612fa1565b600380547fffffffff0000000000000000ffffffffffffffffffffffffffffffffffffffff16600160a01b67ffffffffffffffff93841681029190911791829055604051910490911681527f33e822f2bda8444368b3567e3bdbb01de7d80f64a774c929d9f2e7e9b281adc39060200160405180910390a1565b6003546001600160a01b03163314610aca57604051634dd4ed5360e01b815260040160405180910390fd5b604051631c74c91760e11b8152600481018290527f00000000000000000000000000000000000000000000000000000000000000006001600160a01b0316906338e9922e90602401600060405180830381600087803b158015610b2c57600080fd5b505af1158015610b40573d6000803e3d6000fd5b505050507fcda74150def0ede554aff5f677be9df0e226fddff9bd9ceddf732b9673b1c92d81604051610b7591815260200190565b60405180910390a150565b60007f00000000000000000000000000000000000000000000000000000000000000006001600160a01b03166347bc4d926040518163ffffffff1660e01b8152600401602060405180830381865afa158015610be0573d6000803e3d6000fd5b505050506040513d601f19601f82011682018060405250810190610c049190612fcd565b905090565b60007f00000000000000000000000000000000000000000000000000000000000000006001600160a01b03166338fff2d06040518163ffffffff1660e01b8152600401602060405180830381865afa158015610c69573d6000803e3d6000fd5b505050506040513d601f19601f82011682018060405250810190610c049190612fea565b60026001541415610ce05760405162461bcd60e51b815260206004820152601f60248201527f5265656e7472616e637947756172643a207265656e7472616e742063616c6c0060448201526064016104d4565b60026001556000546001600160a01b03163314801590610d0b57506003546001600160a01b03163314155b15610d2957604051637849279f60e01b815260040160405180910390fd5b600354600160a01b900467ffffffffffffffff16610d5a57604051630ce728a360e21b815260040160405180910390fd5b60035442600160a01b90910467ffffffffffffffff161115610da55760035460405163074cec0760e01b8152600160a01b90910467ffffffffffffffff1660048201526024016104d4565b6000610daf611e82565b9050336001600160a01b03167fdc2a54875b2c12c509c49d8497fade5643d0547ce751bae768b9e9ae8c64748082604051610dea9190612c03565b60405180910390a26000546001600160a01b0316ff5b60026001541415610e535760405162461bcd60e51b815260206004820152601f60248201527f5265656e7472616e637947756172643a207265656e7472616e742063616c6c0060448201526064016104d4565b60026001556000546001600160a01b03163314610eb25760405162461bcd60e51b815260206004820181905260248201527f4f776e61626c653a2063616c6c6572206973206e6f7420746865206f776e657260448201526064016104d4565b600354600160e01b900460ff16610edc57604051631888b48f60e31b815260040160405180910390fd5b600354600160a01b900467ffffffffffffffff1615610f0e576040516395ebdb5f60e01b815260040160405180910390fd5b606080610f196106fd565b50815191935091508314610f4d57815160405163d818ce8360e01b81526004810191909152602481018490526044016104d4565b6000610f57611d08565b90506000835167ffffffffffffffff811115610f7557610f75612dd1565b604051908082528060200260200182016040528015610f9e578160200160208202803683370190505b5090506000805b8681101561111d576000888883818110610fc157610fc1612cb6565b9050602002013511156110ab57610ffd868281518110610fe357610fe3612cb6565b60200260200101518989848181106105f5576105f5612cb6565b600088888381811061101157611011612cb6565b9050602002013586838151811061102a5761102a612cb6565b602002602001015161103c9190613003565b905085828151811061105057611050612cb6565b60200260200101518186848151811061106b5761106b612cb6565b602002602001015161107d919061301b565b611087919061303a565b84838151811061109957611099612cb6565b602002602001018181525050506110e4565b8381815181106110bd576110bd612cb6565b60200260200101518382815181106110d7576110d7612cb6565b6020026020010181815250505b8281815181106110f6576110f6612cb6565b6020026020010151826111099190613003565b91508061111581612ce2565b915050610fa5565b5061115d87878080602002602001604051908101604052809392919081815260200183836020028082843760009201919091525060029250611f97915050565b61119c87878080602002602001604051908101604052809392919081815260200183836020028082843760009201919091525060019250611f97915050565b6111a68282612180565b7fb673307357ce73f37debd138bc7e0def885c66e3655139e701362d43243bb9a087876111d1611d08565b6040516111e09392919061305c565b60405180910390a15050600180555050505050565b6000546001600160a01b0316331461124f5760405162461bcd60e51b815260206004820181905260248201527f4f776e61626c653a2063616c6c6572206973206e6f7420746865206f776e657260448201526064016104d4565b6112636001600160a01b038316338361230e565b5050565b6000546001600160a01b031633146112c15760405162461bcd60e51b815260206004820181905260248201527f4f776e61626c653a2063616c6c6572206973206e6f7420746865206f776e657260448201526064016104d4565b6112cb600061238b565b565b600280546112da90613082565b80601f016020809104026020016040519081016040528092919081815260200182805461130690613082565b80156113535780601f1061132857610100808354040283529160200191611353565b820191906000526020600020905b81548152906001019060200180831161133657829003601f168201915b505050505081565b600260015414156113ae5760405162461bcd60e51b815260206004820152601f60248201527f5265656e7472616e637947756172643a207265656e7472616e742063616c6c0060448201526064016104d4565b60026001556000546001600160a01b0316331461140d5760405162461bcd60e51b815260206004820181905260248201527f4f776e61626c653a2063616c6c6572206973206e6f7420746865206f776e657260448201526064016104d4565b600354600160e01b900460ff1661143757604051631888b48f60e31b815260040160405180910390fd5b600354600160a01b900467ffffffffffffffff1615611469576040516395ebdb5f60e01b815260040160405180910390fd5b6060806114746106fd565b508151919350915083146114a857815160405163d818ce8360e01b81526004810191909152602481018490526044016104d4565b60007f00000000000000000000000000000000000000000000000000000000000000006001600160a01b031663de242ff46040518163ffffffff1660e01b8152600401600060405180830381865afa158015611508573d6000803e3d6000fd5b505050506040513d6000823e601f3d908101601f1916820160405261153091908101906130bd565b9050600061153c611d08565b90506000845167ffffffffffffffff81111561155a5761155a612dd1565b604051908082528060200260200182016040528015611583578160200160208202803683370190505b50905060005b85518110156116c2578481815181106115a4576115a4612cb6565b60200260200101518888838181106115be576115be612cb6565b90506020020135118061160157508381815181106115de576115de612cb6565b60200260200101518888838181106115f8576115f8612cb6565b90506020020135115b156116b05785818151811061161857611618612cb6565b602002602001015188888381811061163257611632612cb6565b9050602002013561167e86848151811061164e5761164e612cb6565b602002602001015188858151811061166857611668612cb6565b60200260200101516123e890919063ffffffff16565b60405163105cd7d760e01b81526001600160a01b039093166004840152602483019190915260448201526064016104d4565b806116ba81612ce2565b915050611589565b506000855167ffffffffffffffff8111156116df576116df612dd1565b604051908082528060200260200182016040528015611708578160200160208202803683370190505b50905061174788888080602002602001604051908101604052809392919081815260200183836020028082843760009201829052509250611f97915050565b611752816002611f97565b60008767ffffffffffffffff81111561176d5761176d612dd1565b604051908082528060200260200182016040528015611796578160200160208202803683370190505b5090506000805b898110156119265760008b8b838181106117b9576117b9612cb6565b9050602002013511156118b4576117e88982815181106117db576117db612cb6565b60200260200101516123fe565b8382815181106117fa576117fa612cb6565b60200260200101818152505060008b8b8381811061181a5761181a612cb6565b9050602002013589838151811061183357611833612cb6565b60200260200101516118459190612f6a565b905088828151811061185957611859612cb6565b60200260200101518188848151811061187457611874612cb6565b6020026020010151611886919061301b565b611890919061303a565b8683815181106118a2576118a2612cb6565b602002602001018181525050506118ed565b8581815181106118c6576118c6612cb6565b60200260200101518582815181106118e0576118e0612cb6565b6020026020010181815250505b8481815181106118ff576118ff612cb6565b6020026020010151826119129190613003565b91508061191e81612ce2565b91505061179d565b506119318482612180565b7f19b6b36dbef13cbe025e192eee2e5528d4a90ac8ce2b7519c5f527ea9803ee5e8a8a848961195e611d08565b60405161196f9594939291906130fa565b60405180910390a15050600180555050505050505050565b60606119916106fd565b509092915050565b6000806119a4611ab2565b90508083815181106119b8576119b8612cb6565b6020026020010151915050919050565b6000546001600160a01b03163314611a225760405162461bcd60e51b815260206004820181905260248201527f4f776e61626c653a2063616c6c6572206973206e6f7420746865206f776e657260448201526064016104d4565b6001600160a01b038116611a4957604051633ce7a14160e11b815260040160405180910390fd5b6003546040516001600160a01b038084169216907f605c2dbf762e5f7d60a546d42e7205dcb1b011ebc62a61736a57c9089d3a435090600090a36003805473ffffffffffffffffffffffffffffffffffffffff19166001600160a01b0392909216919091179055565b6060611abc6106fd565b5092915050565b60007f00000000000000000000000000000000000000000000000000000000000000006001600160a01b03166355c676286040518163ffffffff1660e01b8152600401602060405180830381865afa158015610c69573d6000803e3d6000fd5b6003546001600160a01b03163314611b4e57604051634dd4ed5360e01b815260040160405180910390fd5b600354600160e01b900460ff16611b7857604051631888b48f60e31b815260040160405180910390fd5b604051633806be4b60e21b815281151560048201527f00000000000000000000000000000000000000000000000000000000000000006001600160a01b03169063e01af92c90602401600060405180830381600087803b158015611bdb57600080fd5b505af1158015611bef573d6000803e3d6000fd5b505050507f8bcc108c7d867d0a70433f71ecba3056c4dcc48eaabe4ca987f9fb1f836091d581604051610b75911515815260200190565b6000546001600160a01b03163314611c805760405162461bcd60e51b815260206004820181905260248201527f4f776e61626c653a2063616c6c6572206973206e6f7420746865206f776e657260448201526064016104d4565b6001600160a01b038116611cfc5760405162461bcd60e51b815260206004820152602660248201527f4f776e61626c653a206e6577206f776e657220697320746865207a65726f206160448201527f646472657373000000000000000000000000000000000000000000000000000060648201526084016104d4565b611d058161238b565b50565b60607f00000000000000000000000000000000000000000000000000000000000000006001600160a01b031663f89f27ed6040518163ffffffff1660e01b8152600401600060405180830381865afa158015611d68573d6000803e3d6000fd5b505050506040513d6000823e601f3d908101601f19168201604052610c0491908101906130bd565b6000611d9b83612484565b8015611dac5750611dac83836124b7565b90505b92915050565b611dca6001600160a01b0383163330846125b5565b6112636001600160a01b0383167f0000000000000000000000000000000000000000000000000000000000000000836125f3565b600067ffffffffffffffff821115611e7e5760405162461bcd60e51b815260206004820152602660248201527f53616665436173743a2076616c756520646f65736e27742066697420696e203660448201527f342062697473000000000000000000000000000000000000000000000000000060648201526084016104d4565b5090565b60606000611e8e611ab2565b90506000611e9a611987565b90506000815167ffffffffffffffff811115611eb857611eb8612dd1565b604051908082528060200260200182016040528015611ee1578160200160208202803683370190505b509050611eef836000611f97565b611efa816002611f97565b815167ffffffffffffffff811115611f1457611f14612dd1565b604051908082528060200260200182016040528015611f3d578160200160208202803683370190505b50935060005b8251811015611f9057611f618382815181106117db576117db612cb6565b858281518110611f7357611f73612cb6565b602090810291909101015280611f8881612ce2565b915050611f43565b5050505090565b6000825167ffffffffffffffff811115611fb357611fb3612dd1565b60405190808252806020026020018201604052801561200557816020015b604080516080810182526000808252602080830182905292820181905260608201528252600019909201910181611fd15790505b5090506000612012610c09565b9050600061201e611987565b905060005b8351811015612133578484828151811061203f5761203f612cb6565b602002602001015160000190600281111561205c5761205c613154565b9081600281111561206f5761206f613154565b815250508284828151811061208657612086612cb6565b602002602001015160200181815250508181815181106120a8576120a8612cb6565b60200260200101518482815181106120c2576120c2612cb6565b6020026020010151604001906001600160a01b031690816001600160a01b0316815250508581815181106120f8576120f8612cb6565b602002602001015184828151811061211257612112612cb6565b6020908102919091010151606001528061212b81612ce2565b915050612023565b50604051637362304960e11b81526001600160a01b037f0000000000000000000000000000000000000000000000000000000000000000169063e6c46092906106c490869060040161316a565b6000825167ffffffffffffffff81111561219c5761219c612dd1565b6040519080825280602002602001820160405280156121c5578160200160208202803683370190505b5090506000805b84518110156122645783670de0b6b3a76400008683815181106121f1576121f1612cb6565b6020026020010151612203919061301b565b61220d919061303a565b83828151811061221f5761221f612cb6565b60200260200101818152505082818151811061223d5761223d612cb6565b6020026020010151826122509190613003565b91508061225c81612ce2565b9150506121cc565b5080670de0b6b3a76400008360008151811061228257612282612cb6565b60200260200101516122949190613003565b61229e9190612f6a565b826000815181106122b1576122b1612cb6565b6020908102919091010152604051633e56920560e01b815242906001600160a01b037f00000000000000000000000000000000000000000000000000000000000000001690633e569205906106c4908490819088906004016131f5565b6040516001600160a01b03831660248201526044810182905261238690849063a9059cbb60e01b906064015b60408051601f198184030181529190526020810180517bffffffffffffffffffffffffffffffffffffffffffffffffffffffff166001600160e01b03199093169290921790915261270f565b505050565b600080546001600160a01b0383811673ffffffffffffffffffffffffffffffffffffffff19831681178455604051919092169283917f8be0079c531659141344cd1fd0a4f28419497f9722a3daafe3b4186f6b6457e09190a35050565b60008183106123f75781611dac565b5090919050565b6040516370a0823160e01b81523060048201526000906001600160a01b038316906370a0823190602401602060405180830381865afa158015612445573d6000803e3d6000fd5b505050506040513d601f19601f820116820180604052508101906124699190612fea565b905061247f6001600160a01b038316338361230e565b919050565b6000612497826301ffc9a760e01b6124b7565b8015611daf57506124b0826001600160e01b03196124b7565b1592915050565b604080516001600160e01b0319831660248083019190915282518083039091018152604490910182526020810180517bffffffffffffffffffffffffffffffffffffffffffffffffffffffff166301ffc9a760e01b179052905160009190829081906001600160a01b0387169061753090612533908690613214565b6000604051808303818686fa925050503d806000811461256f576040519150601f19603f3d011682016040523d82523d6000602084013e612574565b606091505b509150915060208151101561258f5760009350505050611daf565b8180156125ab5750808060200190518101906125ab9190612fcd565b9695505050505050565b6040516001600160a01b03808516602483015283166044820152606481018290526125ed9085906323b872dd60e01b9060840161233a565b50505050565b80158061266d5750604051636eb1769f60e11b81523060048201526001600160a01b03838116602483015284169063dd62ed3e90604401602060405180830381865afa158015612647573d6000803e3d6000fd5b505050506040513d601f19601f8201168201806040525081019061266b9190612fea565b155b6126df5760405162461bcd60e51b815260206004820152603660248201527f5361666545524332303a20617070726f76652066726f6d206e6f6e2d7a65726f60448201527f20746f206e6f6e2d7a65726f20616c6c6f77616e63650000000000000000000060648201526084016104d4565b6040516001600160a01b03831660248201526044810182905261238690849063095ea7b360e01b9060640161233a565b6000612764826040518060400160405280602081526020017f5361666545524332303a206c6f772d6c6576656c2063616c6c206661696c6564815250856001600160a01b03166127f49092919063ffffffff16565b80519091501561238657808060200190518101906127829190612fcd565b6123865760405162461bcd60e51b815260206004820152602a60248201527f5361666545524332303a204552433230206f7065726174696f6e20646964206e60448201527f6f7420737563636565640000000000000000000000000000000000000000000060648201526084016104d4565b6060612803848460008561280d565b90505b9392505050565b6060824710156128855760405162461bcd60e51b815260206004820152602660248201527f416464726573733a20696e73756666696369656e742062616c616e636520666f60448201527f722063616c6c000000000000000000000000000000000000000000000000000060648201526084016104d4565b843b6128d35760405162461bcd60e51b815260206004820152601d60248201527f416464726573733a2063616c6c20746f206e6f6e2d636f6e747261637400000060448201526064016104d4565b600080866001600160a01b031685876040516128ef9190613214565b60006040518083038185875af1925050503d806000811461292c576040519150601f19603f3d011682016040523d82523d6000602084013e612931565b606091505b509150915061294182828661294c565b979650505050505050565b6060831561295b575081612806565b82511561296b5782518084602001fd5b8160405162461bcd60e51b81526004016104d49190612bc0565b60008083601f84011261299757600080fd5b50813567ffffffffffffffff8111156129af57600080fd5b6020830191508360208260051b85010111156129ca57600080fd5b9250929050565b600080602083850312156129e457600080fd5b823567ffffffffffffffff8111156129fb57600080fd5b612a0785828601612985565b90969095509350505050565b600081518084526020808501945080840160005b83811015612a4c5781516001600160a01b031687529582019590820190600101612a27565b509495945050505050565b600081518084526020808501945080840160005b83811015612a4c57815187529582019590820190600101612a6b565b606081526000612a9a6060830186612a13565b8281036020840152612aac8186612a57565b915050826040830152949350505050565b60008060008060608587031215612ad357600080fd5b843567ffffffffffffffff811115612aea57600080fd5b612af687828801612985565b90989097506020870135966040013595509350505050565b600060208284031215612b2057600080fd5b5035919050565b6001600160a01b0381168114611d0557600080fd5b60008060408385031215612b4f57600080fd5b8235612b5a81612b27565b946020939093013593505050565b60005b83811015612b83578181015183820152602001612b6b565b838111156125ed5750506000910152565b60008151808452612bac816020860160208601612b68565b601f01601f19169290920160200192915050565b602081526000611dac6020830184612b94565b602081526000611dac6020830184612a13565b600060208284031215612bf857600080fd5b813561280681612b27565b602081526000611dac6020830184612a57565b8015158114611d0557600080fd5b600060208284031215612c3657600080fd5b813561280681612c16565b81835260007f07ffffffffffffffffffffffffffffffffffffffffffffffffffffffffffffff831115612c7357600080fd5b8260051b8083602087013760009401602001938452509192915050565b60ff84168152604060208201526000612cad604083018486612c41565b95945050505050565b634e487b7160e01b600052603260045260246000fd5b634e487b7160e01b600052601160045260246000fd5b6000600019821415612cf657612cf6612ccc565b5060010190565b848152600060206001600160a01b03808716828501528086166040850152506080606084015261010083018451608080860152818151808452610120870191508483019350600092505b80831015612d725783516001600160a01b031682526020820191508484019350600183019250612d47565b50838701519350607f199250828682030160a0870152612d928185612a57565b935050506040850151818584030160c0860152612daf8382612b94565b925050506060840151612dc660e085018215159052565b509695505050505050565b634e487b7160e01b600052604160045260246000fd5b604051601f8201601f1916810167ffffffffffffffff81118282101715612e1057612e10612dd1565b604052919050565b600067ffffffffffffffff821115612e3257612e32612dd1565b5060051b60200190565b600082601f830112612e4d57600080fd5b81516020612e62612e5d83612e18565b612de7565b82815260059290921b84018101918181019086841115612e8157600080fd5b8286015b84811015612dc65780518352918301918301612e85565b600080600060608486031215612eb157600080fd5b835167ffffffffffffffff80821115612ec957600080fd5b818601915086601f830112612edd57600080fd5b81516020612eed612e5d83612e18565b82815260059290921b8401810191818101908a841115612f0c57600080fd5b948201945b83861015612f33578551612f2481612b27565b82529482019490820190612f11565b91890151919750909350505080821115612f4c57600080fd5b50612f5986828701612e3c565b925050604084015190509250925092565b600082821015612f7c57612f7c612ccc565b500390565b8481528360208201526060604082015260006125ab606083018486612c41565b600067ffffffffffffffff808316818516808303821115612fc457612fc4612ccc565b01949350505050565b600060208284031215612fdf57600080fd5b815161280681612c16565b600060208284031215612ffc57600080fd5b5051919050565b6000821982111561301657613016612ccc565b500190565b600081600019048311821515161561303557613035612ccc565b500290565b60008261305757634e487b7160e01b600052601260045260246000fd5b500490565b604081526000613070604083018587612c41565b82810360208401526125ab8185612a57565b600181811c9082168061309657607f821691505b602082108114156130b757634e487b7160e01b600052602260045260246000fd5b50919050565b6000602082840312156130cf57600080fd5b815167ffffffffffffffff8111156130e657600080fd5b6130f284828501612e3c565b949350505050565b60808152600061310e608083018789612c41565b82810360208401526131208187612a57565b905082810360408401526131348186612a57565b905082810360608401526131488185612a57565b98975050505050505050565b634e487b7160e01b600052602160045260246000fd5b60208082528251828201819052600091906040908185019086840185805b838110156131e75782518051600381106131b057634e487b7160e01b84526021600452602484fd5b86528088015188870152868101516001600160a01b0316878701526060908101519086015260809094019391860191600101613188565b509298975050505050505050565b838152826020820152606060408201526000612cad6060830184612a57565b60008251613226818460208701612b68565b919091019291505056fea26469706673582212200a86be66281b9b9277a199106ea848498c71695e6e51a5a214c7bab26d556e6864736f6c634300080b0033",
  "devdoc": {
    "details": "Vault owner is the asset owner.",
    "events": {
      "Created(address,address[],uint256[],address,address,uint32,string)": {
        "params": {
          "description": "Vault description.",
          "factory": "Address of Balancer Managed Pool factory.",
          "manager": "Address of vault manager.",
          "noticePeriod": "Notice period in seconds.",
          "tokens": "Address of tokens.",
          "validator": "Address of withdrawal validator contract",
          "weights": "Weights of tokens."
        }
      },
      "Deposit(uint256[],uint256[])": {
        "params": {
          "amounts": "Amounts of tokens.",
          "weights": "Weights of tokens after deposit."
        }
      },
      "FinalizationInitialized(uint64)": {
        "params": {
          "noticeTimeoutAt": "Timestamp for notice timeout."
        }
      },
      "Finalized(address,uint256[])": {
        "params": {
          "amounts": "Returned amount of tokens.",
          "caller": "Address of finalizer."
        }
      },
      "ManagerChanged(address,address)": {
        "params": {
          "manager": "Address of a new manager.",
          "previousManager": "Address of previous manager."
        }
      },
      "SetSwapEnabled(bool)": {
        "params": {
          "swapEnabled": "New state of swap."
        }
      },
      "SetSwapFee(uint256)": {
        "params": {
          "swapFee": "New swap fee."
        }
      },
      "UpdateWeightsGradually(uint256,uint256,uint256[])": {
        "params": {
          "endTime": "End timestamp of updates.",
          "startTime": "Start timestamp of updates.",
          "weights": "The target weights of the tokens."
        }
      },
      "Withdraw(uint256[],uint256[],uint256[],uint256[])": {
        "params": {
          "allowances": "Allowance of tokens.",
          "requestedAmounts": "Requested amount of tokens.",
          "weights": "Weight of tokens after withdrawal.",
          "withdrawnAmounts": "Withdrawn amount of tokens."
        }
      }
    },
    "kind": "dev",
    "methods": {
      "constructor": {
        "details": "First token and second token shouldn't be same. Validator should conform to interface.",
        "params": {
          "description_": "Vault text description. Keep it short and simple, please.",
          "factory": "Balancer Managed Pool Factory address.",
          "manager_": "Vault manager address.",
          "name": "Name of a Pool Token.",
          "noticePeriod_": "Notice period in seconds.",
          "swapFeePercentage": "Swap fee of the pool.",
          "symbol": "Symbol of a Pool Token.",
          "tokens": "Address of tokens.",
          "validator_": "Withdrawal validator contract address."
        }
      },
      "deposit(uint256[])": {
        "params": {
          "amounts": "Amount to deposit of tokens."
        }
      },
      "getHoldings()": {
        "returns": {
          "amounts": "Token balances in underlying pool"
        }
      },
      "getNormalizedWeights()": {
        "returns": {
          "_0": "Normalized weights of tokens on Balancer pool."
        }
      },
      "getPoolId()": {
        "returns": {
          "_0": "Pool ID of Balancer pool on Vault."
        }
      },
      "getSwapFee()": {
        "returns": {
          "_0": "Swap fee from underlying Balancer pool."
        }
      },
      "getTokens()": {
        "returns": {
          "tokens": "IERC20 tokens of Balancer pool."
        }
      },
      "getTokensData()": {
        "returns": {
          "_0": "IERC20 tokens of Balancer pool.",
          "_1": "Balances of tokens of Balancer pool.",
          "_2": "Last updated Blocknumber."
        }
      },
      "holding(uint256)": {
        "returns": {
          "_0": "Token balance in underlying pool"
        }
      },
      "initialDeposit(uint256[])": {
        "details": "Initial deposit must be performed before      calling withdraw() or deposit() functions.",
        "params": {
          "amounts": "Deposit amount of tokens."
        }
      },
      "isSwapEnabled()": {
        "returns": {
          "_0": "If public swap is turned on, returns true, otherwise false."
        }
      },
      "owner()": {
        "details": "Returns the address of the current owner."
      },
      "renounceOwnership()": {
        "details": "Leaves the contract without owner. It will not be possible to call `onlyOwner` functions anymore. Can only be called by the current owner. NOTE: Renouncing ownership will leave the contract without an owner, thereby removing any functionality that is only available to the owner."
      },
      "setSwapEnabled(bool)": {
        "params": {
          "value": "New state of swap."
        }
      },
      "transferOwnership(address)": {
        "details": "Transfers ownership of the contract to a new account (`newOwner`). Can only be called by the current owner."
      },
      "updateWeightsGradually(uint256[],uint256,uint256)": {
        "params": {
          "endTime": "Timestamp at when the weights should reach target.",
          "startTime": "Timestamp at when weight movement starts.",
          "targetWeights": "Target weights of tokens."
        }
      },
      "withdraw(uint256[])": {
        "params": {
          "amounts": "Requested amount of tokens."
        }
      }
    },
    "stateVariables": {
      "UNSET_MANAGER_ADDRESS": {
        "details": "Address to represent unset manager in events."
      },
      "description": {
        "details": "string cannot be immutable bytecode but only set in constructor"
      }
    },
    "title": "Risk-managed treasury vault.",
    "version": 1
  },
  "userdoc": {
    "errors": {
      "Mammon__WeightLengthIsNotSame(uint256,uint256)": [
        {
          "notice": "ERRORS ///"
        }
      ]
    },
    "events": {
      "Created(address,address[],uint256[],address,address,uint32,string)": {
        "notice": "Emitted when the vault is created."
      },
      "Deposit(uint256[],uint256[])": {
        "notice": "Emitted when tokens are deposited."
      },
      "FinalizationInitialized(uint64)": {
        "notice": "Emitted when initializeFinalization is called."
      },
      "Finalized(address,uint256[])": {
        "notice": "Emitted when vault is finalized."
      },
      "ManagerChanged(address,address)": {
        "notice": "Emitted when manager is changed."
      },
      "SetSwapEnabled(bool)": {
        "notice": "Emitted when swap is enabled/disabled."
      },
      "SetSwapFee(uint256)": {
        "notice": "Emitted when swap fee is updated."
      },
      "UpdateWeightsGradually(uint256,uint256,uint256[])": {
        "notice": "Emitted when updateWeightsGradually is called."
      },
      "Withdraw(uint256[],uint256[],uint256[],uint256[])": {
        "notice": "Emitted when tokens are withdrawn."
      }
    },
    "kind": "user",
    "methods": {
      "bVault()": {
        "notice": "Balancer Vault. Controlled by Mammon Vault."
      },
      "constructor": {
        "notice": "Initialize the contract by deploying new Balancer pool using the provided factory."
      },
      "deposit(uint256[])": {
        "notice": "Deposit tokens into vault."
      },
      "description()": {
        "notice": "STORAGE SLOT START ///Describes vault purpose and modelling assumptions for differentiating between vaults"
      },
      "finalize()": {
        "notice": "Destroy vault and returns all funds to treasury owner."
      },
      "getHoldings()": {
        "notice": "Balance of the tokens"
      },
      "getNormalizedWeights()": {
        "notice": "Get token weights."
      },
      "getPoolId()": {
        "notice": "Get Pool ID."
      },
      "getSwapFee()": {
        "notice": "Get swap fee."
      },
      "getTokens()": {
        "notice": "Get IERC20 Tokens Balancer Pool."
      },
      "getTokensData()": {
        "notice": "Get Token Data of Balancer Pool."
      },
      "holding(uint256)": {
        "notice": "Balance of the token with index"
      },
      "initialDeposit(uint256[])": {
        "notice": "Initialize Vault with first deposit."
      },
      "initializeFinalization()": {
        "notice": "Initiate vault destruction and return all funds to treasury owner."
      },
      "initialized()": {
        "notice": "Indicates that the Vault has been initialized"
      },
      "isSwapEnabled()": {
        "notice": "Check if vault trading is enabled."
      },
      "manager()": {
        "notice": "Submits new balance parameters for the vault"
      },
      "noticePeriod()": {
        "notice": "Notice period for vault termination (in seconds)."
      },
      "noticeTimeoutAt()": {
        "notice": "Timestamp when notice elapses or 0 if not yet set"
      },
      "pool()": {
        "notice": "Balancer pool. Controlled by the Balancer vault."
      },
      "setManager(address)": {
        "notice": "Change manager."
      },
      "setSwapEnabled(bool)": {
        "notice": "Enable or disable swap."
      },
      "setSwapFee(uint256)": {
        "notice": "Change swap fee."
      },
      "sweep(address,uint256)": {
        "notice": "Withdraw any tokens accidentally sent to vault."
      },
      "updateWeightsGradually(uint256[],uint256,uint256)": {
        "notice": "Initiate weight move to target in given update window."
      },
      "validator()": {
        "notice": "Verifies withdraw limits."
      },
      "withdraw(uint256[])": {
        "notice": "Withdraw tokens up to requested amounts."
      }
    },
    "notice": "Managed n-asset vault that supports withdrawals         in line with a pre-defined validator contract.",
    "version": 1
  },
  "storageLayout": {
    "storage": [
      {
        "astId": 4450,
        "contract": "contracts/MammonVaultV1.sol:MammonVaultV1",
        "label": "_owner",
        "offset": 0,
        "slot": "0",
        "type": "t_address"
      },
      {
        "astId": 4650,
        "contract": "contracts/MammonVaultV1.sol:MammonVaultV1",
        "label": "_status",
        "offset": 0,
        "slot": "1",
        "type": "t_uint256"
      },
      {
        "astId": 70,
        "contract": "contracts/MammonVaultV1.sol:MammonVaultV1",
        "label": "description",
        "offset": 0,
        "slot": "2",
        "type": "t_string_storage"
      },
      {
        "astId": 73,
        "contract": "contracts/MammonVaultV1.sol:MammonVaultV1",
        "label": "manager",
        "offset": 0,
        "slot": "3",
        "type": "t_address"
      },
      {
        "astId": 76,
        "contract": "contracts/MammonVaultV1.sol:MammonVaultV1",
        "label": "noticeTimeoutAt",
        "offset": 20,
        "slot": "3",
        "type": "t_uint64"
      },
      {
        "astId": 79,
        "contract": "contracts/MammonVaultV1.sol:MammonVaultV1",
        "label": "initialized",
        "offset": 28,
        "slot": "3",
        "type": "t_bool"
      }
    ],
    "types": {
      "t_address": {
        "encoding": "inplace",
        "label": "address",
        "numberOfBytes": "20"
      },
      "t_bool": {
        "encoding": "inplace",
        "label": "bool",
        "numberOfBytes": "1"
      },
      "t_string_storage": {
        "encoding": "bytes",
        "label": "string",
        "numberOfBytes": "32"
      },
      "t_uint256": {
        "encoding": "inplace",
        "label": "uint256",
        "numberOfBytes": "32"
      },
      "t_uint64": {
        "encoding": "inplace",
        "label": "uint64",
        "numberOfBytes": "8"
      }
    }
  }
}