{
  "address": "0x97246142314dc1E20B03C3F9C12432D75425B95e",
  "abi": [
    {
      "inputs": [],
      "name": "ANY_AMOUNT",
      "outputs": [
        {
          "internalType": "uint256",
          "name": "",
          "type": "uint256"
        }
      ],
      "stateMutability": "view",
      "type": "function"
    },
    {
      "inputs": [],
      "name": "allowance",
      "outputs": [
        {
          "internalType": "uint256",
          "name": "",
          "type": "uint256"
        },
        {
          "internalType": "uint256",
          "name": "",
          "type": "uint256"
        }
      ],
      "stateMutability": "pure",
      "type": "function"
    },
    {
      "inputs": [
        {
          "internalType": "bytes4",
          "name": "interfaceId",
          "type": "bytes4"
        }
      ],
      "name": "supportsInterface",
      "outputs": [
        {
          "internalType": "bool",
          "name": "",
          "type": "bool"
        }
      ],
      "stateMutability": "view",
      "type": "function"
    }
  ],
  "transactionHash": "0x33009da176c778f38f03b277e918b2c307a67a96dacd9e60b9ecab54f849895d",
  "args": [],
  "solcInputHash": "412f88d411f4c9b909904c184d2ce679",
  "bytecode": "0x608060405234801561001057600080fd5b50610100806100206000396000f3fe6080604052348015600f57600080fd5b5060043610603c5760003560e01c806301ffc9a7146041578063b666bc5a146065578063de242ff414607a575b600080fd5b6050604c36600460c4565b608e565b60405190151581526020015b60405180910390f35b606d60001981565b604051908152602001605c565b60408051600019808252602082015201605c565b60006001600160e01b031982166337890bfd60e21b148060be57506301ffc9a760e01b6001600160e01b03198316145b92915050565b60006020828403121560d557600080fd5b81356001600160e01b03198116811460ec57600080fd5b939250505056fea164736f6c6343000807000a",
  "devdoc": {
    "kind": "dev",
    "methods": {
      "allowance()": {
        "details": "Token quantity value should be interpreted with the same      decimals as the token ERC20 balance.",
        "returns": {
          "_0": "token0Amount, token1Amount The quantity of each token that         can be withdrawn from the vault."
        }
      },
      "supportsInterface(bytes4)": {
        "details": "See {IERC165-supportsInterface}."
      }
    },
    "version": 1
  },
  "userdoc": {
    "kind": "user",
    "methods": {
      "allowance()": {
        "notice": "Determine how much of each token could be withdrawn under         current conditions."
      }
    },
    "notice": "A withdrawal validator that validates withdrawals of an arbitrary size.",
    "version": 1
  },
  "storageLayout": {
    "storage": [],
    "types": null
  }
}